:020000040800F2
:10000000C004002081020008E1020008E1020008AB
:10001000E1020008E1020008E1020008000000001F
:10002000000000000000000000000000E1020008E5
:10003000E102000800000000E1020008E1020008FF
:10004000E1020008E1020008E1020008E102000804
:10005000E1020008E1020008E1020008E1020008F4
:10006000E1020008E1020008E1020008E1020008E4
:10007000E1020008E1020008DD060008E1020008D4
:10008000E1020008E1020008E1020008E1020008C4
:10009000E1020008E1020008E1020008E1020008B4
:1000A000E1020008E1020008E1020008E1020008A4
:1000B000E1020008E1020008E1020008E102000894
:1000C000E1020008E1020008E1020008E102000884
:1000D000E102000819060008E1020008E102000838
:1000E000E1020008E1020008E1020008000000004F
:1000F0000000000000000000000000000000000000
:1001000000000000000000005FF808F180B500AFBB
:10011000154A154B1B6843F0010313601249124B3B
:100120005A68124B13404B600F4A0F4B1B6823F069
:10013000847323F4803313600B4A0B4B1B6823F446
:1001400080231360084A084B5B6823F4FE03536066
:10015000054B4FF41F029A6000F00CF8044B4FF06F
:1001600000629A6000BF80BD001002400000FFF8EE
:1001700000ED00E080B500AF00F002F800BF80BDE8
:1001800080B483B000AF00237B6000233B603A4A19
:10019000394B1B6843F480331360374B1B6803F4FF
:1001A00000333B607B6801337B603B68002B03D1ED
:1001B0007B68B3F5A06FF0D12F4B1B6803F40033BD
:1001C000002B02D001233B6001E000233B603B6831
:1001D000012B4BD1294A294B1B6843F010031360B4
:1001E000264A264B1B6823F003031360234A234B44
:1001F0001B6843F0020313601F4A1F4B5B68536088
:100200001D4A1D4B5B6853601B4A1B4B5B6843F4E4
:1002100080635360184A184B5B6823F47C13536067
:10022000154A154B5B6843F4E8135360124A124BAE
:100230001B6843F08073136000BF0F4B1B6803F013
:100240000073002BF9D00C4A0B4B5B6823F00303BF
:100250005360094A084B5B6843F00203536000BFD8
:10026000054B5B6803F00C03082BF9D100BF0C377A
:10027000BD4680BC704700BF001002400020024015
:1002800080B582B000AF114B7B60114B3B6007E043
:100290003B681A1D3A607A68111D796012681A600D
:1002A0003B680C4A9342F3D30B480C494FF00002D1
:1002B0008842B8BF40F8042BFADBFFF727FF00F0B5
:1002C00053FA00BF0837BD4680BD00BF11150008B6
:1002D000000000201800002018000020C0000020AE
:1002E00080B400AFFEE700BF80B489B000AF786093
:1002F00039600023FB6100233B610023BB610023C5
:10030000FB6000237B610023BB603B68DB7803F06C
:100310000F03FB613B68DB7803F01003002B05D073
:100320003B689B781A46FB691343FB613B681B885B
:10033000DBB2002B44D07B681B687B610023BB6170
:1003400038E00122BB6902FA03F3FB603B681B88BB
:100350001A46FB6813403B613A69FB689A4226D112
:10036000BB699B00FB600F22FB6802FA03F3BB60D2
:10037000BB68DB437A6913407B61FA69FB6802FA68
:1003800003F37A6913437B613B68DB78282B05D143
:100390000122BB699A407B685A6108E03B68DB78C0
:1003A000482B04D10122BB699A407B681A61BB6962
:1003B0000133BB61BB69072BC3D97B687A691A60BB
:1003C0003B681B88FF2B46D97B685B687B610023F9
:1003D000BB613AE0BB690833012202FA03F3FB6018
:1003E0003B681B881A46FB6813403B613A69FB680F
:1003F0009A4227D1BB699B00FB600F22FB6802FA7F
:1004000003F3BB60BB68DB437A6913407B61FA6925
:10041000FB6802FA03F37A6913437B613B68DB787C
:10042000282B05D1BB69083301229A407B685A61A9
:100430003B68DB78482B05D1BB69083301229A4021
:100440007B681A61BB690133BB61BB69072BC1D9EA
:100450007B687A695A6000BF2437BD4680BC70470C
:1004600080B483B000AF78600B467B807A887B686D
:100470001A6100BF0C37BD4680BC704780B483B0A2
:1004800000AF78600B467B807A887B685A6100BF3A
:100490000C37BD4680BC704780B483B000AF0346C4
:1004A000FB71084997F907305B09FA7902F01F02DE
:1004B000012000FA02F241F8232000BF0C37BD46AC
:1004C00080BC704700E100E080B400AF0E4B00221A
:1004D0001A700DE00C4B1B78DBB21A460B4B002157
:1004E0009954094B1B78DBB20133DAB2064B1A7010
:1004F000054B1B78DBB24F2BECD9034B00221A7053
:1005000000BFBD4680BC7047BD0000201C0000201D
:1005100080B592B000AF012144F2040000F092FBDC
:100520000121012000F070FB364BFB61364B3B6232
:1005300010237B625023BB620023FB6280233B635A
:1005400000237B630023BB630023FB6300233B6426
:1005500000237B6407F11C0319462C4800F032FD90
:1005600025233B7600237B760023BB760123FB7695
:1005700007F11803184600F0B7FD4FF40073BB8273
:100580001823FB750323BB7507F114031946204894
:10059000FFF7AAFE4FF48063BB820423FB7507F1CB
:1005A000140319461A48FFF79FFE4FF4E1337B60AE
:1005B00000233B8100237B810023BB8100233B82FE
:1005C0000C23FB813B1D1946124800F093FB0121CF
:1005D000104800F049FC012280210E4800F0ACFCDC
:1005E00001220221094800F047FD0E20FFF754FFC9
:1005F000012240F22551074800F056FC00BF483761
:10060000BD4680BD043801406C000020440002401B
:10061000000801400038014080B500AF1B4B1B882B
:100620009BB203F02003002B2ED0184800F0BAFC38
:100630000346DAB2164B1A70164B1B78DBB21A4619
:10064000134B1B78D9B2144B9954124B1B78DBB265
:100650000133DAB20F4B1A700D4B1B78DBB20D2B46
:1006600007D00C4B1B78DBB24F2B05D9FFF72CFFC3
:1006700002E00A4B01221A70054B1B78DBB29BB2D9
:100680001946024800F07CFC00BF80BD00380140E4
:10069000BC000020BD0000201C000020180000202D
:1006A00090B583B000AF786079680A4800F07EFDAD
:1006B0000021094800F0C4FC074C786800F0D4FD24
:1006C000034663600121044800F0BAFC00BF0C3708
:1006D000BD4690BD6C0000204400024080B500AFD4
:1006E0004FF4005000F0E6FC0021024800F0A8FCA6
:1006F00000BF80BD4400024080B582B000AF00F072
:10070000A3F84FF4803000F0CDF800F0F9F803467C
:10071000FB71FB79012B23D1002000F071F900203F
:1007200000F0A6F94FF4806000F086F94FF4E01174
:100730004FF4803000F00CF9012000F027F900BFE1
:10074000392000F09DFA0346002BF9D0022000F07A
:100750002DF900BF00F046F90346082BFAD100E05E
:10076000FEE70837BD4680BD80B582B000AFFFF719
:10077000C3FF0121102000F065FA4FF40053BB8045
:100780001023FB710323BB713B1D19462448FFF75F
:10079000ABFD4FF400512248FFF770FEFFF7B8FEA3
:1007A0002048FFF77DFF204B1B78DBB2012BFAD1ED
:1007B0001D4B00221A701D48FFF772FF1C48FFF7FF
:1007C0006FFF1C48FFF76CFF194800F0C9FD034696
:1007D00003221949184600F075FD0346002B07D186
:1007E0001648FFF75DFF4FF400510D48FFF746FE36
:1007F0000F4800F0B5FD034604221149184600F0E9
:1008000061FD0346002B07D10E48FFF749FF4FF467
:1008100000510348FFF724FEFFF756FEC3E700BF71
:10082000001001408C13000818000020A8130008D5
:100830001C000020C4130008C8130008CC130008D3
:10084000E8130008F013000880B400AF134A134BFC
:100850001B6843F0010313601049104B5A68104B9A
:1008600013404B600D4A0D4B1B6823F0847323F437
:1008700080331360094A094B1B6823F480231360FB
:10088000064A064B5B6823F4FE035360034B4FF4A8
:100890001F029A6000BFBD4680BC70470010024036
:1008A0000000FFF880B483B000AF7860134A134BA8
:1008B0001B6823F480331360104A104B1B6823F429
:1008C000802313607B68B3F5803F03D0B3F5802F9E
:1008D00007D00DE0094A094B1B6843F480331360CD
:1008E00006E0064A054B1B6843F4A023136000BFD3
:1008F00000BF0C37BD4680BC704700BF00100240EF
:1009000080B582B000AF00233B600023FB71002361
:10091000BB71312000F0B4F90346BB713B68013371
:100920003B603B68B3F5A06F02D0BB79002BF0D0E1
:10093000312000F0A5F90346002B02D00123FB7102
:1009400001E00023FB71FB7918460837BD4680BDE6
:1009500080B485B000AF786039600023FB600A4B3B
:100960005B68FB60FB6823F47C13FB607A683B6880
:100970001343FA681343FB60034AFB68536000BFEC
:100980001437BD4680BC70470010024080B483B06D
:1009900000AF0346FB71044AFB79136000BF0C37BC
:1009A000BD4680BC704700BF6000424280B485B045
:1009B00000AF78600023FB60094B5B68FB60FB685D
:1009C00023F00303FB60FA687B681343FB60044A6F
:1009D000FB68536000BF1437BD4680BC704700BF42
:1009E0000010024080B400AF044B5B68DBB203F040
:1009F0000C03DBB21846BD4680BC704700100240B5
:100A000080B485B000AF78600023FB60094B5B6861
:100A1000FB60FB6823F0F003FB60FA687B6813431C
:100A2000FB60044AFB68536000BF1437BD4680BCBE
:100A3000704700BF0010024080B485B000AF7860FE
:100A40000023FB60094B5B68FB60FB6823F4E063F9
:100A5000FB60FA687B681343FB60044AFB685360E1
:100A600000BF1437BD4680BC704700BF0010024075
:100A700080B485B000AF78600023FB60094B5B68F1
:100A8000FB60FB6823F46053FB607B68DB00FA6863
:100A90001343FB60034AFB68536000BF1437BD4635
:100AA00080BC70470010024080B487B000AF78600F
:100AB00000237B6100233B610023FB600023BB60BC
:100AC0004C4B5B6803F00C037B617B69042B07D004
:100AD000082B09D0002B33D17B68474A1A6033E0DA
:100AE0007B68454A1A602FE0424B5B6803F4701341
:100AF0003B61404B5B6803F48033FB603B699B0CBC
:100B000002333B61FB68002B06D13B693B4A02FB89
:100B100003F27B681A6017E0364B5B6803F400331E
:100B2000002B06D03B69354A02FB03F27B681A6052
:100B30000AE03B69304A02FB03F27B681A6003E07B
:100B40007B682D4A1A6000BF2A4B5B6803F0F003F4
:100B50007B617B691B097B61294A7B6913441B7894
:100B6000DBB2BB607B681A68BB68DA407B685A609E
:100B7000204B5B6803F4E0637B617B691B0A7B614C
:100B80001F4A7B6913441B78DBB2BB607B685A68E1
:100B9000BB68DA407B689A60164B5B6803F460536D
:100BA0007B617B69DB0A7B61154A7B6913441B7897
:100BB000DBB2BB607B685A68BB68DA407B68DA608E
:100BC0000C4B5B6803F440437B617B699B0B7B614F
:100BD0000C4A7B6913441B78DBB2BB607B68DA6824
:100BE000BB68B2FBF3F27B681A6100BF1C37BD46DD
:100BF00080BC70470010024000127A0000093D00DE
:100C0000000000201000002080B483B000AF7860A6
:100C10000B46FB70FB78002B06D00949084B5A693C
:100C20007B6813434B6106E00549054B5A697B68B5
:100C3000DB4313404B6100BF0C37BD4680BC70479F
:100C40000010024080B483B000AF78600B46FB70A8
:100C5000FB78002B06D00949084B9A697B6813433F
:100C60008B6106E00549054B9A697B68DB431340BD
:100C70008B6100BF0C37BD4680BC7047001002403E
:100C800080B487B000AF0346FB710023FB600023F4
:100C90007B610023FB74FB795B09DBB2FB60FB68C3
:100CA000012B03D1124B1B687B6109E0FB68022B0F
:100CB00003D10F4B1B6A7B6102E00D4B5B6A7B61CA
:100CC000FB7903F01F03FB607A69FB6822FA03F3E8
:100CD00003F00103002B02D00123FB7401E0002389
:100CE000FB74FB7C18461C37BD4680BC704700BFB8
:100CF0000010024080B58CB000AF786039600023EE
:100D0000FB620023BB6200237B6200233B62002363
:100D1000FB617B68FB617B681B8A9BB2FB62FA6AA2
:100D20004CF6FF731340FB623B68DB881A46FB6A94
:100D30001343FB62FB6A9AB27B681A827B689B89C9
:100D40009BB2FB62FA6A4EF6F3131340FB623B68F8
:100D50009A883B681B8913439AB23B685B891343AB
:100D60009BB21A46FB6A1343FB62FB6A9AB27B682A
:100D70009A817B689B8A9BB2FB62FA6A4FF6FF43BB
:100D80001340FB623B689B891A46FB6A1343FB6274
:100D9000FB6A9AB27B689A8207F108031846FFF74C
:100DA00083FEFB692E4A934202D17B69BB6201E05C
:100DB0003B69BB627B689B899BB21BB2002B0CDA40
:100DC000BA6A13469B0013449A001A443B681B6896
:100DD0005B00B2FBF3F37B620BE0BA6A13469B0045
:100DE00013449A001A443B681B689B00B2FBF3F360
:100DF0007B627B6A1B4AA2FB03235B091B01FB622C
:100E0000FB6A1B09642202FB03F37A6AD31A3B6272
:100E10007B689B899BB21BB2002B0CDA3B6ADB0020
:100E20003233104AA2FB03235B0903F00703FA6A7B
:100E30001343FB620BE03B6A1B013233094AA2FBFE
:100E400003235B0903F00F03FA6A1343FB62FB6A97
:100E50009AB27B681A8100BF3037BD4680BD00BFA3
:100E6000003801401F85EB5180B483B000AF78603B
:100E70000B46FB70FB78002B08D07B689B899BB2EC
:100E800043F400539AB27B689A8107E07B689B89A0
:100E90009BB223F400539AB27B689A8100BF0C374F
:100EA000BD4680BC704700BF80B487B000AF78609B
:100EB0000B467B8013467B7000233B610023FB6065
:100EC0000023BB6000237B617B687B617B88DBB296
:100ED0005B09DBB23B617B8803F01F03FB600122EF
:100EE000FB6802FA03F3BB603B69012B03D17B690A
:100EF0000C337B6109E03B69022B03D17B69103322
:100F00007B6102E07B6914337B617B78002B06D028
:100F10007B697A691168BA680A431A6006E07B69DE
:100F20007A691168BA68D2430A401A6000BF1C3758
:100F3000BD4680BC704700BF80B483B000AF78600E
:100F40000B467B8013467B707B78002B08D07B6838
:100F50009B8A9AB27B8813439AB27B689A8209E093
:100F60007B689B8A9AB27B88DB439BB213409AB220
:100F70007B689A8200BF0C37BD4680BC704700BFBB
:100F800080B483B000AF78600B467B807B88C3F36E
:100F900008039AB27B689A8000BF0C37BD4680BCBC
:100FA000704700BF80B483B000AF78607B689B88D7
:100FB0009BB2C3F308039BB218460C37BD4680BCF6
:100FC000704700BF80B485B000AF786039600023FF
:100FD000FB607B681B68FB60FB6823F4FF4323F026
:100FE0007003FB603B689A683B681B6A1A433B6866
:100FF0001B691A433B685B691A433B689B691A4348
:101000003B68DB691A433B685B6A1A433B689B6A2F
:101010001343FA681343FB607B68FA681A603B6805
:10102000DA687B685A603B681A687B689A603B683C
:101030005A687B68DA6000BF1437BD4680BC7047D1
:1010400080B483B000AF78600B46FB70FB78002B58
:1010500006D07B681B6843F001027B681A6006E0DB
:101060007B681A684FF6FE7313407A68136000BFFE
:101070000C37BD4680BC704780B485B000AFF860C7
:10108000B9601346FB71FB79002B06D0FB681A6828
:10109000BB681A43FB681A6006E0FB681A68BB6805
:1010A000DB431A40FB681A6000BF1437BD4680BCA2
:1010B000704700BF80B483B000AF78607B6803F0F6
:1010C0008053002B03D0064A7B68536002E0054A38
:1010D0007B68536000BF0C37BD4680BC704700BFC3
:1010E000000402400000024080B487B000AF786086
:1010F00000237B6100233B610F23FB607B68DB786F
:10110000002B3AD0274BDB68DB4303F4E0631B0A78
:101110007B617B69C3F104033B61FA687B6922FA56
:1011200003F3FB607B685B781A463B6902FA03F3C2
:101130007B617B689B781A46FB6813407A6913438E
:101140007B617B691B017B61174A7B681B7879692E
:10115000C9B213440A4683F80023134A7B681B78FC
:101160005B09DBB218467B681B7803F01F03012183
:1011700001FA03F342F820300FE00B497B681B783B
:101180005B09DBB218467B681B7803F01F03012262
:101190009A4000F1200341F8232000BF1C37BD46D0
:1011A00080BC704700ED00E000E100E080EA010251
:1011B000844612F0030F4FD111F0030F32D14DF8D6
:1011C000044D11F0040F51F8043B0BD0A3F1013290
:1011D0009A4312F0803F04BF4CF8043B51F8043BA3
:1011E00016D100BF51F8044BA3F101329A4312F01B
:1011F000803FA4F101320BD14CF8043BA24312F022
:10120000803F04BF51F8043B4CF8044BEAD023461E
:101210000CF8013B13F0FF0F4FEA3323F8D15DF8D0
:10122000044B704711F0010F06D011F8012B0CF898
:10123000012B002A08BF704711F0020FBFD031F810
:10124000022B12F0FF0F16BF2CF8022B8CF8002097
:1012500012F47F4FB3D1704711F8012B0CF8012B1A
:10126000002AF9D1704700BF20F0030110F00300FD
:10127000C0F1000051F8043B00F1040C4FEACC0C23
:101280006FF000021CBF22FA0CF213434FF0010C66
:101290004CEA0C2C4CEA0C4CA3EB0C0222EA0302A5
:1012A00012EACC1204BF51F8043B0430F4D0C2F16E
:1012B000000102EA0102B2FA82F2C2F11F0200EB5F
:1012C000D2007047002A3FD040EA010313F0030325
:1012D000F0B425D1032A23D904680D68AC421FD18C
:1012E000043A33D0A4F1013525EA040414F0803F18
:1012F0002FD1071D0D1D0DE057F8043B0E68A3F11B
:101300000134B34224EA03040AD1043A1ED014F093
:10131000803F21D1032A2946384605F10405EBD840
:1013200003780C78013A9C420BD17AB114B915E0DC
:1013300062B173B110F8013F11F8014F013AA342B5
:10134000F6D0181BF0BC7047104670471046F0BC32
:1013500070471846F0BC70470020F3E72046F1E7DD
:10136000037883B1014610B4074C22681A445278BE
:1013700002F00302022A08BF203B0B7011F8013F64
:10138000002BF2D110BC70471400002048656C6C33
:101390006F2E0D0A555341525431206973207265E6
:1013A0006164792E0D0A00000D0A492068617320DE
:1013B00072656365697665642061206C696E653A63
:1013C0000D0A00003A0D0A004F4E0D0054484953D3
:1013D000204953204120434F4D4D414E4420224F40
:1013E0004E222121210D0A004F46460D000000002B
:1013F00054484953204953204120434F4D4D414EBD
:101400004420224F4646222121210D0A00000000DF
:1014100000202020202020202020282828282820C4
:1014200020202020202020202020202020202020BC
:101430002088101010101010101010101010101024
:101440001004040404040404040404101010101014
:1014500010104141414141410101010101010101DE
:101460000101010101010101010101011010101030
:1014700010104242424242420202020202020202B0
:101480000202020202020202020202021010101004
:10149000200000000000000000000000000000002C
:1014A000000000000000000000000000000000003C
:1014B000000000000000000000000000000000002C
:1014C000000000000000000000000000000000001C
:1014D000000000000000000000000000000000000C
:1014E00000000000000000000000000000000000FC
:1014F00000000000000000000000000000000000EC
:1015000000000000000000000000000000000000DB
:0115100000DA
:101511000000000001020304010203040607080998
:08152100020406081014000882
:0400000508000000EF
:00000001FF
