:020000040800F2
:1000000018040020350300083103000831030008FC
:10001000310300083103000831030008000000002C
:100020000000000000000000000000003103000894
:10003000310300080000000031030008310300080C
:1000400031030008310300083103000831030008C0
:1000500031030008310300083103000831030008B0
:1000600031030008310300083103000831030008A0
:100070003103000831030008310300083103000890
:100080003103000831030008310300083103000880
:100090003103000831030008310300083103000870
:1000A0003103000831030008310300083103000860
:1000B0003103000831030008310300083103000850
:1000C0003103000831030008310300083103000840
:1000D0003103000831030008310300083103000830
:1000E000310300083103000831030008000000005C
:1000F0000000000000000000000000000000000000
:1001000000000000000000005FF808F1264A0388A4
:1001100090429BB212D002F5006290420ED0B0F134
:10012000804F0BD0A2F59832904207D002F5806242
:10013000904203D002F58062904203D14A8823F0B6
:1001400070031343194A904226D002F58062904210
:1001500022D0CA8870B423F44073134C8E880D8863
:100160009BB21343A0420380868505850ED0104BB9
:1001700098420BD003F54063984207D003F58063A3
:10018000984203D003F58063984201D10B7A03862D
:100190000123838270BC704703808B8883850B8822
:1001A0000385012383827047002C0140001000402A
:1001B000003401404FF6FF72002382800380C38029
:1001C00043800372704700BF038829B923F00103FD
:1001D0001B041B0C038070479BB243F00103038098
:1001E000704700BF70B40689048B058C24F44074FA
:1001F00024F00304ADB225F0220526F007062404FE
:100200002A433604240C360C44F4807442EA031367
:10021000314344F001049AB201810483028470BC2A
:10022000704700BF808C80B2704700BF3C4B30B439
:1002300018683C4940F0010018605D6882B02940B0
:1002400059601968002021F0847121F4803119600F
:1002500019684FF41F0421F48021196059681A4667
:1002600021F4FE0159609C6000900190196841F4EE
:100270008031196003E0009BB3F5A06F09D01368CB
:1002800003F400330193009B01330093019B002B87
:10029000F1D0234B1B6813F4003318BF01230193E3
:1002A000019B012B06D0204B4FF000629A6002B0F8
:1002B00030BC70471D4A1A4B1068194640F01000B8
:1002C0001060106820F003001060106840F0020019
:1002D00010605A685A605A685A605A6842F48062DC
:1002E0005A605A6822F47C125A605A6842F4E81242
:1002F0005A601A6842F080721A600B68084A9B01C3
:10030000FBD51146536823F003035360536843F051
:10031000020353604B6803F00C03082BFAD1C2E7C9
:10032000001002400000FFF800ED00E00020024055
:10033000FEE700BF08B50D480D4B984207D2C243F7
:100340001A4422F0030204320A4900F07FFF0A48EF
:100350000A494FF000028842B8BF40F8042BFADB8C
:10036000FFF764FFBDE8084000F066BA0000002017
:1003700014000020E41300081400002014000020E2
:1003800030B4CD78EB0648BF8B7805F00F0448BF3A
:100390001C430B8813F0FF0F33D0482D026800F088
:1003A0009980282D00F0FB80D90744BF22F00F026E
:1003B0002243990744BF22F0F00242EA041259078F
:1003C00044BF22F4706242EA0422190744BF22F4B7
:1003D000704242EA0432D90644BF22F4702242EA53
:1003E0000442990644BF22F4700242EA04525906BC
:1003F00044BF22F0706242EA0462190600F19F8055
:100400000260FF2B31D9282D426830D0482D00F0F2
:100410009980D90544BF22F00F0222439D0544BFB5
:1004200022F0F00242EA0412590544BF22F470623D
:1004300042EA04221D0544BF22F4704242EA04321B
:10044000D90444BF22F4702242EA04429D0444BF0E
:1004500022F4700242EA0452590444BF22F070624E
:1004600042EA04621B0467D4426030BC704703F464
:10047000807189B2002940F0118103F4007189B2C2
:10048000002940F0058103F4806189B2002940F021
:10049000F98003F4006189B2002940F0ED8003F493
:1004A000805189B2002940F0E18003F4005189B203
:1004B000002940F0D58003F4804189B2002940F042
:1004C000C98003F400439BB2002BCDD064F31F72AC
:1004D0004361C9E713F0010140F0038103F0020119
:1004E00089B2002940F0F78003F0040189B20029A5
:1004F00040F0EB8003F0080189B2002940F0DF8072
:1005000003F0100189B2002940F0D38003F02001EC
:1005100089B2002940F0C78003F0400189B2002968
:1005200040F0E48003F0800189B200293FF468AF15
:1005300064F31F72016163E764F31F7294E764F36D
:100540001F725DE703F4807189B200296BD103F457
:10055000007189B2002960D103F4806189B2002959
:1005600055D103F4006189B200294AD103F48051C6
:1005700089B2002962D103F4005189B2002957D110
:1005800003F4804189B200295ED103F400439BB299
:10059000002B3FF469AF64F31F72036164E713F04B
:1005A000010140F0CD8003F0020189B2002940F042
:1005B000C18003F0040189B2002940F0B58003F046
:1005C000080189B2002940F0A98003F0100189B226
:1005D000002940F09D8003F0200189B2002940F0FD
:1005E000918003F0400189B2002940F0858003F03A
:1005F000800189B200293FF403AF64F31F724161A7
:10060000FEE622F4704242EA04320161AEE722F4CF
:10061000706242EA04220161A3E722F0F00242EA9A
:100620000412016198E722F00F02224301618EE774
:1006300022F4700242EA04520161A1E722F470221E
:1006400042EA0442016196E722F0706242EA0462E3
:1006500001619AE722F0706242EA0462416130E788
:1006600022F4700242EA0452416124E722F470222B
:1006700042EA0442416118E722F4704242EA04323D
:1006800041610CE722F4706242EA0422416100E712
:1006900022F0F00242EA04124161F4E622F00F0275
:1006A00022434161E9E622F4700242EA0452016108
:1006B00032E722F4702242EA0442016126E722F482
:1006C000704242EA043201611AE722F4706242EA9F
:1006D000042201610EE722F0F00242EA04120161F5
:1006E00002E722F00F0222430161F7E622F0706276
:1006F00042EA0462016115E722F0706242EA046294
:10070000416174E722F4700242EA0452416168E7F1
:1007100022F4702242EA044241615CE722F4704212
:1007200042EA0432416150E722F4706242EA042254
:10073000416144E722F0F00242EA0412416138E7E5
:1007400022F00F02224341612DE700BF70B51D4D1D
:1007500086B0012144F2040000F0E6FC1A4C284661
:1007600001A9182203234FF400768DF807208DF895
:100770000630ADF80460FFF703FE01A928464FF4E8
:1007800080620423ADF804208DF807304FF4E13582
:10079000FFF7F6FD00230C22204602A9ADF80C302D
:1007A000ADF80E30ADF81030ADF81430ADF81220C1
:1007B000029500F0D5FC2046012100F02FFD06B087
:1007C00070BD00BF000801400038014030B5012174
:1007D00085B0042000F0A8FC02254822C023694609
:1007E00013488DF80320ADF80030124C8DF80250FC
:1007F000FFF7C6FD2846012100F0A4FC01A8FFF781
:10080000D9FC01A9204664221023ADF80820ADF8D8
:100810000630FFF77BFC002320461A460321FFF732
:10082000E1FC20460121FFF7CFFC05B030BD00BF41
:10083000000801400004004010B594B0502200218F
:10084000684600F079FDFFF781FFFFF7BFFF0B4817
:10085000FFF7E8FC0A490246684600F009FC6C46CE
:1008600014F8011B0029F2D0064800F0E5FC4021F5
:10087000044800F0E5FC0028F9D0F1E7000400404E
:10088000D413000800380140092B2DE9F84317461E
:100890001C4602F1FF36054614D8002ED8BF0120B1
:1008A00004DD324600F048FD384635441D4BA3FBBD
:1008B0000423DB0803EB8303A4EB430330332B70E7
:1008C000BDE8F883174BA2F10209A3FB04384FEAF5
:1008D000D808B8F1090F14D8B9F1000F1DDD4A4648
:1008E00000F02AFD3846A9440E4B3544A3FB0823EB
:1008F000DB0803EB8303A8EB4303303389F80030B4
:10090000D4E7094B4A46A3FB04635B09FFF7BCFF2E
:1009100005EB0009461C0230E6E78146012602206D
:10092000E2E700BFCDCCCCCC1F85EB512DE9F843DD
:10093000002B164605463ADB092B1C461EDD554F9B
:10094000A7FB0437FF08092F59D8A2F10208B8F114
:10095000000F40F38F80424600F0EEFC304605EB7E
:100960000802711E4B4B0D44A3FB0763DB0803EB2E
:100970008303A7EB4303303313700CE0561E002EA5
:10098000D8BF012007DD012EB8BF0126324600F096
:10099000D3FC3544701C3F4AA2FB0432D20802EB60
:1009A0008202A4EB420230322A70BDE8F8835C4236
:1009B000092C15DD374FA7FB0437FF08092F40D856
:1009C000A2F10308B8F1000F5DDD424600F0B4FC6F
:1009D000304605EB0802711E2D2302F8013BC1E7EA
:1009E000961E002E53DD012EB8BF01263246354437
:1009F00000F0A2FC2D23B01C05F8013BCBE7264BF1
:100A0000A2F10309A3FB04384FEA5818B8F1090F03
:100A100023D8B9F1000F31DD4A4600F08DFC304695
:100A200005EB090EB21E711E1A4B2A44A3FB086384
:100A3000DB0803EB8303A8EB430330338EF800306D
:100A400090E7154B023AA3FB04635B095B42FFF797
:100A50006DFF2A18411C023084E7104B4A46A3FB65
:100A600004639B09FFF762FF05EB000E421C811C2B
:100A70000330D9E702460121022073E786460221AE
:100A800003200122D0E7024602210320A4E700262A
:100A9000B0E700BFCDCCCCCC1F85EB51D34D62105D
:100AA0002DE9F04383B00A9C16462709054698466F
:100AB0001FD1571E002FD8BF012004DD3A4600F099
:100AC0003BFC30463D4404F00F04092C0CD9B8F12E
:100AD000000F04D157342C7003B0BDE8F0833734D5
:100AE0002C7003B0BDE8F08330342C7003B0BDE847
:100AF000F083A2F10209220A19D1B9F1000F24DD15
:100B00004A4600F019FCA9443046013E07F00F07A1
:100B1000092F07D9B8F1000F12D1573789F80070A3
:100B20003544D0E7303789F800703544CBE7009280
:100B30004A46FFF7B5FF05EB0009461C0230E5E722
:100B4000373789F800703544BDE781460126022019
:100B5000DCE700BF2DE9F04F884689B01446054612
:100B600008B10022027099460026217859B1464505
:100B700080F0008125290ED02970013421780136BA
:100B800001350029F3D1B04540F2F4803046297098
:100B900009B0BDE8F08F6178252938D030293BD0E5
:100BA0000846A0F13003092B04F101044FF02001A5
:100BB00038D8002303EB830300EB430314F8010F41
:100BC000303BA0F13002092A03F0FF03F2D91A46A4
:100BD0003244904538BFC6EB0803A0F1580038BF37
:100BE000DBB2202800F2CD80DFE800F0A3CBCBCB36
:100BF000CBCBCBCBCBCBCB9B77CBCBCBCB77CBCB1D
:100C0000CBCBCBCBCBCBCB65CB3ECBCB1F0029709B
:100C1000023401360135A8E7A0780234A0F1300390
:100C2000092BC6D900221346D2E7D9F800709B469B
:100C30005FEA171A09F1040940F0CB8003F1FF3A8B
:100C4000BAF1000F40F3848152462846029300F027
:100C500073FB029BAA441A46194607F00F07092F97
:100C600040F28480573782E0D9F800A01F46BAF1DD
:100C7000090F09F1040903F1FF3B00F20781BBF101
:100C8000000F40F35D815A462846029300F054FB62
:100C9000029BAB441A461946CA4BA3FB0A03DB0866
:100CA00003EB8303AAEB430330338BF800300134AA
:100CB00015440E4459E7D9F8000009F104090378F6
:100CC000002B00F022812A4602F8013B10F8013F78
:100CD000511B002BF8D10A46E9E7D9F800201F463E
:100CE000002A09F10409C0F2B580092A92464DDCB8
:100CF0005F1E002F40F33081012FB8BF01273A4615
:100D0000284600F019FB7A1C1146EB19AD48A0FBF0
:100D10000A70C00800EB8000AAEB40003030187069
:100D2000C5E7D9F8003001222B7009F104091146FA
:100D3000BDE7D9F800709B465FEA171A09F104096C
:100D400068D103F1FF3ABAF1000F40F3FD8052463B
:100D50002846029300F0F0FA029BAA441A4619466C
:100D600007F00F07092F01D9373700E030378AF82D
:100D700000709CE70023701E05F8013C09B0BDE837
:100D8000F08F4FF0FF3009B0BDE8F08F8D4A023B85
:100D9000A2FB0A2B4FEADB0BBBF1090F00F2978095
:100DA000002B40F300811A462846029300F0C4FA53
:100DB0003A46029B781E2B448249A1FB0BE1C908ED
:100DC00001EB8101ABEB4101303119702B18394631
:100DD0009CE73A0AA3F1020340F0A680002B40F3FF
:100DE000E7801A462846029300F0A6FA5A46029B6C
:100DF0000BF1FF312B440AF00F0ABAF1090F94BF2F
:100E00000AF1300A0AF1570A83F800A005EB010A3B
:100E1000594622E73A0AA3F1020379D1002B40F3A5
:100E2000CC801A462846029300F086FA5A46029B66
:100E30000BF1FF312B440AF00F0ABAF1090F94BFEE
:100E40000AF1300A0AF1370A83F800A005EB010A1B
:100E5000594685E7C2F1000ABAF1090F03F1FF32E2
:100E600042DC9F1E002F40F3D780012FB8BF01271F
:100E70003A4607F1020B284600F05EFA5A462F4424
:100E80003B462D20594603F8010B3FE74D4A023BF4
:100E9000A2FB0A02D208092A029261D8002B2EDD99
:100EA0001A462846039300F047FA3A46039B2B4420
:100EB00002984449AB44A1FB00E1C90801EB810160
:100EC000A0EB410101F1300018703946E4E63E4ADA
:100ED000A2FB0A201A4643092846FFF727FD871C74
:100EE0002B183A46013067E7364BA3FB0A03DB08B1
:100EF0005B422846FFF71AFD471C3A4666E7022286
:100F000017462B464FF0010BD2E71A461946CEE69C
:100F1000009228461A460123FFF7C2FD00F1020B9A
:100F20005A462B18411C86E7009228461A46002391
:100F3000FFF7B6FD00F1020B5A462B18411C5AE789
:100F400001221146AB46A7E601221146AA4607E751
:100F500001221146AA4680E6012211462B46D5E61B
:100F6000194AA2FB0A025209F81E092A05920390A7
:100F70002CD8002854DD02462846049300F0DCF902
:100F800003993A4629448E46049B05980D492B4403
:100F9000A1FB00C1C90801EB8101A0EB4101303187
:100FA0008EF8001084E7022217462B46012003E743
:100FB000022293462B4601211DE7022293462B462F
:100FC000012138E7CDCCCCCC1F85EB51254AA2FBC3
:100FD0000A029209381F092A0692049030D8002884
:100FE00025DD02462846079300F0A6F904993A4603
:100FF00029448C46DDF80CE0079B06981A49AE445C
:10100000A1FB00010698C90801EB8101A0EB410199
:1010100030318CF80010B8E7022293462F462FE7B4
:1010200003221746AE464FF0020B0123ADE7042220
:101030001746AC464FF0030B02234FF0010EDCE7DE
:101040000A4B2846A3FB0A23049A5B0BFFF71CFC00
:10105000071D3A4605EB000C00F1010E831C00F160
:10106000030BCAE7D34D6210CDCCCCCC5917B7D106
:101070000EB410B583B005AC54F8042B642123469C
:101080000194FFF767FD03B0BDE8104003B070475F
:10109000214A10B4536803F00C03042B06D0082B2C
:1010A00025D01BB11D4A1346026001E01B4B0360B3
:1010B000194A1B495468C4F303140C5DE3404360B0
:1010C0005468C4F302240C5D23FA04F48460546869
:1010D000C4F3C2240C5DE340C360526810BCC2F389
:1010E00081320A44127CB3FBF2F303617047536808
:1010F0005168C3F38343C90303F1020307D5526860
:10110000920304D4054A02FB03F30360D0E7054AC7
:1011100002FB03F30360CBE70010024000127A00E9
:101120000000002000093D0029B9054A936923EA1F
:10113000000090617047024B9A69104398617047B4
:101140000010024029B9054AD36923EA0000D061A2
:101150007047024BDA691043D861704700100240B3
:1011600030B504460D46038ACA889BB223F4405327
:101170001343038282890B89888892B24989034389
:1011800022F4B0520B4322F00C0213439BB2A38112
:10119000A38AAA899BB223F4407387B01343A38226
:1011A00001A8FFF775FF04991A48039BA28984429E
:1011B00008BF0B4612F4004F2A6803EB830314BFE9
:1011C0005200920003EB8303B3FBF2F3124DA189AB
:1011D000A5FB03206422400900FB12330A044FEAF6
:1011E00000100AD41A013232A5FB0223C3F34313C1
:1011F00003439BB2238107B030BDD9003231A5FB38
:101200000131C1F3421242EA00039BB2238107B0CD
:1012100030BD00BF003801401F85EB51838929B9DB
:1012200023F400531B041B0C838170479BB243F4CF
:1012300000538381704700BFC1F30801818070476C
:101240000388194214BF012000207047844641EAF8
:10125000000313F0030349D1403A23D30B68036022
:101260004B6843608B688360CB68C3600B69036124
:101270004B6943618B698361CB69C3610B6A03620C
:101280004B6A43628B6A8362CB6AC3620B6B0363F4
:101290004B6B43638B6B8363CB6BC36340304031D9
:1012A000403ADBD230320BD30B6803604B684360AB
:1012B0008B688360CB68C36010301031103AF3D272
:1012C0000C3205D351F8043B40F8043B043AF9D200
:1012D000043208D0D2071CBF11F8013B00F8013BD3
:1012E00001D30B8803806046704700BF082A13D3E0
:1012F0008B07B1D010F00303AED0C3F10403D21AB0
:10130000DB071CBF11F8013B00F8013BA4D331F807
:10131000023B20F8023B9FE7043AD9D3013A11F887
:10132000013B00F8013BF9D20B7803704B78437016
:101330008B7883706046704770B4840746D0541E23
:10134000002A41D0CDB2034602E0621EE4B3144647
:1013500003F8015B9A07F8D1032C2ED9CDB245EAE8
:1013600005250F2C45EA054519D9264603F110023B
:10137000103E0F2E42F8105C42F80C5C42F8085CFC
:1013800042F8045C02F11002F2D8A4F1100222F03B
:101390000F0204F00F041032032C13440DD91E4623
:1013A0002246043A032A46F8045BFAD8221F22F0A8
:1013B00003020432134404F003042CB1C9B21C44E8
:1013C00003F8011BA342FBD170BC704714460346CF
:1013D000C2E700BF434F554E5445523A2025640D95
:0413E0000A000000FF
:1013E40000000000010203040102030406070809C7
:0413F40002040608E1
:0400000508000000EF
:00000001FF
