:020000040800F2
:1000000000040020A90400080905000809050008EB
:10001000090500080905000809050008000000009E
:1000200000000000000000000000000009050008BA
:10003000090500080000000009050008090500087E
:100040000905000809050008090500080905000858
:100050000905000809050008090500080905000848
:100060000905000809050008090500080905000838
:100070000905000809050008090500080905000828
:100080000905000809050008090500080905000818
:100090000905000809050008090500080905000808
:1000A00009050008090500080905000809050008F8
:1000B0000905000809050008F506000809050008FB
:1000C00009050008090500080905000809050008D8
:1000D00009050008090500080905000809050008C8
:1000E00009050008090500080905000800000000CE
:1000F0000000000000000000000000000000000000
:1001000000000000000000005FF808F180B485B036
:1001100000AF786039600023FB817B681B88FB811E
:100120007B682E4A934213D07B682D4A93420FD0AE
:100130007B68B3F1804F0BD07B682A4A934207D08B
:100140007B68294A934203D07B68284A934208D1AE
:10015000FB8923F07003FB813B685A88FB891343BA
:10016000FB817B68224A93420CD07B68214A9342F0
:1001700008D0FB8923F44073FB813B68DA88FB8954
:100180001343FB817B68FA891A803B689A887B68F5
:100190009A853B681A887B681A857B680F4A934268
:1001A0000FD07B680E4A93420BD07B68124A934271
:1001B00007D07B68114A934203D07B68104A934270
:1001C00004D13B681B7A9AB27B681A867B6801224D
:1001D0009A8200BF1437BD4680BC7047002C014096
:1001E000003401400004004000080040000C0040C2
:1001F0000010004000140040004001400044014055
:100200000048014080B483B000AF78607B684FF64F
:10021000FF729A807B6800221A807B680022DA8055
:100220007B6800225A807B6800221A7200BF0C375C
:10023000BD4680BC704700BF80B483B000AF78601B
:100240000B46FB70FB78002B08D07B681B889BB2A9
:1002500043F001039AB27B681A8007E07B681B8831
:100260009BB223F001039AB27B681A8000BF0C375F
:10027000BD4680BC704700BF80B483B000AF7860DB
:100280000B467B8013467B707B78002B08D07B6805
:100290009B899AB27B8813439AB27B689A8109E062
:1002A0007B689B899AB27B88DB439BB213409AB2EE
:1002B0007B689A8100BF0C37BD4680BC704700BF89
:1002C00080B485B000AF78600B467B800023FB7361
:1002D0000023BB8100237B817B681B8A9AB27B88C9
:1002E0001340BB817B689B899AB27B8813407B81DA
:1002F000BB89002B05D07B89002B02D00123FB7327
:1003000001E00023FB73FB7B18461437BD4680BC1D
:10031000704700BF80B483B000AF78600B467B802D
:100320007B88DB439AB27B681A8200BF0C37BD46DC
:1003300080BC704780B500AF154A154B1B6843F071
:10034000010313601249124B5A68124B13404B6061
:100350000F4A0F4B1B6823F0847323F48033136020
:100360000B4A0B4B1B6823F480231360084A084B8D
:100370005B6823F4FE035360054B4FF41F029A6041
:1003800000F00CF8044B4FF000629A6000BF80BD93
:10039000001002400000FFF800ED00E080B500AF63
:1003A00000F002F800BF80BD80B483B000AF00232E
:1003B0007B6000233B603A4A394B1B6843F480332F
:1003C0001360374B1B6803F400333B607B680133D9
:1003D0007B603B68002B03D17B68B3F5A06FF0D145
:1003E0002F4B1B6803F40033002B02D001233B602A
:1003F00001E000233B603B68012B4BD1294A294B8C
:100400001B6843F010031360264A264B1B6823F039
:1004100003031360234A234B1B6843F0020313605A
:100420001F4A1F4B5B6853601D4A1D4B5B6853603E
:100430001B4A1B4B5B6843F480635360184A184B9C
:100440005B6823F47C135360154A154B5B6843F4D7
:10045000E8135360124A124B1B6843F08073136019
:1004600000BF0F4B1B6803F00073002BF9D00C4A40
:100470000B4B5B6823F003035360094A084B5B682E
:1004800043F00203536000BF054B5B6803F00C03AD
:10049000082BF9D100BF0C37BD4680BC704700BFA8
:1004A000001002400020024080B582B000AF114B26
:1004B0007B60114B3B6007E03B681A1D3A607A682D
:1004C000111D796012681A603B680C4A9342F3D39D
:1004D0000B480C494FF000028842B8BF40F8042B8B
:1004E000FADBFFF727FF00F01FF900BF0837BD4612
:1004F00080BD00BF740B0008000000200000002039
:10050000000000200000002080B400AFFEE700BF24
:1005100080B489B000AF786039600023FB610023AC
:100520003B610023BB610023FB6000237B61002350
:10053000BB603B68DB7803F00F03FB613B68DB7853
:1005400003F01003002B05D03B689B781A46FB692B
:100550001343FB613B681B88DBB2002B44D07B68F4
:100560001B687B610023BB6138E00122BB6902FA92
:1005700003F3FB603B681B881A46FB6813403B6132
:100580003A69FB689A4226D1BB699B00FB600F2247
:10059000FB6802FA03F3BB60BB68DB437A69134074
:1005A0007B61FA69FB6802FA03F37A6913437B61A2
:1005B0003B68DB78282B05D10122BB699A407B6818
:1005C0005A6108E03B68DB78482B04D10122BB6903
:1005D0009A407B681A61BB690133BB61BB69072B19
:1005E000C3D97B687A691A603B681B88FF2B46D9A0
:1005F0007B685B687B610023BB613AE0BB690833C1
:10060000012202FA03F3FB603B681B881A46FB6871
:1006100013403B613A69FB689A4227D1BB699B0052
:10062000FB600F22FB6802FA03F3BB60BB68DB438D
:100630007A6913407B61FA69FB6802FA03F37A690D
:1006400013437B613B68DB78282B05D1BB690833FA
:1006500001229A407B685A613B68DB78482B05D1C0
:10066000BB69083301229A407B681A61BB69013378
:10067000BB61BB69072BC1D97B687A695A6000BF2F
:100680002437BD4680BC704780B483B000AF78602B
:100690000B467B807A887B685A6100BF0C37BD4669
:1006A00080BC704780B582B000AF00F089F84FF48D
:1006B000803000F0B3F800F0DFF80346FB71FB79FF
:1006C000012B12D1002000F029F9002000F05EF982
:1006D000002000F03FF9012000F0F6F800BF00F024
:1006E0000FF90346042BFAD100E0FEE70837BD46B8
:1006F00080BD00BF80B500AF01210948FFF7E0FDD4
:100700000346002B09D001210548FFF703FE054AE7
:10071000044BDB6883F40053D36000BF80BD00BF8F
:10072000000800400010014080B586B000AFFFF720
:10073000B9FF0121102000F045F94FF40053BB82AE
:100740001023FB750323BB7507F1140319461A48E0
:10075000FFF7DEFE4FF400511748FFF795FF012128
:10076000042000F04DF907F108031846FFF74AFD91
:1007700000237B814FF4FA533B814FF4FA73BB8122
:1007800007F1080319460D48FFF7C0FC01220121BB
:100790000A48FFF771FD01210848FFF74DFD1E23B0
:1007A0003B7100237B710023BB710123FB713B1D57
:1007B000184600F07DF9FEE70010014000080040F7
:1007C00080B400AF134A134B1B6843F0010313605E
:1007D0001049104B5A68104B13404B600D4A0D4B9B
:1007E0001B6823F0847323F480331360094A094B98
:1007F0001B6823F480231360064A064B5B6823F4CE
:10080000FE035360034B4FF41F029A6000BFBD46C6
:1008100080BC7047001002400000FFF880B483B035
:1008200000AF7860134A134B1B6823F480331360C6
:10083000104A104B1B6823F4802313607B68B3F5C8
:10084000803F03D0B3F5802F07D00DE0094A094B54
:100850001B6843F48033136006E0064A054B1B68AF
:1008600043F4A023136000BF00BF0C37BD4680BC1B
:10087000704700BF0010024080B582B000AF002377
:100880003B600023FB710023BB71312000F0D6F8E0
:100890000346BB713B6801333B603B68B3F5A06F17
:1008A00002D0BB79002BF0D0312000F0C7F803460E
:1008B000002B02D00123FB7101E00023FB71FB79C7
:1008C00018460837BD4680BD80B485B000AF78605B
:1008D0000023FB60094B5B68FB60FB6823F00303AC
:1008E000FB60FA687B681343FB60044AFB68536053
:1008F00000BF1437BD4680BC704700BF00100240E7
:1009000080B400AF044B5B68DBB203F00C03DBB2D6
:100910001846BD4680BC70470010024080B485B0C8
:1009200000AF78600023FB60094B5B68FB60FB68ED
:1009300023F0F003FB60FA687B681343FB60044A12
:10094000FB68536000BF1437BD4680BC704700BFD2
:100950000010024080B485B000AF78600023FB60D7
:10096000094B5B68FB60FB6823F4E063FB60FA689B
:100970007B681343FB60044AFB68536000BF143775
:10098000BD4680BC704700BF0010024080B485B0F7
:1009900000AF78600023FB60094B5B68FB60FB687D
:1009A00023F46053FB607B68DB00FA681343FB6051
:1009B000034AFB68536000BF1437BD4680BC7047D4
:1009C0000010024080B483B000AF78600B46FB702B
:1009D000FB78002B06D00949084B9A697B681343C2
:1009E0008B6106E00549054B9A697B68DB43134040
:1009F0008B6100BF0C37BD4680BC704700100240C1
:100A000080B483B000AF78600B46FB70FB78002B9E
:100A100006D00949084BDA697B681343CB6106E0CD
:100A20000549054BDA697B68DB431340CB6100BFA6
:100A30000C37BD4680BC70470010024080B487B0C0
:100A400000AF0346FB710023FB6000237B610023A2
:100A5000FB74FB795B09DBB2FB60FB68012B03D104
:100A6000124B1B687B6109E0FB68022B03D10F4B23
:100A70001B6A7B6102E00D4B5B6A7B61FB7903F0D3
:100A80001F03FB607A69FB6822FA03F303F001039A
:100A9000002B02D00123FB7401E00023FB74FB7CDC
:100AA00018461C37BD4680BC704700BF001002408E
:100AB00080B487B000AF786000237B6100233B6186
:100AC0000F23FB607B68DB78002B3AD0274BDB6879
:100AD000DB4303F4E0631B0A7B617B69C3F104031E
:100AE0003B61FA687B6922FA03F3FB607B685B7801
:100AF0001A463B6902FA03F37B617B689B781A46CE
:100B0000FB6813407A6913437B617B691B017B613E
:100B1000174A7B681B787969C9B213440A4683F87F
:100B20000023134A7B681B785B09DBB218467B689D
:100B30001B7803F01F03012101FA03F342F8203070
:100B40000FE00B497B681B785B09DBB218467B68BA
:100B50001B7803F01F0301229A4000F1200341F8A3
:100B6000232000BF1C37BD4680BC704700ED00E06D
:040B700000E100E0C0
:0400000508000000EF
:00000001FF
