:020000040800F2
:1000000018040020DD0400083D0500083D05000837
:100010003D0500083D0500083D0500080000000002
:100020000000000000000000000000003D05000886
:100030003D050008000000003D0500083D050008E2
:100040003D0500083D0500083D0500083D05000888
:100050003D0500083D050008090900083D050008A8
:100060003D0500083D0500083D0500083D05000868
:100070003D0500083D0500083D0500083D05000858
:100080003D0500083D0500083D0500083D05000848
:100090003D0500083D0500083D0500083D05000838
:1000A0003D0500083D0500083D0500083D05000828
:1000B0003D0500083D050008A50A00083D050008AB
:1000C0003D0500083D0500083D0500083D05000808
:1000D0003D0500083D0500083D0500083D050008F8
:1000E0003D0500083D0500083D0500080000000032
:1000F0000000000000000000000000000000000000
:1001000000000000000000005FF808F180B485B036
:1001100000AF786039600023FB817B681B88FB811E
:100120007B682E4A934213D07B682D4A93420FD0AE
:100130007B68B3F1804F0BD07B682A4A934207D08B
:100140007B68294A934203D07B68284A934208D1AE
:10015000FB8923F07003FB813B685A88FB891343BA
:10016000FB817B68224A93420CD07B68214A9342F0
:1001700008D0FB8923F44073FB813B68DA88FB8954
:100180001343FB817B68FA891A803B689A887B68F5
:100190009A853B681A887B681A857B680F4A934268
:1001A0000FD07B680E4A93420BD07B68124A934271
:1001B00007D07B68114A934203D07B68104A934270
:1001C00004D13B681B7A9AB27B681A867B6801224D
:1001D0009A8200BF1437BD4680BC7047002C014096
:1001E000003401400004004000080040000C0040C2
:1001F0000010004000140040004001400044014055
:100200000048014080B483B000AF78607B684FF64F
:10021000FF729A807B6800221A807B680022DA8055
:100220007B6800225A807B6800221A7200BF0C375C
:10023000BD4680BC704700BF80B483B000AF78601B
:100240000B46FB70FB78002B08D07B681B889BB2A9
:1002500043F001039AB27B681A8007E07B681B8831
:100260009BB223F001039AB27B681A8000BF0C375F
:10027000BD4680BC704700BF80B483B000AF7860DB
:100280000B467B8013467B707B78002B08D07B6805
:100290009B899AB27B8813439AB27B689A8109E062
:1002A0007B689B899AB27B88DB439BB213409AB2EE
:1002B0007B689A8100BF0C37BD4680BC704700BF89
:1002C00080B483B000AF78600B467B807B687A880F
:1002D0009A8400BF0C37BD4680BC704780B483B0A1
:1002E00000AF78607B689B8C9BB218460C37BD468C
:1002F00080BC704780B485B000AF78600B467B80CF
:100300000023FB730023BB8100237B817B681B8A56
:100310009AB27B881340BB817B689B899AB27B88A9
:1003200013407B81BB89002B05D07B89002B02D039
:100330000123FB7301E00023FB73FB7B184614379A
:10034000BD4680BC704700BF80B483B000AF78600A
:100350000B467B807B88DB439AB27B681A8200BFA6
:100360000C37BD4680BC704780B500AF154A154BB1
:100370001B6843F0010313601249124B5A68124B79
:1003800013404B600F4A0F4B1B6823F0847323F418
:10039000803313600B4A0B4B1B6823F480231360DC
:1003A000084A084B5B6823F4FE035360054B4FF487
:1003B0001F029A6000F00CF8044B4FF000629A6044
:1003C00000BF80BD001002400000FFF800ED00E01B
:1003D00080B500AF00F002F800BF80BD80B483B0EC
:1003E00000AF00237B6000233B603A4A394B1B6817
:1003F00043F480331360374B1B6803F400333B60D6
:100400007B6801337B603B68002B03D17B68B3F5CD
:10041000A06FF0D12F4B1B6803F40033002B02D0E8
:1004200001233B6001E000233B603B68012B4BD183
:10043000294A294B1B6843F010031360264A264BB8
:100440001B6823F003031360234A234B1B6843F00C
:10045000020313601F4A1F4B5B6853601D4A1D4B0C
:100460005B6853601B4A1B4B5B6843F480635360BB
:10047000184A184B5B6823F47C135360154A154BDC
:100480005B6843F4E8135360124A124B1B6843F055
:100490008073136000BF0F4B1B6803F00073002BC9
:1004A000F9D00C4A0B4B5B6823F003035360094AF5
:1004B000084B5B6843F00203536000BF054B5B6869
:1004C00003F00C03082BF9D100BF0C37BD4680BCEC
:1004D000704700BF001002400020024080B582B08B
:1004E00000AF114B7B60114B3B6007E03B681A1D6E
:1004F0003A607A68111D796012681A603B680C4A8C
:100500009342F3D30B480C494FF000028842B8BF26
:1005100040F8042BFADBFFF727FF00F0DBFA00BFFF
:100520000837BD4680BD00BF551A000800000020F6
:1005300014000020140000201800002080B400AF38
:10054000FEE700BF80B489B000AF78603960002357
:10055000FB6100233B610023BB610023FB600023A0
:100560007B610023BB603B68DB7803F00F03FB611A
:100570003B68DB7803F01003002B05D03B689B78C9
:100580001A46FB691343FB613B681B88DBB2002BF7
:1005900044D07B681B687B610023BB6138E001228B
:1005A000BB6902FA03F3FB603B681B881A46FB68D1
:1005B00013403B613A69FB689A4226D1BB699B00B4
:1005C000FB600F22FB6802FA03F3BB60BB68DB43EE
:1005D0007A6913407B61FA69FB6802FA03F37A696E
:1005E00013437B613B68DB78282B05D10122BB6973
:1005F0009A407B685A6108E03B68DB78482B04D15D
:100600000122BB699A407B681A61BB690133BB61F7
:10061000BB69072BC3D97B687A691A603B681B8862
:10062000FF2B46D97B685B687B610023BB613AE0A6
:10063000BB690833012202FA03F3FB603B681B88A5
:100640001A46FB6813403B613A69FB689A4227D11E
:10065000BB699B00FB600F22FB6802FA03F3BB60DF
:10066000BB68DB437A6913407B61FA69FB6802FA75
:1006700003F37A6913437B613B68DB78282B05D150
:10068000BB69083301229A407B685A613B68DB787A
:10069000482B05D1BB69083301229A407B681A6157
:1006A000BB690133BB61BB69072BC1D97B687A6920
:1006B0005A6000BF2437BD4680BC704780B483B009
:1006C00000AF78607B684FF6FF721A807B68022269
:1006D0009A707B680422DA7000BF0C37BD4680BC7C
:1006E000704700BF80B485B000AF78600B467B8058
:1006F0000023FB737B689A687B881340002B02D031
:100700000123FB7301E00023FB73FB7B18461437C6
:10071000BD4680BC704700BF80B483B000AF786036
:100720000B467B807A887B681A6100BF0C37BD4618
:1007300080BC704780B483B000AF78600B467B808C
:100740007A887B685A6100BF0C37BD4680BC704711
:1007500090B484B000AF03460A46FB711346BB71E8
:100760000023FB60BB7903F003039B000F2202FA16
:1007700003F3FB601649BB799B08DBB21846144AA9
:10078000BB799B08DBB2023352F82320FB68DB43C2
:100790001A40831C41F823200D48BB799B08DBB22B
:1007A0001C460B4ABB799B08DBB2023352F823206C
:1007B000F979BB7903F003039B0001FA03F31A43B1
:1007C000A31C40F8232000BF1037BD4690BC7047E3
:1007D0000000014080B582B000AF00F087FC4FF40C
:1007E000803000F0B1FC00F0DDFC0346FB71FB79CA
:1007F000012B23D1002000F055FD002000F08AFDE0
:100800004FF4806000F06AFD4FF4E0114FF4803047
:1008100000F0F0FC012000F00BFD00BF392000F0DB
:1008200081FE0346002BF9D0022000F011FD00BF2D
:1008300000F02AFD0346082BFAD100E0FEE7083756
:10084000BD4680BD80B588B000AF07F11C031846D7
:10085000FFF734FF0121022000F046FE07F11003EC
:100860001846FFF7CFFC00237B8248233B8207F129
:10087000100319462248FFF749FC01212048FFF7E1
:10088000DBFC0121082000F011FE1023FB774FF460
:100890000043BB8307F11C0319461A48FFF752FEB9
:1008A0000121012000F002FE0123BB814823FB73DC
:1008B0000223BB7307F10C0319461248FFF742FEEF
:1008C00006233B7000237B700023BB700123FB7069
:1008D0003B46184601F00CF800210120FFF738FFD5
:1008E00001237B600123BB7200233B7210237B72C8
:1008F0003B1D184600F050FE00BF2037BD4680BDAE
:1009000000040040000C014080B500AF012000F061
:10091000B5FE0346002B1BD001210E48FFF7E2FE77
:100920000346002B03D000210B48FFF7C9FC01212F
:100930000848FFF7D7FE0346002B06D10648FFF70D
:10094000CDFC03461A46054B1A80012000F0BAFE82
:1009500000BF80BD000C01400004004016000020D4
:1009600080B582B000AF4FF400410B48FFF7D4FED2
:1009700000237B6002E07B6801337B607B68B3F51A
:10098000E44FF8DB4FF400410348FFF7D3FE00BF0C
:100990000837BD4680BD00BF000C014080B483B065
:1009A00000AF0F4B1B889BB21A46B12303FB02F327
:1009B0000C4AA2FB03239B097B607B68B3F57A6F2B
:1009C00002D94FF47A637B607B68132B01D8142320
:1009D0007B607B6818460C37BD4680BC704700BF03
:1009E00016000020D34D621080B586B000AF012103
:1009F00044F2040000F05AFD4FF40073BB82182348
:100A0000FB750323BB7507F1140319461348FFF761
:100A100099FD4FF48063BB820423FB7507F1140337
:100A200019460E48FFF78EFD4FF4E1337B6000233B
:100A30003B8100237B810023BB8100233B820C236D
:100A4000FB813B1D1946064800F04AFE012104487F
:100A500000F000FF00BF1837BD4680BD0008014010
:100A60000038014080B582B000AF786010E07B684C
:100A70005A1C7A601B789BB21946094800F00AFF9D
:100A800000BF4021064800F017FF0346002BF8D0B6
:100A90007B681B78002BEAD100BF0837BD4680BDBC
:100AA0000038014080B500AF01210848FFF722FC63
:100AB0000346002B08D0FFF753FF054B01221A70A5
:100AC00001210248FFF740FC00BF80BD0008004044
:100AD0001400002080B598B000AF07F11003502239
:100AE0000021184600F066FFFFF774FE0121042084
:100AF00000F0FAFC3B1D1846FFF784FB0023FB8047
:100B00004FF4E153BB8041F288333B813B1D1946D2
:100B10001948FFF7FBFA012201211748FFF7ACFB48
:100B200001211548FFF788FB1E233B7000237B70D3
:100B30000023BB700123FB703B46184600F0D8FE33
:100B4000FFF752FFFFF77EFE0C4B1B78DBB2012B49
:100B5000FAD1FFF723FF024607F1100308491846B0
:100B600000F0AEFA07F110031846FFF77BFF034BC6
:100B700000221A70E8E700BF0008004014000020BF
:100B8000501A000880B483B000AF78600B46FB7049
:100B90007B68FA781A70012318460C37BD4680BC72
:100BA000704700BF80B485B000AF78603960002323
:100BB000FB600AE07B685A1C7A603A68511C396015
:100BC00012781A70FB680133FB603B681B78002BBE
:100BD000F0D1FB6818461437BD4680BC704700BF93
:100BE00080B586B000AFF8607A603B600B46FB7260
:100BF00000237B617B68013B7B603B68092B1DD92F
:100C00003B681D4AA2FB0323DB08F97A7A68F8687F
:100C1000FFF7E6FF78617B69FA681344FB6010E038
:100C2000FB7A1946F868FFF7ADFFFB680133FB60FC
:100C30007B6901337B617B68013B7B607B68002BB8
:100C4000EEDC39680C4BA3FB0123DA0813469B004A
:100C500013445B00CA1AD3B23033DBB21946F868CA
:100C6000FFF790FF02467B6913447B617B6918465E
:100C70001837BD4680BD00BFCDCCCCCC80B586B08A
:100C800000AFF8607A603B600B46FB7200237B612B
:100C90003B68002B03DA3B685B423B6101E03B6849
:100CA0003B617B68013B7B603B69092B1FD93B683B
:100CB000002B0CDA3B692E4AA2FB0323DB085B42C4
:100CC000F97A7A68F868FFF7D9FF78610AE03B693A
:100CD000274AA2FB0323DB08F97A7A68F868FFF752
:100CE000CDFF78617B69FA681344FB6025E03B68BF
:100CF000002B11DA7B68013B7B600DE0FB7A194623
:100D0000F868FFF73FFFFB680133FB607B69013345
:100D10007B617B68013B7B607B68002BEEDC3B6882
:100D2000002B0ADA2D21F868FFF72CFF02467B69B9
:100D300013447B61FB680133FB6039690C4BA3FBF7
:100D40000123DA0813469B0013445B00CA1AD3B28E
:100D50003033DBB21946F868FFF714FF02467B69AF
:100D600013447B617B6918461837BD4680BD00BFC0
:100D7000CDCCCCCC80B588B002AFF8607A601A4692
:100D80000B46FB721346BB7200237B617B68013B01
:100D90007B603B6A1B09002B20D03B6A1B09BA7A97
:100DA000F97A009313467A68F868FFF7E3FF024682
:100DB0007B6913447B617B69FA681344FB6010E034
:100DC000FB7A1946F868FFF7DDFEFB680133FB602C
:100DD0007B6901337B617B68013B7B607B68002B17
:100DE000EEDC3B6A03F00F03092B0BD83B6ADBB246
:100DF00003F00F03DBB23033DBB21946F868FFF7BC
:100E0000C1FE19E0BB7A002B0BD03B6ADBB203F0CA
:100E10000F03DBB23733DBB21946F868FFF7B2FED7
:100E20000AE03B6ADBB203F00F03DBB25733DBB2FD
:100E30001946F868FFF7A6FE7B6901337B617B6981
:100E400018461837BD4680BD80B58AB002AFF8603D
:100E5000B9607A603B600023BB6100237B61FB6863
:100E6000002B00F0FC80FB6800221A70F7E07B6822
:100E70001B78252B0BD0FB685A1CFA607A68511C32
:100E8000796012781A707B6901337B61E7E07B68D7
:100E900001331B78252B0BD1FB685A1CFA602522E5
:100EA0001A707B6802337B607B6901337B61D6E01B
:100EB0002023FB770023BB777B6801337B607B6853
:100EC0001B78302B14D13023FB777B6801337B6098
:100ED0000EE0BB7F1A46920013445B00DAB27B68D7
:100EE0001B781344DBB2303BBB777B6801337B60FC
:100EF0007B681B782F2B03D97B681B78392BE8D9AB
:100F0000BA7F7B6913441A46BB689A4205D9BB680D
:100F1000DAB27B69DBB2D31ABB777B681B78583BAC
:100F2000202B00F28E8001A252F823F0FD0F000862
:100F30004310000843100008431000084310000845
:100F40004310000843100008431000084310000835
:100F500043100008431000082D100008B10F0008CE
:100F60004310000843100008431000084310000815
:100F7000B10F000843100008431000084310000898
:100F800043100008431000084310000843100008F5
:100F9000431000084310000819100008431000080F
:100FA000C90F00084310000843100008E10F0008B3
:100FB000B87F3B681A1D3A601B68F97F0246F868E3
:100FC000FFF75CFEB8613FE0B87F3B681A1D3A60EE
:100FD0001B68F97F0246F868FFF702FEB86133E04C
:100FE000B87F3B681A1D3A601B68F97F00930023A5
:100FF0000246F868FFF7BEFEB86125E0B87F3B689F
:101000001A1D3A601B68F97F009301230246F868B5
:10101000FFF7B0FEB86117E03B681A1D3A601B6825
:101020001946F868FFF7BEFDB8610DE03B681A1D70
:101030003A601B68DBB21946F868FFF7A3FDB86198
:1010400002E04FF0FF3325E07B6801337B60BB6932
:10105000FA681344FB607A69BB6913447B617B685F
:101060001B78002B04D07A69BB689A42FFF4FFAE6C
:101070007A69BB689A4203D2FB6800221A7008E0C2
:10108000FB68013BFB60FB6800221A707B69013B37
:101090007B617B6918462037BD4680BD80B584B032
:1010A00000AFF860B9607A607B68BA686421F8685C
:1010B000FFF7CAFE034618461037BD4680BD00BF85
:1010C0000EB480B585B000AF786007F12003BB6037
:1010D000BA68F9697868FFF7E1FFF860FB681846BD
:1010E0001437BD46BDE8804003B0704780B400AF00
:1010F000134A134B1B6843F0010313601049104B54
:101100005A68104B13404B600D4A0D4B1B6823F07F
:10111000847323F480331360094A094B1B6823F45A
:1011200080231360064A064B5B6823F4FE0353607A
:10113000034B4FF41F029A6000BFBD4680BC70474E
:10114000001002400000FFF880B483B000AF786068
:10115000134A134B1B6823F480331360104A104B5F
:101160001B6823F4802313607B68B3F5803F03D0B2
:10117000B3F5802F07D00DE0094A094B1B6843F4F3
:101180008033136006E0064A054B1B6843F4A02336
:10119000136000BF00BF0C37BD4680BC704700BF66
:1011A0000010024080B582B000AF00233B600023F6
:1011B000FB710023BB71312000F0B4F90346BB7111
:1011C0003B6801333B603B68B3F5A06F02D0BB794D
:1011D000002BF0D0312000F0A5F90346002B02D0FF
:1011E0000123FB7101E00023FB71FB7918460837EE
:1011F000BD4680BD80B485B000AF78603960002303
:10120000FB600A4B5B68FB60FB6823F47C13FB60AC
:101210007A683B681343FA681343FB60034AFB6830
:10122000536000BF1437BD4680BC704700100240B9
:1012300080B483B000AF0346FB71044AFB791360AE
:1012400000BF0C37BD4680BC704700BF6000424203
:1012500080B485B000AF78600023FB60094B5B6809
:10126000FB60FB6823F00303FB60FA687B681343B1
:10127000FB60044AFB68536000BF1437BD4680BC66
:10128000704700BF0010024080B400AF044B5B68A1
:10129000DBB203F00C03DBB21846BD4680BC7047DE
:1012A0000010024080B485B000AF78600023FB607E
:1012B000094B5B68FB60FB6823F0F003FB60FA6896
:1012C0007B681343FB60044AFB68536000BF14371C
:1012D000BD4680BC704700BF0010024080B485B09E
:1012E00000AF78600023FB60094B5B68FB60FB6824
:1012F00023F4E063FB60FA687B681343FB60044AF5
:10130000FB68536000BF1437BD4680BC704700BF08
:101310000010024080B485B000AF78600023FB600D
:10132000094B5B68FB60FB6823F46053FB607B68E0
:10133000DB00FA681343FB60034AFB68536000BF9D
:101340001437BD4680BC70470010024080B487B09F
:1013500000AF786000237B6100233B610023FB60CA
:101360000023BB604C4B5B6803F00C037B617B6923
:10137000042B07D0082B09D0002B33D17B68474AB8
:101380001A6033E07B68454A1A602FE0424B5B6885
:1013900003F470133B61404B5B6803F48033FB60E4
:1013A0003B699B0C02333B61FB68002B06D13B6918
:1013B0003B4A02FB03F27B681A6017E0364B5B681E
:1013C00003F40033002B06D03B69354A02FB03F2DD
:1013D0007B681A600AE03B69304A02FB03F27B68D3
:1013E0001A6003E07B682D4A1A6000BF2A4B5B68D5
:1013F00003F0F0037B617B691B097B61294A7B69F0
:1014000013441B78DBB2BB607B681A68BB68DA40A8
:101410007B685A60204B5B6803F4E0637B617B6907
:101420001B0A7B611F4A7B6913441B78DBB2BB60DC
:101430007B685A68BB68DA407B689A60164B5B68C9
:1014400003F460537B617B69DB0A7B61154A7B692E
:1014500013441B78DBB2BB607B685A68BB68DA4018
:101460007B68DA600C4B5B6803F440437B617B690B
:101470009B0B7B610C4A7B6913441B78DBB2BB601E
:101480007B68DA68BB68B2FBF3F27B681A6100BF65
:101490001C37BD4680BC70470010024000127A0025
:1014A00000093D00000000201000002080B483B03F
:1014B00000AF78600B46FB70FB78002B06D0094923
:1014C000084B9A697B6813438B6106E00549054B1D
:1014D0009A697B68DB4313408B6100BF0C37BD46C4
:1014E00080BC70470010024080B483B000AF7860C9
:1014F0000B46FB70FB78002B06D00949084BDA69D4
:101500007B681343CB6106E00549054BDA697B68CC
:10151000DB431340CB6100BF0C37BD4680BC704736
:101520000010024080B487B000AF0346FB71002377
:10153000FB6000237B610023FB74FB795B09DBB25A
:10154000FB60FB68012B03D1124B1B687B6109E038
:10155000FB68022B03D10F4B1B6A7B6102E00D4B32
:101560005B6A7B61FB7903F01F03FB607A69FB68B0
:1015700022FA03F303F00103002B02D00123FB74D2
:1015800001E00023FB74FB7C18461C37BD4680BC81
:10159000704700BF0010024080B485B000AF786093
:1015A0000023FB60344BFB607B689B79002B4FD0A2
:1015B0003149314B1A687B681B68DB4313400B6071
:1015C0002D492D4B5A687B681B68DB4313404B60E9
:1015D0007B681B791A46FB681344FB60FB68FA685A
:1015E00011687A6812680A431A602349224B9A6884
:1015F0007B681B68DB4313408B601F491E4BDA6816
:101600007B681B68DB431340CB607B685B79102BE6
:101610000ED11949184B9A687B681B6813438B607D
:101620001549154BDA687B681B681343CB601DE0D6
:10163000114BFB607B685B791A46FB681344FB60C7
:10164000FB68FA6811687A6812680A431A600DE04C
:101650007B681B791A46FB681344FB60FB68FA68D9
:1016600011687A681268D2430A401A6000BF1437C2
:10167000BD4680BC704700BF0004014080B485B007
:1016800000AF78600023FB730023BB600C4B1A682B
:101690007B681340BB600A4B5A697B681340002B80
:1016A00005D0BB68002B02D00123FB7301E00023AF
:1016B000FB73FB7B18461437BD4680BC704700BFE8
:1016C0000004014080B483B000AF7860034A7B68B7
:1016D000536100BF0C37BD4680BC70470004014019
:1016E00080B58CB000AF786039600023FB620023C6
:1016F000BB6200237B6200233B620023FB617B68AB
:10170000FB617B681B8A9BB2FB62FA6A4CF6FF7333
:101710001340FB623B68DB881A46FB6A1343FB629B
:10172000FB6A9AB27B681A827B689B899BB2FB62D8
:10173000FA6A4EF6F3131340FB623B689A883B68E3
:101740001B8913439AB23B685B8913439BB21A46C9
:10175000FB6A1343FB62FB6A9AB27B689A817B68DF
:101760009B8A9BB2FB62FA6A4FF6FF431340FB620F
:101770003B689B891A46FB6A1343FB62FB6A9AB279
:101780007B689A8207F108031846FFF7DFFDFB69C3
:101790002E4A934202D17B69BB6201E03B69BB6286
:1017A0007B689B899BB21BB2002B0CDABA6A13468A
:1017B0009B0013449A001A443B681B685B00B2FB11
:1017C000F3F37B620BE0BA6A13469B0013449A0062
:1017D0001A443B681B689B00B2FBF3F37B627B6A95
:1017E0001B4AA2FB03235B091B01FB62FB6A1B096B
:1017F000642202FB03F37A6AD31A3B627B689B89FB
:101800009BB21BB2002B0CDA3B6ADB003233104A6E
:10181000A2FB03235B0903F00703FA6A1343FB628D
:101820000BE03B6A1B013233094AA2FB03235B092D
:1018300003F00F03FA6A1343FB62FB6A9AB27B68F8
:101840001A8100BF3037BD4680BD00BF003801405F
:101850001F85EB5180B483B000AF78600B46FB70FE
:10186000FB78002B08D07B689B899BB243F4005324
:101870009AB27B689A8107E07B689B899BB223F4CC
:1018800000539AB27B689A8100BF0C37BD4680BC7A
:10189000704700BF80B483B000AF78600B467B8098
:1018A0007B88C3F308039AB27B689A8000BF0C3729
:1018B000BD4680BC704700BF80B485B000AF786083
:1018C0000B467B800023FB737B681B889AB27B8866
:1018D00013409BB2002B02D00123FB7301E00023D5
:1018E000FB73FB7B18461437BD4680BC704700BFB6
:1018F00080B487B000AF786000237B6100233B6138
:101900000F23FB607B68DB78002B3AD0274BDB682A
:10191000DB4303F4E0631B0A7B617B69C3F10403CF
:101920003B61FA687B6922FA03F3FB607B685B78B2
:101930001A463B6902FA03F37B617B689B781A467F
:10194000FB6813407A6913437B617B691B017B61F0
:10195000174A7B681B787969C9B213440A4683F831
:101960000023134A7B681B785B09DBB218467B684F
:101970001B7803F01F03012101FA03F342F8203022
:101980000FE00B497B681B785B09DBB218467B686C
:101990001B7803F01F0301229A4000F1200341F855
:1019A000232000BF1C37BD4680BC704700ED00E01F
:1019B00000E100E070B4840746D0541E002A41D0F4
:1019C000CDB2034602E0621EE4B3144603F8015BA5
:1019D0009A07F8D1032C2ED9CDB245EA05250F2C54
:1019E00045EA054519D9264603F11002103E0F2E8F
:1019F00042F8105C42F80C5C42F8085C42F8045C67
:101A000002F11002F2D8A4F1100222F00F0204F049
:101A10000F041032032C13440DD91E462246043AFB
:101A2000032A46F8045BFAD8221F22F0030204328C
:101A3000134404F003042CB1C9B21C4403F8011B85
:101A4000A342FBD170BC704714460346C2E700BFF7
:051A500025640D0A00F1
:101A5500000000000102030401020304060708094F
:041A65000204060869
:0400000508000000EF
:00000001FF
