:020000040800F2
:100000000004002081020008E1020008E10200086B
:10001000E1020008E1020008E1020008000000001F
:10002000000000000000000000000000E1020008E5
:10003000E102000800000000E1020008E1020008FF
:10004000E1020008E1020008E1020008E102000804
:10005000E1020008E1020008E1020008E1020008F4
:10006000E1020008E1020008E1020008E1020008E4
:10007000E1020008E1020008E1020008E1020008D4
:10008000E1020008E1020008E1020008E1020008C4
:10009000E1020008E1020008E1020008E1020008B4
:1000A000E1020008E1020008E1020008E1020008A4
:1000B000E1020008E1020008E1020008E102000894
:1000C000E1020008E1020008E1020008E102000884
:1000D000E1020008E1020008E1020008E102000874
:1000E000E1020008E1020008E1020008000000004F
:1000F0000000000000000000000000000000000000
:1001000000000000000000005FF808F180B500AFBB
:10011000154A154B1B6843F0010313601249124B3B
:100120005A68124B13404B600F4A0F4B1B6823F069
:10013000847323F4803313600B4A0B4B1B6823F446
:1001400080231360084A084B5B6823F4FE03536066
:10015000054B4FF41F029A6000F00CF8044B4FF06F
:1001600000629A6000BF80BD001002400000FFF8EE
:1001700000ED00E080B500AF00F002F800BF80BDE8
:1001800080B483B000AF00237B6000233B603A4A19
:10019000394B1B6843F480331360374B1B6803F4FF
:1001A00000333B607B6801337B603B68002B03D1ED
:1001B0007B68B3F5A06FF0D12F4B1B6803F40033BD
:1001C000002B02D001233B6001E000233B603B6831
:1001D000012B4BD1294A294B1B6843F010031360B4
:1001E000264A264B1B6823F003031360234A234B44
:1001F0001B6843F0020313601F4A1F4B5B68536088
:100200001D4A1D4B5B6853601B4A1B4B5B6843F4E4
:1002100080635360184A184B5B6823F47C13536067
:10022000154A154B5B6843F4E8135360124A124BAE
:100230001B6843F08073136000BF0F4B1B6803F013
:100240000073002BF9D00C4A0B4B5B6823F00303BF
:100250005360094A084B5B6843F00203536000BFD8
:10026000054B5B6803F00C03082BF9D100BF0C377A
:10027000BD4680BC704700BF001002400020024015
:1002800080B582B000AF114B7B60114B3B6007E043
:100290003B681A1D3A607A68111D796012681A600D
:1002A0003B680C4A9342F3D30B480C494FF00002D1
:1002B0008842B8BF40F8042BFADBFFF727FF00F0B5
:1002C00079F900BF0837BD4680BD00BF000A0008AD
:1002D000000000200000002000000020000000209E
:1002E00080B400AFFEE700BF80B485B000AF786097
:1002F0000B46FB700023FB60124B1B68FB60FB6826
:1003000023F00303FB60FA687B681343FB600D4A2C
:10031000FB6813600C4A0C4B1B6943F00403136128
:10032000FB78012B01D130BF00E020BF064A064B0D
:100330001B6923F00403136100BF1437BD4680BC62
:10034000704700BF0070004000ED00E080B489B04D
:1003500000AF786039600023FB6100233B6100231C
:10036000BB610023FB6000237B610023BB603B6813
:10037000DB7803F00F03FB613B68DB7803F01003CD
:10038000002B05D03B689B781A46FB691343FB6141
:100390003B681B88DBB2002B44D07B681B687B6109
:1003A0000023BB6138E00122BB6902FA03F3FB6062
:1003B0003B681B881A46FB6813403B613A69FB683F
:1003C0009A4226D1BB699B00FB600F22FB6802FAB0
:1003D00003F3BB60BB68DB437A6913407B61FA6956
:1003E000FB6802FA03F37A6913437B613B68DB78AD
:1003F000282B05D10122BB699A407B685A6108E02D
:100400003B68DB78482B04D10122BB699A407B68AA
:100410001A61BB690133BB61BB69072BC3D97B6818
:100420007A691A603B681B88FF2B46D97B685B683A
:100430007B610023BB613AE0BB690833012202FA09
:1004400003F3FB603B681B881A46FB6813403B6163
:100450003A69FB689A4227D1BB699B00FB600F2277
:10046000FB6802FA03F3BB60BB68DB437A691340A5
:100470007B61FA69FB6802FA03F37A6913437B61D3
:100480003B68DB78282B05D1BB69083301229A40F1
:100490007B685A613B68DB78482B05D1BB69083320
:1004A00001229A407B681A61BB690133BB61BB6959
:1004B000072BC1D97B687A695A6000BF2437BD46D3
:1004C00080BC704780B483B000AF78600B467B80FF
:1004D0007A887B685A6100BF0C37BD4680BC704784
:1004E00090B484B000AF03460A46FB711346BB715B
:1004F0000023FB60BB7903F003039B000F2202FA89
:1005000003F3FB601649BB799B08DBB21846144A1B
:10051000BB799B08DBB2023352F82320FB68DB4334
:100520001A40831C41F823200D48BB799B08DBB29D
:100530001C460B4ABB799B08DBB2023352F82320DE
:10054000F979BB7903F003039B0001FA03F31A4323
:10055000A31C40F8232000BF1037BD4690BC704755
:100560000000014080B582B000AF00F07DF84FF48C
:10057000803000F0A7F800F0D3F80346FB71FB7958
:10058000012B12D1002000F01DF9002000F052F9DB
:10059000002000F033F9012000F0EAF800BF00F07D
:1005A00003F90346042BFAD100E0FEE70837BD4605
:1005B00080BD00BF80B586B000AFFFF7D3FF01213B
:1005C000102000F053F94FF400533B821023FB74CA
:1005D0000323BB7407F1100319462148FFF7B6FE49
:1005E0004FF400511E48FFF76DFF0121012000F07C
:1005F0003DF90121082000F039F90123BB8148238E
:10060000FB730223BB7307F10C0319461548FFF770
:100610009DFE00210120FFF763FF01237B60012382
:10062000BB7204233B720C237B723B1D184600F007
:1006300075F902210120FFF757FE094A084BDB68D4
:1006400083F40053D36000237B6102E07B690133B4
:100650007B617B69B3F5801FF8DBFFF783FFE8E779
:1006600000100140000C014080B400AF134A134B4E
:100670001B6843F0010313601049104B5A68104B7C
:1006800013404B600D4A0D4B1B6823F0847323F419
:1006900080331360094A094B1B6823F480231360DD
:1006A000064A064B5B6823F4FE035360034B4FF48A
:1006B0001F029A6000BFBD4680BC70470010024018
:1006C0000000FFF880B483B000AF7860134A134B8A
:1006D0001B6823F480331360104A104B1B6823F40B
:1006E000802313607B68B3F5803F03D0B3F5802F80
:1006F00007D00DE0094A094B1B6843F480331360AF
:1007000006E0064A054B1B6843F4A023136000BFB4
:1007100000BF0C37BD4680BC704700BF00100240D0
:1007200080B582B000AF00233B600023FB71002343
:10073000BB71312000F0B8F80346BB713B68013350
:100740003B603B68B3F5A06F02D0BB79002BF0D0C3
:10075000312000F0A9F80346002B02D00123FB71E1
:1007600001E00023FB71FB7918460837BD4680BDC8
:1007700080B485B000AF78600023FB60094B5B68F4
:10078000FB60FB6823F00303FB60FA687B6813439C
:10079000FB60044AFB68536000BF1437BD4680BC51
:1007A000704700BF0010024080B400AF044B5B688C
:1007B000DBB203F00C03DBB21846BD4680BC7047C9
:1007C0000010024080B485B000AF78600023FB6069
:1007D000094B5B68FB60FB6823F0F003FB60FA6881
:1007E0007B681343FB60044AFB68536000BF143707
:1007F000BD4680BC704700BF0010024080B485B089
:1008000000AF78600023FB60094B5B68FB60FB680E
:1008100023F4E063FB60FA687B681343FB60044ADF
:10082000FB68536000BF1437BD4680BC704700BFF3
:100830000010024080B485B000AF78600023FB60F8
:10084000094B5B68FB60FB6823F46053FB607B68CB
:10085000DB00FA681343FB60034AFB68536000BF88
:100860001437BD4680BC70470010024080B483B08E
:1008700000AF78600B46FB70FB78002B06D009496F
:10088000084B9A697B6813438B6106E00549054B69
:100890009A697B68DB4313408B6100BF0C37BD4610
:1008A00080BC70470010024080B487B000AF0346A0
:1008B000FB710023FB6000237B610023FB74FB7949
:1008C0005B09DBB2FB60FB68012B03D1124B1B6899
:1008D0007B6109E0FB68022B03D10F4B1B6A7B6134
:1008E00002E00D4B5B6A7B61FB7903F01F03FB6049
:1008F0007A69FB6822FA03F303F00103002B02D0AC
:100900000123FB7401E00023FB74FB7C18461C37B9
:10091000BD4680BC704700BF0010024080B485B067
:1009200000AF78600023FB60344BFB607B689B79F1
:10093000002B4FD03149314B1A687B681B68DB4371
:1009400013400B602D492D4B5A687B681B68DB43B5
:1009500013404B607B681B791A46FB681344FB60AD
:10096000FB68FA6811687A6812680A431A602349BA
:10097000224B9A687B681B68DB4313408B601F49DE
:100980001E4BDA687B681B68DB431340CB607B68D7
:100990005B79102B0ED11949184B9A687B681B683C
:1009A00013438B601549154BDA687B681B6813434A
:1009B000CB601DE0114BFB607B685B791A46FB68DE
:1009C0001344FB60FB68FA6811687A6812680A438E
:1009D0001A600DE07B681B791A46FB681344FB60C4
:1009E000FB68FA6811687A681268D2430A401A6094
:1009F00000BF1437BD4680BC704700BF00040140F3
:0400000508000000EF
:00000001FF
