:020000040800F2
:1000000020040020910500088D0500088D050008DA
:100010008D0500088D0500088D0500080000000012
:100020000000000000000000000000008D05000836
:100030008D050008000000008D0500088D050008F2
:100040008D0500088D0500088D0500088D05000848
:100050008D0500088D0500088D0500088D05000838
:100060008D0500088D0500088D0500088D05000828
:100070008D0500088D0500088D0500088D05000818
:100080008D0500088D0500088D0500088D05000808
:100090008D0500088D0500088D05000899120008DF
:1000A0008D0500088D0500088D0500088D050008E8
:1000B0008D05000859130008111100088D0500086E
:1000C0008D0500088D0500088D0500088D050008C8
:1000D0008D0500088D0500088D0500088D050008B8
:1000E0008D0500088D0500088D0500080000000042
:1000F0000000000000000000000000000000000000
:1001000000000000000000005FF808F103889BB2C7
:10011000244A904212D002F5006290420ED0B0F113
:10012000804F0BD0A2F59832904207D002F5806242
:10013000904203D002F58062904203D123F0700315
:100140004A881343184A904225D002F580629042B3
:1001500021D023F440739BB2CA88134303808B8859
:1001600083850B8803850F4B98420FD003F50063FE
:1001700098420BD003F54063984207D003F58063A3
:10018000984203D003F58063984201D10B7A03862D
:1001900001238382704703808B8883850B880385C6
:1001A000F6E700BF002C01400010004070B4038C43
:1001B00023F001031B041B0C0384028C8588ADB261
:1001C000038B23F073031B041B0C0E881E4322F0C9
:1001D00002021204120C0B894C8823431A4393B277
:1001E000144A90420FD002F5006290420BD002F503
:1001F0004062904207D002F58062904203D002F53F
:10020000806290420ED123F008034A89134323F001
:1002100004038A88134325F440758C89CA892243D4
:100220001543ADB285800683CA888286038470BC7C
:10023000704700BF002C014030B4038C23F0100342
:100240001B041B0C0384038C8588ADB2028B22F443
:10025000E6421204120C0C8842EA042294B223F003
:1002600020031B041B0C0A8943EA02134A8843EA51
:1002700002139BB2114A904203D002F500629042F1
:1002800015D123F080039BB24A8943EA02124FF64C
:10029000BF7313408A8843EA02139BB225F440657A
:1002A0008A8945EA8205CA8945EA8205ADB2858018
:1002B0000483CA880287038430BC7047002C014045
:1002C00030B4038C23F480731B041B0C0384038C55
:1002D0008488A4B2828B22F073021204120C0D885F
:1002E000154323F400731B041B0C0A8943EA022301
:1002F0004A8843EA02239BB2114A904203D002F596
:100300000062904215D123F400639BB24A8943EA0C
:1003100002224FF6FF3313408A8843EA02239BB23E
:1003200024F440548A8944EA0214CA8944EA021433
:10033000A4B284808583CA888287038430BC7047D6
:10034000002C01400A884B8813438A881343CA88CB
:1003500013430A8913434A8913438A8913439BB27F
:10036000A0F84430704700BF4FF6FF73838000232E
:100370000380C38043800372704700BF29B10388A4
:100380009BB243F0010303807047038823F001030D
:100390001B041B0C0380704749B1B0F844306FEA6E
:1003A00043436FEA53439BB2A0F844307047B0F820
:1003B0004430C3F30E03A0F84430704722B1838960
:1003C0009BB219438181704783899BB223EA010163
:1003D0008181704730B4048CA5B201248C4025EA99
:1003E00004040484038C8A4013439BB2038430BC0E
:1003F000704700BF30B4048CA5B204248C4025EAB9
:1004000004040484038C8A4013439BB2038430BCED
:10041000704700BF30B400F11805038C9CB2012373
:100420008B4024EA0303038421F008039BB243B901
:1004300049084B5923F070034B514B591A434A5109
:100440000BE00439C1F34E014B5923F4E0434B5107
:100450004B59120292B21A434A5130BC704700BF46
:1004600081847047808C80B2704700BF028A838984
:100470009BB2114204D0194214BF012000207047E2
:1004800000207047C94389B20182704782B03B4B5C
:100490001A6842F001021A605968394A0A405A60E3
:1004A0001A6822F0847222F480321A601A6822F4E8
:1004B00080221A605A6822F4FE025A604FF41F022A
:1004C0009A600022009201921A6842F480321A6007
:1004D0001A46136803F400330193009B0133009321
:1004E000019B1BB9009BB3F5A06FF2D1234B1B6896
:1004F00013F4003F14BF012300230193019B012B40
:1005000036D1204B1A6842F010021A601A6822F0A5
:1005100003021A601A6842F002021A60A3F58053BF
:100520005A685A605A685A605A6842F480625A603F
:100530005A6822F47C125A605A6842F4E8125A60EF
:100540001A6842F080721A601A46136813F0007F2E
:10055000FBD00A4B5A6822F003025A605A6842F0F4
:1005600002025A601A46536803F00C03082BFAD1B2
:100570004FF00062044B9A6002B0704700100240D6
:100580000000FFF80020024000ED00E0FEE700BFA1
:1005900008B50F4B0F4A9A420CD2581E801A20F011
:1005A000030004300C4B184453F8041B42F8041B9E
:1005B0008342F9D109480A494FF000028842B8BF86
:1005C00040F8042BFADBFFF761FF00F023F908BDC8
:1005D0000400002000000020041700080400002090
:1005E0001C000020F0B5CB7803F00F0613F0100FBD
:1005F0001CBF8B781E430B78F3B1056800230127DD
:100600004FF00F0C07FA03F20C8832EA04040FD102
:100610009C000CFA04FE25EA0E0506FA04F42543B4
:10062000CC78282C01D1426102E0482C08BF02613D
:100630000133082BE6D105600B88FF2B20D94568D4
:10064000002301274FF00F0E03F1080207FA02F210
:100650000C8832EA04040FD19C000EFA04FC25EA4F
:100660000C0506FA04F42543CC78282C08BF426117
:10067000CC78482C08BF02610133082BE4D14560D7
:10068000F0BD00BF8368194214BF012000207047ED
:10069000806880B2704700BF0161704710B401F0FC
:1006A00003039B0001F0FC0101F1804101F5803161
:1006B0008C680F229A4024EA02028A608A68984075
:1006C0001043886010BC704710B500F0EDF84FF48F
:1006D000803000F009F900F0ADF9012820D10020A8
:1006E00000F042F9002000F053F94FF4806000F070
:1006F00045F94FF4E0114FF4803000F013F9012078
:1007000000F01AF93924204600F080F90028FAD0C8
:10071000022000F017F900F01FF90828FBD110BDE6
:10072000FEE700BF70B592B0002000F03BF9012158
:1007300040F2092000F04EF90121084600F03CF992
:1007400001240494002503950B952D4B02934FF43F
:10075000806308938023069320230993294B0193F8
:100760004FF48073079305954FF400530A93264E78
:1007700001A9304600F00EFE2146304600F02AFE68
:100780000223ADF844308DF8475011A91F48FFF7F8
:1007900029FF8DF835400F954FF460230E930C958B
:1007A0008DF840408DF83440194D0CA9284600F0D2
:1007B000B7F9072322460921284600F00DFA214601
:1007C000284600F0D1F92146284600F0D9F92846FC
:1007D00000F0E2F92C46204600F0E4F90028FAD1B6
:1007E0000B4800F0E3F90A4C204600F0E5F9002838
:1007F000FAD10121064800F0E3F912B070BD00BF44
:10080000000000204C24014008000240000C014080
:100810000024014070B582B0FFF756FFFFF782FF5A
:1008200000F04AFC0121082000F0D4F80125ADF8C1
:10083000045048238DF8073002238DF80630184CF9
:1008400001A92046FFF7CEFE29462046FFF724FFE8
:10085000144C0025124E23889BB2C82B1CD900F0E3
:1008600007FD90B901213046FFF70CFF18B128466B
:1008700000F08AFD02E0012000F086FD00F00EFB92
:1008800080B200F015FB00F079FD208880B200F006
:10089000AFFB00F0C5FBDEE7284600F0C1FBDAE75E
:1008A000000C0140000000200D4B1A6842F00102CC
:1008B0001A6059680B4A0A405A601A6822F084721A
:1008C00022F480321A601A6822F480221A605A6870
:1008D00022F4FE025A604FF41F029A60704700BF74
:1008E000001002400000FFF80D4B1A6822F480321D
:1008F0001A601A6822F480221A60B0F5803F03D093
:10090000B0F5802F06D07047054A136843F4803352
:1009100013607047024A136843F4A02313607047C2
:1009200000100240034A536823F47C131943084320
:100930005060704700100240014B1860704700BFC4
:1009400060004242034A536823F003031843506097
:10095000704700BF00100240024B586800F00C00C6
:10096000704700BF00100240034A536823F0F003B1
:1009700018435060704700BF00100240034A53689C
:1009800023F4E06318435060704700BF001002403A
:10099000034A536823F4605343EAC0005060704731
:1009A00000100240034A536823F440431843506048
:1009B000704700BF0010024021B1054B5A69104337
:1009C00058617047024A536923EA0000506170473A
:1009D0000010024021B1054B9A691043986170479D
:1009E000024A936923EA00009061704700100240B8
:1009F00021B1054BDA691043D8617047024AD369C7
:100A000023EA0000D0617047001002404309012B27
:100A100002D1074B1B6804E0022B054B0CBF1B6A7D
:100A20005B6A00F01F0023FA00F000F0010070473D
:100A30000010024010B582B00023019331242046FB
:100A4000FFF7E4FF019B01330193019BB3F5A06F16
:100A500001D00028F3D03120FFF7D8FF003018BFB5
:100A6000012002B010BD00BF8379002B34D010B438
:100A7000204B1A68016822EA01021A605A6801686C
:100A800022EA01025A60027902F1804202F58232C2
:100A900014680168214311609A68016822EA010222
:100AA0009A60DA68016822EA0102DA604379102B61
:100AB00009D1104B996802680A439A60D9680268A4
:100AC0000A43DA6013E003F1804303F582331968C7
:100AD00002680A431A600AE0037903F1804303F5D0
:100AE00082331A68016822EA01021A60704710BC5A
:100AF000704700BF00040140054B1A685B6918424B
:100B000004D0024214BF012000207047002070472B
:100B100000040140014B5861704700BF00040140D0
:100B200010B4436823F4702222F480720B681343DC
:100B30000A7943EA022343608468CA688B681A43CF
:100B4000084B234013434A7943EA42038360C36A54
:100B500023F470020B7C013BDBB242EA0353C36215
:100B600010BC7047FDF7F1FF21B1836843F001032A
:100B700083607047836823F001038360704700BF80
:100B800021B1836843F4807383607047836823F4E2
:100B900080738360704700BF836843F008038360FD
:100BA000704700BF8068C0F3C0007047836843F09F
:100BB00004038360704700BF8068C0F38000704703
:100BC00021B1836843F4A00383607047836823F4F2
:100BD000A0038360704700BF70B409290DD9C668AF
:100BE000A1F10A0404EB44040725A54026EA050503
:100BF00003FA04F42C43C4600AE0066901EB4104E3
:100C00000725A54026EA050503FA04F42C430461F0
:100C1000062A0CD8446B013A02EB82021F23934050
:100C200024EA030301FA02F21A4342631AE00C2A8F
:100C30000CD8046B073A02EB82021F23934024EA8C
:100C4000030301FA02F21A4302630BE0C46A0D3A8D
:100C500002EB82021F23934024EA030301FA02F20B
:100C60001A43C26270BC704770B584B0012109207C
:100C7000FFF7B0FE4FF46076ADF80C6048238DF8B6
:100C80000F3001248DF80E4003A91448FFF7AAFC89
:100C900017238DF8003000258DF801508DF8025093
:100CA0008DF80340684600F0A3FB07212046FFF7BC
:100CB000F5FC08212046FFF7F1FC09212046FFF74B
:100CC000EDFC01968DF80A408DF8085010238DF840
:100CD000093001A8FFF7C8FE04B070BD000C014048
:100CE00070B58CB001210C20FFF774FE4FF4604307
:100CF000ADF82C3003258DF82E5018248DF82F4098
:100D00000BA93448FFF76EFC4FF4E063ADF82C30CC
:100D10008DF82E508DF82F400BA92F48FFF762FC5D
:100D200001214FF40060FFF755FE0024ADF820408C
:100D3000ADF8224041F29413ADF82430ADF82640CE
:100D40008DF82840254D08A92846FFF7DFF9ADF8B2
:100D500010400126ADF812600423ADF81430ADF850
:100D60001640ADF81840ADF81A40ADF81C40ADF88B
:100D70001E4004A92846FFF719FA04A92846FFF7E0
:100D80005BFA04A92846FFF79BFA4FF40063ADF81D
:100D900000304FF48063ADF80230ADF804404823D2
:100DA000ADF806304FF48043ADF80C304FF480536B
:100DB000ADF80830ADF80A4069462846FFF7C2FA98
:100DC00031462846FFF7DAFA31462846FFF7E4FABB
:100DD0000CB070BD000C014000080140002C014027
:100DE00030B585B001210420FFF702FE01A8FFF70E
:100DF000BBFA0024ADF806404823ADF80430ADF846
:100E000008400C4D01A92846FFF780F90122114640
:100E10002846FFF7D3FA1E238DF800308DF80140E5
:100E20008DF8024001238DF80330684600F0E0FAA7
:100E300005B030BD0008004030B585B0012102206A
:100E4000FFF7D6FD01A8FFF78FFA0024ADF80640A2
:100E50004823ADF804304FF6FF73ADF808300E4D5F
:100E600001A92846FFF752F9012211462846FFF74B
:100E7000A5FA21462846FFF7F3FA1D238DF8003026
:100E80008DF801408DF8024001238DF8033068464B
:100E900000F0AEFA05B030BD0004004008B50348CC
:100EA000FFF7F6FBC0F3C21008BD00BF000C014005
:100EB00010B54C4B1B7813F0FF0F4A4A00EB400073
:100EC000494B03EB40030CBF186853F8300F5060D8
:100ED0009B881381434B1B7983B1444C60220021D2
:100EE0002046FFF797FA012200212046FFF772FA09
:100EF000042200212046FFF77DFA18E00022114667
:100F00003A48FFF767FA374B5B795BB1374C5022B1
:100F100000212046FFF77EFA042200212046FFF739
:100F200069FA04E0002211463048FFF763FA2D4BBE
:100F30009B7983B12D4C602204212046FFF76AFA89
:100F4000012204212046FFF745FA042211462046DB
:100F5000FFF750FA18E0002204212448FFF73AFA7C
:100F6000204BDB795BB1214C502204212046FFF756
:100F700051FA042211462046FFF73CFA04E0002211
:100F800004211A48FFF736FA164B1B7A83B1174C27
:100F9000602208212046FFF73DFA01220821204661
:100FA000FFF718FA042208212046FFF723FA10BDA4
:100FB000002208210D48FFF70DFA0A4B5B7A5BB15E
:100FC0000A4C502208212046FFF724FA0422082167
:100FD0002046FFF70FFA10BD002208210348FFF753
:100FE00009FA10BD0400002054140008002C014030
:100FF00031280DD9B0F57A6F0CD8323841F29413FC
:1010000003FB00F0054BA3FB0030C0F38F207047BB
:101010000020704741F29510704700BF353AFC44FC
:10102000064B9B7A13F0FF0F04D1054B9886188767
:1010300098877047014B9881704700BF04000020DB
:10104000002C014010B50020FFF7EAFF164C0022EB
:1010500011462046FFF7BEF9002204212046FFF783
:10106000B9F9002208212046FFF7B4F90022114601
:101070002046FFF7BFF9002204212046FFF7BAF906
:10108000002208212046FFF7B5F900210748FFF7A5
:1010900075F900210648FFF771F9064B0022DA8145
:1010A0001A829A749A7210BD002C0140000400400C
:1010B000000800400400002010B5FFF7D5FDFFF741
:1010C0000FFE0B4C602200212046FFF7A3F960229F
:1010D00004212046FFF79EF9602208212046FFF7F1
:1010E00099F9FFF77DFEFFF7A7FEFFF7ABFF10BDF5
:1010F000002C0140044B9B7ADBB2012B03D1034B44
:10110000988619879A87704704000020002C0140B8
:1011100070B501214048FFF7A9F900287BD00121D3
:101120003D48FFF7AFF93D4B9B7A13F0FF0F30D1ED
:101130003B4C602200212046FFF76CF90122002180
:101140002046FFF747F9042200212046FFF752F915
:10115000602204212046FFF75DF901220421204688
:10116000FFF738F9042211462046FFF743F96022C1
:1011700008212046FFF74EF9012208212046FFF7FB
:1011800029F9042208212046FFF734F90122234BD4
:101190009A72224DA88983B2E97C224A01EB41016F
:1011A000114491F8600003FB00F01F4EA6FB0030D5
:1011B000C0F3CF10A9898BB2E97C01EB4101114446
:1011C00091F8611003FB01F1A6FB0131C1F3CF14CB
:1011D000AB899BB2E97C01EB41010A4492F86220A1
:1011E00003FB02F3A6FB0332C2F3CF112B7813F0FB
:1011F000FF0F06BF0A4621462246FFF77BFF074A3C
:10120000D37C0133DBB2D374D37CDBB2BF2B02D9E6
:101210000022024BDA7470BD000800400400002078
:10122000002C014054140008818080800D4B1B78F5
:1012300013F0FF0F0C4B18440CBF90F8A02290F84D
:10124000A8220A4B1B785BB213449BB218B2BF288A
:1012500002DDC03B18B203E00028BCBFC03318B2A7
:10126000C0B270470400002054140008020000209F
:10127000014B987C704700BF04000020054B188A82
:1012800080B2DB899BB2002818BF002B14BF01205D
:10129000002070470400002038B58020FFF72CFCA8
:1012A00004464FF48070FFF727FC2043C4B24FF48C
:1012B0000070FFF721FC204310F0FF0F44D0802086
:1012C000FFF728FC4FF48070FFF724FC4FF4007008
:1012D000FFF720FCFFF7E2FD1C4C2075E3899BB271
:1012E00023821B4D2846FFF7BDF8E08101212846E7
:1012F000FFF744F800212846FFF7B2F8FFF7BEFFDA
:1013000068B1144C00212046FFF7AAF80F4BDB8987
:10131000C3F34A13A38501212046FFF72FF80B4B97
:101320001A7D1B7DDBB232B1062B04D8074C207D21
:10133000FFF77CFFE074054B9B7A13F0FF0F03D19E
:10134000024B187DFFF7B4FD38BD00BF040000203C
:10135000000400400008004008B501210648FFF7DE
:1013600085F840B101210448FFF78CF8FFF786FFAC
:1013700008B1FFF767FE08BD000400400122014BE1
:101380009A74704704000020014B1870704700BF2A
:101390000400002010B4036823F4FF4323F070031B
:1013A0008C680A6A14430A6914434A6914438A69B7
:1013B0001443CA6914434A6A14438A6A2243134392
:1013C0000360CB6843600B6883604B68C36010BCEC
:1013D000704700BF21B1036843F001030360704709
:1013E000036823F001031B041B0C0360704700BF5C
:1013F000C378FBB1154BDA68D243C2F30222C2F1C3
:101400000401437803FA01F10F23D340827813409B
:101410000B4302781B01DBB20D490A4482F800330A
:101420000378580903F01F03012202FA03F341F87D
:101430002030704703785A0903F01F03012101FA95
:1014400003F32032024941F82230704700ED00E0FA
:1014500000E100E0000000000000000100000100C9
:101460000100000100000000000101000000010077
:101470000001000101000000010000000001000067
:10148000000000000000000000000100000000015A
:101490000001010000000000010000010000000147
:1014A0000100010000010000000100000100000037
:1014B000000000000000DD0800E11100E51900E86F
:1014C0002100EC2A00EF3200F13A00F44200F64A23
:1014D00000F85200FA5A00FC6200FD6900FE71003B
:1014E000FE7800FF8000FF8700FF8E00FE9500FE63
:1014F0009B00FDA200FCA800FAAE00F8B400F6BA0A
:1015000000F4C000F1C500EFCA00ECCF00E8D40041
:10151000E5D900E1DD00DDE100D9E500D4E800CF48
:10152000EC00CAEF00C5F100C0F400BAF600B4F850
:1015300000AEFA00A8FC00A2FD009BFE0095FE0094
:101540008EFF0087FF007FFF0078FE0071FE0069BC
:10155000FD0062FC005AFA0052F8004AF60042F41C
:10156000003AF10032EF002AEC0021E80019E50012
:1015700011E10008DD0000E10800E51100E81900B4
:10158000EC2100EF2A00F13200F43A00F64200F8B4
:101590004A00FA5200FC5A00FD6200FE6900FE712A
:1015A00000FF7800FF7F00FF8700FE8E00FE9500A1
:1015B000FD9B00FCA200FAA800F8AE00F6B400F40F
:1015C000BA00F1C000EFC500ECCA00E8CF00E5D4D6
:1015D00000E1D900DDDD00D9E100D4E500CFE8006D
:1015E000CAEC00C5EF00C0F100BAF400B4F600AEDA
:1015F000F800A8FA00A2FC009BFD0095FE008EFEFC
:101600000087FF0080FF0078FF0071FE0069FE0088
:1016100062FD005AFC0052FA004AF80042F6003A15
:10162000F40032F1002AEF0021EC0019E80011E586
:101630000008E10000DD0000E10800E51100E81904
:1016400000EC2100EF2A00F13200F43A00F64200EB
:10165000F84A00FA5200FC5A00FD6200FE6900FEE2
:101660007100FF7800FF8000FF8700FE8E00FE956E
:1016700000FD9B00FCA200FAA800F8AE00F6B40042
:10168000F4BA00F1C000EFC500ECCA00E8CF00E5F5
:10169000D400E1D900DDDD00D9E100D4E500CFE8D8
:1016A00000CAEC00C5EF00C0F100BAF400B4F600C7
:1016B000AEF800A8FA00A2FC009BFD0095FE008E8B
:1016C000FE0087FF0080FF0078FF0071FE0069FECA
:1016D0000062FD005AFC0052FA004AF80042F6008F
:1016E0003AF40032F1002AEF0021EC0019E8001171
:1016F000E50008E100A02000608040000020A0007C
:0417000060408000C5
:04170400AAAA0A0083
:0400000508000000EF
:00000001FF
