:020000040800F2
:1000000078040020310300082D0300082D030008A8
:100010002D0300082D0300082D0300080000000038
:100020000000000000000000000000002D03000898
:100030002D030008000000002D0300082D03000818
:100040002D0300082D0300082D0300082D030008D0
:100050002D0300082D0300082D0300082D030008C0
:100060002D0300082D0300082D0300082D030008B0
:100070002D0300082D0300080D0600082D030008BD
:100080002D0300082D0300082D0300082D03000890
:100090002D0300082D0300082D0300082D03000880
:1000A0002D0300082D0300082D0300082D03000870
:1000B000750700082D0300088D0600082D030008B1
:1000C0002D0300082D0300082D0300082D03000850
:1000D0002D0300082D0300082D0300082D03000840
:1000E0002D0300082D0300082D0300080000000068
:1000F0000000000000000000000000000000000000
:1001000000000000000000005FF808F103889BB2C7
:10011000244A904212D002F5006290420ED0B0F113
:10012000804F0BD0A2F59832904207D002F5806242
:10013000904203D002F58062904203D123F0700315
:100140004A881343184A904225D002F580629042B3
:1001500021D023F440739BB2CA88134303808B8859
:1001600083850B8803850F4B98420FD003F50063FE
:1001700098420BD003F54063984207D003F58063A3
:10018000984203D003F58063984201D10B7A03862D
:1001900001238382704703808B8883850B880385C6
:1001A000F6E700BF002C0140001000404FF6FF733F
:1001B000838000230380C38043800372704700BFA5
:1001C00029B103889BB243F0010303807047038881
:1001D00023F001031B041B0C0380704722B18389A9
:1001E0009BB219438181704783899BB223EA010145
:1001F00081817047038823F008031B041B0C0380D4
:1002000003889BB219430180704700BF028A83892B
:100210009BB2114204D0194214BF01200020704744
:1002200000207047C94389B20182704782B03B4BBE
:100230001A6842F001021A605968394A0A405A6045
:100240001A6822F0847222F480321A601A6822F44A
:1002500080221A605A6822F4FE025A604FF41F028C
:100260009A600022009201921A6842F480321A6069
:100270001A46136803F400330193009B0133009383
:10028000019B1BB9009BB3F5A06FF2D1234B1B68F8
:1002900013F4003F14BF012300230193019B012BA2
:1002A00036D1204B1A6842F010021A601A6822F008
:1002B00003021A601A6842F002021A60A3F5805322
:1002C0005A685A605A685A605A6842F480625A60A2
:1002D0005A6822F47C125A605A6842F4E8125A6052
:1002E0001A6842F080721A601A46136813F0007F91
:1002F000FBD00A4B5A6822F003025A605A6842F057
:1003000002025A601A46536803F00C03082BFAD114
:100310004FF00062044B9A6002B070470010024038
:100320000000FFF80020024000ED00E0FEE700BF03
:1003300008B50F4B0F4A9A420CD2581E801A20F073
:10034000030004300C4B184453F8041B42F8041B00
:100350008342F9D109480A494FF000028842B8BFE8
:1003600040F8042BFADBFFF761FF00F0A1F908BDAC
:1003700014000020000000202C17000814000020AA
:1003800074000020F0B5CB7803F00F0613F0100FC7
:100390001CBF8B781E430B78F3B10568002301273F
:1003A0004FF00F0C07FA03F20C8832EA04040FD165
:1003B0009C000CFA04FE25EA0E0506FA04F4254317
:1003C000CC78282C01D1426102E0482C08BF0261A0
:1003D0000133082BE6D105600B88FF2B20D9456837
:1003E000002301274FF00F0E03F1080207FA02F273
:1003F0000C8832EA04040FD19C000EFA04FC25EAB2
:100400000C0506FA04F42543CC78282C08BF426179
:10041000CC78482C08BF02610133082BE4D1456039
:10042000F0BD00BF08B500F059FB4FF4803000F07C
:1004300075FB00F057FC012810D1002000F09EFB56
:10044000002000F0AFFB002000F0A2FB012000F034
:1004500083FB00F08BFB0428FBD108BDFEE700BF47
:1004600030B587B001214FF4001000F019FC0121D4
:10047000082000F007FCC023ADF8043003238DF8FA
:1004800006301C238DF8073001A91248FFF77AFFC8
:100490000023ADF80C304BF6FF73ADF80E30382367
:1004A000ADF810304FF48063ADF812304FF4804354
:1004B000ADF8143006AC084B44F8103D074D01214F
:1004C000284600F0F3FF2146284600F07FFF07B0E2
:1004D00030BD00BF000C0140A08601000054004068
:1004E0002DE9F04192B0012144F2040000F0CAFB72
:1004F0000121084600F0B8FB324B0793324B0893BA
:100500001023099350230A9300240B9480270C97FF
:100510000D940E940F94109411942C4E07A930460C
:1005200000F070FC25238DF818308DF819408DF8F7
:100530001A4001258DF81B5006A800F015FF4FF456
:100540000073ADF8143018238DF8173003238DF89D
:100550001630DFF8848005A94046FFF713FF4FF4FB
:100560008063ADF8143004238DF8173005A9404698
:10057000FFF708FF4FF416530193ADF80840ADF8AC
:100580000A40ADF80C40ADF810400823ADF80E302D
:100590000F4C01A9204600F0BFFB2946204600F081
:1005A00017FC2A463946204600F020FC2A46022144
:1005B000304600F055FC4FF48042064B1A6012B0F2
:1005C000BDE8F081043801401400002044000240DE
:1005D0000038014000E100E00008014038B5054660
:1005E0000146084801F006F8074C0021204600F0BB
:1005F00029FC284601F05CF860600121204600F0EB
:1006000021FC38BD140000204400024008B54FF41E
:10061000005000F02FFC0021014800F013FC08BD41
:100620004400024030B585B00121042000F038FBC1
:1006300001A8FFF7BBFD0024ADF806404FF4FA53C4
:10064000ADF804304FF47A73ADF808300E4D01A9BF
:100650002846FFF75BFD012211462846FFF7BEFD45
:1006600001212846FFF7ACFD1E238DF800308DF8E0
:1006700001408DF8024001238DF80330684600F0F8
:1006800073FE05B030BD00BF0008004008B5012171
:100690000548FFF7BBFD30B101210348FFF7C2FD5C
:1006A0000122024B1A7008BD0008004064000020BF
:1006B00030B597B05022002102A800F04DFF002372
:1006C00001930093FFF7AEFE00F02AF8FFF7C8FE93
:1006D00000F028FDFFF704FFFFF7A4FF0D4C0E4DBF
:1006E0002378DBB2012BFBD1694601A800F04CFD59
:1006F000019B85FB0321DA17009BC2EBA10207498E
:1007000002A800F0DDF902A8FFF768FF00232370BC
:10071000E6E700BF64000020676666660C17000805
:1007200030B585B00121084600F0BAFA01A8FFF7FC
:100730003DFD0023ADF806300825ADF80450012436
:10074000ADF8084001A94FF08040FFF7DFFC1C2303
:100750008DF800308DF801408DF802408DF803408F
:10076000684600F001FE29464FF08040FFF742FD49
:1007700005B030BD38B501214FF08040FFF752FD84
:100780004FF08044238A23F001031B041B0C2382B7
:100790000125064B1D7000212046FFF711FD0022A8
:1007A00029462046FFF71AFD38BD00BF650000202E
:1007B00010B50022114B1A704FF0804440F2E7331D
:1007C0002385000180B2A085A38A9BB243F0010378
:1007D000A382238A23F001031B041B0C2382012222
:1007E00011462046FFF7FAFC01212046FFF7E8FCFE
:1007F000024A137813F0FF0FFBD010BD65000020F4
:1008000010B40B7843B1024602F8013B141A11F8F8
:10081000013F002BF8D100E00024204610BC7047B7
:1008200070B504461E46501E092B04D800280CDC67
:10083000254600200FE00E4BA3FB0623DB080246F3
:100840002046FFF7EDFF251805E0551E254404F866
:10085000011BA542FBD1064BA3FB0623DB0803EBE0
:100860008303A6EB430330332B70013070BD00BF10
:10087000CDCCCCCC70B50446002B04DA5D42501EC2
:10088000092D05D82FE01D46013A092B0AD825E08D
:100890001D4BA3FB0523DB085B4202462046FFF706
:1008A000E9FF06E01848A0FB0303DB082046FFF73A
:1008B000E1FF04441CE01046264606F8011B0138FF
:1008C0000028FADC013A22EAE272501C0444002BB0
:1008D0000EDA2D2304F8013B013009E0002AD8BFCD
:1008E000002005DDE7E7023A002AE4DC0020F0E71B
:1008F000054BA3FB0523DB0803EB8303A5EB4303B5
:1009000030332370013070BDCDCCCCCC70B582B00B
:1009100004461E46069D501E2B0904D100280ADC01
:10092000234600200DE00093334602462046FFF7A1
:10093000EDFF231805E0531E234404F8011BA342D6
:10094000FBD105F00F02092A03D8154630351D707A
:1009500009E026B105F00F0537351D7003E005F0FD
:100960000F0557351D70013002B070BD2DE9F04FF5
:1009700083B00F46064608B10021017000254FF0F4
:10098000010AA8464FF030097CE0252904D0013245
:1009900031700135013675E05178252904D1317067
:1009A0000232013501366DE0302919BF541C202177
:1009B000941C494694F800E0AEF13002D2B2092A04
:1009C0000FD8424602EB82020EEB4202303A02F0AE
:1009D000FF0214F801EFAEF13000C0B20928F1D9DE
:1009E00000E04246501987423CBF7A1BD2B2AEF1BA
:1009F000580EBEF1200F56D8DFE80EF02B55555596
:100A0000555555555555553D115555555511555536
:100A1000555555555555553555195555210003F121
:100A2000040B1B683046FFF725FF5B4627E003F108
:100A3000040B1B683046FFF7F3FE5B461FE003F133
:100A4000040B1B68009343463046FFF75FFF5B468D
:100A500015E003F1040B1B68009353463046FFF783
:100A600055FF5B460BE003F1040B19683046FFF7B6
:100A7000C7FE5B4603E01A68327004335046621CBE
:100A800006440544117819B1BD42FFF47EAF05E07C
:100A9000AF4203D900233370284606E0002306F84E
:100AA000013C681E01E04FF0FF3003B0BDE8F08F5D
:100AB00008B513460A466421FFF758FF08BD00BF7A
:100AC0000EB400B582B003AA52F8041B0192FFF7DE
:100AD000EFFF02B05DF804EB03B070470D4B1A68EE
:100AE00042F001021A6059680B4A0A405A601A68BB
:100AF00022F0847222F480321A601A6822F4802272
:100B00001A605A6822F4FE025A604FF41F029A607B
:100B1000704700BF001002400000FFF80D4B1A683C
:100B200022F480321A601A6822F480221A60B0F52A
:100B3000803F03D0B0F5802F06D07047054A136878
:100B400043F4803313607047024A136843F4A023D0
:100B50001360704700100240034A536823F00303F8
:100B600018435060704700BF00100240024B5868A5
:100B700000F00C00704700BF00100240034A5368A9
:100B800023F0F00318435060704700BF001002408C
:100B9000034A536823F4E06318435060704700BF72
:100BA00000100240034A536823F4605343EAC00034
:100BB000506070470010024010B4274B5B6803F090
:100BC0000C03042B05D0082B06D0F3B9234B03608C
:100BD0001DE0224B03601AE01F4A53685268C3F3BA
:100BE0008343023312F4803F04D11D4A02FB03F316
:100BF00003600CE0184A526812F4003F14BF184A10
:100C0000164A02FB03F3036001E0144B0360124A2F
:100C10005368C3F30313134CE35CD9B20368CB40AE
:100C200043605168C1F30221615CC9B223FA01F14A
:100C300081605168C1F3C221615CC9B2CB40C3601D
:100C40005268C2F381322244127CD2B2B3FBF2F377
:100C5000036110BC704700BF0010024000127A0010
:100C600000093D000000002021B1054B5A691043E6
:100C700058617047024A536923EA00005061704787
:100C80000010024021B1054B9A69104398617047EA
:100C9000024A936923EA0000906170470010024005
:100CA00021B1054BDA691043D8617047024AD36914
:100CB00023EA0000D0617047001002404309012B75
:100CC00002D1074B1B6804E0022B054B0CBF1B6ACB
:100CD0005B6A00F01F0023FA00F000F0010070478B
:100CE0000010024010B582B0002301933124204649
:100CF000FFF7E4FF019B01330193019BB3F5A06F64
:100D000001D00028F3D03120FFF7D8FF003018BF02
:100D1000012002B010BD00BF30B587B004460D46BB
:100D2000038A9BB223F44053CA8813430382828907
:100D300092B289882B890B4369890B4322F4B05204
:100D400022F00C0213439BB28381838A9BB223F46B
:100D50004073AA891343838201A8FFF72DFF1A4B22
:100D60009C420CBF049B039BA28912F4004F03EB2F
:100D7000830303EB8303296814BF49008900B3FB95
:100D8000F1F1124BA3FB012358090501642300FB79
:100D90001313A28912F4004F09D0D90032310B4A43
:100DA000A2FB0131C1F3421242EA050307E01B0135
:100DB0003233064AA2FB0323C3F343132B439BB2F4
:100DC000238107B030BD00BF003801401F85EB51C3
:100DD00029B183899BB243F400538381704783898F
:100DE00023F400531B041B0C8381704722B1838AB8
:100DF0009BB2194381827047838A9BB223EA010127
:100E00008182704710B4036823F4FF4323F070031A
:100E10008C680A6A14430A6914434A6914438A694C
:100E20001443CA6914434A6A14438A6A2243134327
:100E30000360CB6843600B6883604B68C36010BC81
:100E4000704700BF21B1036843F00103036070479E
:100E5000036823F001031B041B0C0360704700BFF1
:100E60001AB10368194301607047036823EA01015E
:100E70000160704710F0805F14BF024B024B586056
:100E8000704700BF0004024000000240F8B506466B
:100E9000384C0121204600F033FB0121204600F0B0
:100EA00013FB354D2946204600F048FB0028F9D0B9
:100EB0000022EE212F4800F037FB304D2D4C294603
:100EC000204600F03BFB0028F9D03146294800F0CD
:100ED00025FB2B4D274C2946204600F02FFB0028F0
:100EE000F9D00121234800F0EFFA234D214C294687
:100EF000204600F023FB0028F9D00122EE211D48F6
:100F000000F012FB1F4D1B4C2946204600F016FB3B
:100F10000028F9D01C4D174C2946204600F00EFB46
:100F20000028F9D0134800F0FBFA0746164D114C83
:100F30002946204600F002FB0028F9D00D4C20463F
:100F400000F0EEFA06460121204600F0CBFA00211F
:100F5000204600F0D5FA0C4D2946204600F0EEFA66
:100F60000028F9D0034800F0DBFA46EA072000B277
:100F7000F8BD00BF005400400100030082000700DC
:100F80008400070002000300400003002DE9F04147
:100F90000646404C0121204600F0B2FA01212046CD
:100FA00000F092FA3C4D2946204600F0C7FA00288E
:100FB000F9D00022EE21374800F0B6FA374D354C13
:100FC0002946204600F0BAFA0028F9D031463148C7
:100FD00000F0A4FA324D2F4C2946204600F0AEFA1C
:100FE0000028F9D001212B4800F06EFA2A4D294C37
:100FF0002946204600F0A2FA0028F9D00122EE216D
:10100000244800F091FA274D224C2946204600F052
:1010100095FA0028F9D0244D1E4C2946204600F0B0
:101020008DFA0028F9D01B4800F07AFA07461E4DC9
:10103000184C2946204600F081FA0028F9D01548BE
:1010400000F06EFA0646184D124C2946204600F074
:1010500075FA0028F9D00F4C204600F061FA80465E
:101060000121204600F03EFA0021204600F048FA17
:101070000D4D2946204600F061FA0028F9D00548B8
:1010800000F04EFA300240EA074040EA0800BDE8AE
:10109000F08100BF005400400100030082000700FF
:1010A00084000700020003004000030070B50646FC
:1010B0000121184800F008FA174D164C2946204621
:1010C00000F03CFA0028F9D00022EE21114800F08F
:1010D0002BFA124D0F4C2946204600F02FFA00281B
:1010E000F9D031460B4800F019FA0D4D094C29464C
:1010F000204600F023FA0028F9D00121054800F02D
:10110000F1F9074D034C2946204600F017FA002854
:10111000F9D070BD005400400100030082000700B8
:101120008400070008B51E20FFF7C0FF0120FFF76D
:101130003FFBA220FFF7AAFE0D4B1880A420FFF76B
:10114000A5FE0C4B1880A620FFF7A0FE0A4B1880C6
:10115000A820FFF79BFE094B1880AA20FFF796FEF8
:10116000074B1880AC20FFF791FE064B188008BD96
:101170006C0000206A0000206E0000206600002045
:1011800068000020700000202DE9F04F89B0049025
:1011900005914820FFF78AFF0920FFF709FB00208F
:1011A000FFF7F4FE82465820FFF780FF0920FFF783
:1011B000FFFA0020FFF7EAFE634B1B88A0EB032039
:1011C000624B198800FB01F1C91501F5FA61C517D9
:1011D0005F4B1A88A2FB006702FB0577F20942EA1F
:1011E0004762FB115B4EB6F8008000274FEA0846C5
:1011F00012EB060843EB0709CDE90089564B1A8824
:10120000A2FB006702FB0577320A42EA07623B1243
:10121000524EB6F8008000274FEAC83612EB060897
:1012200043EB0709CDE90289B1F5FA6F5FDA00FBFC
:1012300005F4A0FB002303EB4403D60F46EA430664
:101240004FEAE179B1F5FA6249F1FF3302FB03F0AD
:10125000A2FB022303EB40039800940040EA92753E
:1012600012196B415D104FEA3204A346AC46CDE93A
:1012700006BC940844EA83749D10394B99423BDACA
:1012800040F2DC52002311EB020849EB030908FB92
:1012900009F3A8FB088909EB43094FEAC9004FEAA3
:1012A000C80240EA5873B2EB080263EB09031BEB78
:1012B000020B4CEB030CCDE906BC18EB080249EB22
:1012C000090393469C4660468300584643EA9B7355
:1012D00082001BEB020B4CEB030C1BEB08024CEBEC
:1012E00009035B104FEA3202A4185D4104E00026B6
:1012F00000240025CDE906458F1BDDE90223121BE2
:1013000063EB0503A2FB0A010AFB0311440D44EA47
:10131000C1244D15DDE90623DDE90001801A61EBEA
:101320000301241A65EB0105E30B43EA4543059AE3
:1013300013600C4E86FB0736F917C1EBA606049B1B
:101340001E6009B0BDE8F08F68000020700000202A
:10135000660000206A0000206E0000206C00002063
:1013600024FAFFFF67666666C378FBB1154BDA683F
:10137000D243C2F30222C2F10401437803FA01F11D
:101380000F23D340827813400B4302781B01DBB25A
:101390000D490A4482F800330378580903F01F030B
:1013A000012202FA03F341F82030704703785A090A
:1013B00003F01F03012101FA03F32032024941F82F
:1013C0002230704700ED00E000E100E0F0B587B0AA
:1013D00004460D46868826F03F063604360C01A8E2
:1013E000FFF7EAFB039B2E48A0FB0320800C87B28B
:1013F0003E43A680218821F001010904090C2180C7
:101400002A6828498A4209D85200B3FBF2F39BB2FA
:10141000032B98BF04230137278427E0EE884BF67F
:10142000FF718E4205D102EB4201B3FBF1F39BB297
:1014300008E002EB820202EB8202B3FBF2F39BB202
:1014400043F48043C3F30B020AB943F0010343F4AE
:1014500000434FF4967200FB02F0134A82FB001225
:10146000C017C0EBA210013080B22084A383238870
:101470009BB243F00103238023889BB223F4816352
:1014800023F00201AB886A8913430B439BB223808C
:10149000AA892B8913439BB2238107B0F0BD00BFFB
:1014A00083DE1B43A0860100D34D621029B103885F
:1014B0009BB243F0010303807047038823F00103CC
:1014C0001B041B0C0380704729B103889BB243F4B3
:1014D000807303807047038823F480731B041B0C04
:1014E0000380704729B103889BB243F400730380E3
:1014F0007047038823F400731B041B0C03807047A0
:1015000029B103889BB243F480630380704703884A
:1015100023F480631B041B0C038070470182704717
:10152000008AC0B2704700BF12B141F0010101E072
:1015300001F0FE0189B20182704700BF838A9BB22D
:10154000008B43EA004321F07F4203EA0200884215
:1015500014BF00200120704770B4840746D0541E89
:10156000002A41D0CDB2034602E0621EE4B3144625
:1015700003F8015B9A07F8D1032C2ED9CDB245EAC6
:1015800005250F2C45EA054519D9264603F1100219
:10159000103E0F2E42F8105C42F80C5C42F8085CDA
:1015A00042F8045C02F11002F2D8A4F1100222F019
:1015B0000F0204F00F041032032C13440DD91E4601
:1015C0002246043A032A46F8045BFAD8221F22F086
:1015D00003020432134404F003042CB1C9B21C44C6
:1015E00003F8011BA342FBD170BC704714460346AD
:1015F000C2E700BF80EA0102844612F0030F4FD118
:1016000011F0030F32D14DF8044D11F0040F51F8D1
:10161000043B0BD0A3F101329A4312F0803F04BF88
:101620004CF8043B51F8043B16D100BF51F8044B71
:10163000A3F101329A4312F0803FA4F101320BD1A1
:101640004CF8043BA24312F0803F04BF51F8043B26
:101650004CF8044BEAD023460CF8013B13F0FF0F83
:101660004FEA3323F8D15DF8044B704711F0010FB6
:1016700006D011F8012B0CF8012B002A08BF704787
:1016800011F0020FBFD031F8022B12F0FF0F16BF7E
:101690002CF8022B8CF8002012F47F4FB3D1704746
:1016A00011F8012B0CF8012B002AF9D1704700BF6B
:1016B00020F0030110F00300C0F1000051F8043BDA
:1016C00000F1040C4FEACC0C6FF000021CBF22FAB0
:1016D0000CF213434FF0010C4CEA0C2C4CEA0C4C6E
:1016E000A3EB0C0222EA030212EACC1204BF51F867
:1016F000043B0430F4D0C2F1000102EA0102B2FA64
:1017000082F2C2F11F0200EBD200704754656D7087
:10171000657261747572653A2025642C205072657B
:0C17200073737572653A2025640D0A0091
:10172C00000000000102030401020304060708097B
:04173C000204060895
:0400000508000000EF
:00000001FF
