:020000040800F2
:100000004804002019030008150300081503000820
:100010001503000815030008150300080000000080
:1000200000000000000000000000000015030008B0
:100030001503000800000000150300081503000860
:100040001503000815030008150300081503000830
:100050001503000815030008150300081503000820
:100060001503000815030008150300081503000810
:100070001503000815030008150300081503000800
:1000800015030008150300081503000815030008F0
:1000900015030008150300081503000815030008E0
:1000A00015030008150300081503000815030008D0
:1000B000E9040008150300081503000815030008EB
:1000C00015030008150300081503000815030008B0
:1000D000150300081503000815030008750600083D
:1000E00015030008150300081503000800000000B0
:1000F0000000000000000000000000000000000000
:1001000000000000000000005FF808F103889BB2C7
:10011000244A904212D002F5006290420ED0B0F113
:10012000804F0BD0A2F59832904207D002F5806242
:10013000904203D002F58062904203D123F0700315
:100140004A881343184A904225D002F580629042B3
:1001500021D023F440739BB2CA88134303808B8859
:1001600083850B8803850F4B98420FD003F50063FE
:1001700098420BD003F54063984207D003F58063A3
:10018000984203D003F58063984201D10B7A03862D
:1001900001238382704703808B8883850B880385C6
:1001A000F6E700BF002C0140001000404FF6FF733F
:1001B000838000230380C38043800372704700BFA5
:1001C00029B103889BB243F0010303807047038881
:1001D00023F001031B041B0C0380704722B18389A9
:1001E0009BB219438181704783899BB223EA010145
:1001F00081817047038823F008031B041B0C0380D4
:1002000003889BB219430180704700BFC94389B27C
:100210000182704782B03B4B1A6842F001021A60BB
:100220005968394A0A405A601A6822F0847222F4E6
:1002300080321A601A6822F480221A605A6822F406
:10024000FE025A604FF41F029A600022009201924F
:100250001A6842F480321A601A46136803F40033B5
:100260000193009B01330093019B1BB9009BB3F5E5
:10027000A06FF2D1234B1B6813F4003F14BF01237E
:1002800000230193019B012B36D1204B1A6842F0C9
:1002900010021A601A6822F003021A601A6842F00B
:1002A00002021A60A3F580535A685A605A685A606D
:1002B0005A6842F480625A605A6822F47C125A608A
:1002C0005A6842F4E8125A601A6842F080721A6062
:1002D0001A46136813F0007FFBD00A4B5A6822F0CD
:1002E00003025A605A6842F002025A601A46536882
:1002F00003F00C03082BFAD14FF00062044B9A6014
:1003000002B07047001002400000FFF800200240D9
:1003100000ED00E0FEE700BF08B50F4B0F4A9A4220
:100320000CD2581E801A20F0030004300C4B1844E5
:1003300053F8041B42F8041B8342F9D109480A49C7
:100340004FF000028842B8BF40F8042BFADBFFF7F9
:1003500061FF00F079F808BD2C00002000000020AB
:10036000500C00082C00002048000020F0B5CB788D
:1003700003F00F0613F0100F1CBF8B781E430B7891
:10038000F3B10568002301274FF00F0C07FA03F2C1
:100390000C8832EA04040FD19C000CFA04FE25EA12
:1003A0000E0506FA04F42543CC78282C01D14261CD
:1003B00002E0482C08BF02610133082BE6D105603A
:1003C0000B88FF2B20D94568002301274FF00F0E23
:1003D00003F1080207FA02F20C8832EA04040FD192
:1003E0009C000EFA04FC25EA0C0506FA04F42543E9
:1003F000CC78282C08BF4261CC78482C08BF026119
:100400000133082BE4D14560F0BD00BF08B500F012
:1004100041FA4FF4803000F05DFA00F031FB012822
:1004200010D1002000F086FA002000F097FA00209A
:1004300000F08AFA012000F06BFA00F073FA042849
:10044000FBD108BDFEE700BF08B5FFF7DFFF00F0F6
:1004500021F800F08FF84FF4FA7000F063F81422DE
:100460000021062000F04CF90A2000F05BF8012082
:1004700000F00AFA0A2000F055F8672241F2836181
:10048000642000F061F9642400F0D4F9204600F003
:1004900049F8F9E730B585B00121084600F0CEFAF9
:1004A00001A8FFF783FE0023ADF806300825ADF85C
:1004B00004500124ADF8084001A94FF08040FFF737
:1004C00025FE1C238DF800308DF801408DF8024088
:1004D0008DF80340684600F081FB29464FF08040CC
:1004E000FFF788FE05B030BD38B501214FF08040E0
:1004F000FFF78CFE4FF08044238A23F001031B0496
:100500001B0C23820125064B1D7000212046FFF79E
:1005100057FE002229462046FFF760FE38BD00BF87
:100520004200002010B50022114B1A704FF0804499
:1005300040F2E7332385000180B2A085A38A9BB2F5
:1005400043F00103A382238A23F001031B041B0C45
:100550002382012211462046FFF740FE012120465A
:10056000FFF72EFE024A137813F0FF0FFBD010BDE9
:100570004200002070B586B001214FF4802000F0C9
:100580005DFA0121082000F04BFA27238DF8143082
:1005900000248DF815408DF8164001258DF8175070
:1005A00005A800F01BFB4FF48063ADF81030182352
:1005B0008DF8133003238DF812301D4E04A93046F8
:1005C000FFF7D4FE4FF40063ADF8103004238DF82C
:1005D000133004A93046FFF7C9FE4FF416530093B9
:1005E000ADF80440ADF80640ADF80840ADF80C4059
:1005F0000C23ADF80A300F4C6946204600F05AFA39
:100600002946204600F0B2FA2A4640F225512046FB
:1006100000F0BAFA2021204600F0D2FA2546402404
:100620002146284600F0D4FA0028F9D006B070BD63
:10063000000C0140004800400C4B00221A701B784F
:10064000DBB2132B0DD8094A094800211378DBB21D
:10065000C15413780133DBB213701378DBB2132B60
:10066000F4D90022014B1A70704700BF44000020EB
:100670002C000020174B1B8803F020039BB23BB3D8
:1006800010B5144800F0A0FAC0B2134A1070134914
:100690000B78DBB21078C0B2114CE0540B78013308
:1006A000DBB20B701378DBB2EF2B06D00B78DBB22A
:1006B000132B0CD9FFF7C0FF10BD094BDB78DBB261
:1006C0003D2B02D10122064B1A75FFF7B5FF10BD75
:1006D000704700BF00480040430000204400002055
:1006E0002C000020012300200449CA5C104480B281
:1006F0000133072BF9D1404280B27047000000203F
:10070000F8B50F4CE070C9B26171D2B2A271FFF7B7
:10071000E9FFC0F30723E371C0B220720026274629
:10072000084C4025B95D204600F04AFA294620468B
:1007300000F04EFA0028F9D001360A2EF2D1F8BDA9
:100740000000002000480040F0B484B006460C468B
:100750001546354B0FCB04AF07E90F000023334894
:10076000FF21C218117301330A2BFAD10022304B3A
:100770005A75FF2E08D01A465B7D2C490B441E7318
:10078000537D0133DBB25375002C11DA002CB8BF56
:100790006442274A537D25490B44FA211973537D3E
:1007A0000133DBB2537503A9282221481F4F08E00B
:1007B000002CF8D11E4B5B7D1C4A1344C8221A73CF
:1007C000F1E7132C10DD0E6894FBF6F303FB1644DF
:1007D000002B0FDD467D1344DBB23E443373437D73
:1007E0000133DBB2437505E0002C03DD437DE6B247
:1007F0003B441E73A2F10A03043913F0FF02E0D157
:10080000FF2D08D00A4A537D0133DBB25375537D67
:10081000064A13441D73064B00225A7501221A75AD
:1008200004B0F0BC704700BF400C0008000000207E
:100830002C000020124A537D12490B441B7BDBB273
:10084000527DFF2B1AD0D2B2092A17D80C4B1B7D30
:10085000DBB2012B12D110B5FFF7EEFE084C0023DE
:100860002375084A917D637D13441A7B0F20FFF79F
:1008700047FF637D0133DBB2637510BD704700BF76
:100880002C00002000000020014B9875704700BF2D
:10089000000000200D4B1A6842F001021A605968EE
:1008A0000B4A0A405A601A6822F0847222F480329D
:1008B0001A601A6822F480221A605A6822F4FE0232
:1008C0005A604FF41F029A60704700BF0010024048
:1008D0000000FFF80D4B1A6822F480321A601A6883
:1008E00022F480221A60B0F5803F03D0B0F5802F4B
:1008F00006D07047054A136843F48033136070478D
:10090000024A136843F4A0231360704700100240AA
:10091000034A536823F0030318435060704700BF35
:1009200000100240024B586800F00C00704700BFF6
:1009300000100240034A536823F0F003184350604C
:10094000704700BF00100240034A536823F4E0637D
:1009500018435060704700BF00100240034A5368BC
:1009600023F4605343EAC000506070470010024017
:1009700010B4274B5B6803F00C03042B05D0082B45
:1009800006D0F3B9234B03601DE0224B03601AE04D
:100990001F4A53685268C3F38343023312F4803F03
:1009A00004D11D4A02FB03F303600CE0184A5268AD
:1009B00012F4003F14BF184A164A02FB03F3036007
:1009C00001E0144B0360124A5368C3F30313134C42
:1009D000E35CD9B20368CB4043605168C1F30221A4
:1009E000615CC9B223FA01F181605168C1F3C2218F
:1009F000615CC9B2CB40C3605268C2F38132224409
:100A0000127CD2B2B3FBF2F3036110BC704700BF9B
:100A10000010024000127A0000093D00180000207A
:100A200021B1054B9A69104398617047024A936956
:100A300023EA0000906170470010024021B1054B8D
:100A4000DA691043D8617047024AD36923EA00008B
:100A5000D0617047001002404309012B02D1074BBF
:100A60001B6804E0022B054B0CBF1B6A5B6A00F09D
:100A70001F0023FA00F000F0010070470010024050
:100A800010B582B00023019331242046FFF7E4FF24
:100A9000019B01330193019BB3F5A06F01D00028A6
:100AA000F3D03120FFF7D8FF003018BF012002B08B
:100AB00010BD00BF30B587B004460D46038A9BB217
:100AC00023F44053CA8813430382828992B28988EF
:100AD0002B890B4369890B4322F4B05222F00C029C
:100AE00013439BB28381838A9BB223F44073AA8908
:100AF0001343838201A8FFF73BFF1A4B9C420CBFB4
:100B0000049B039BA28912F4004F03EB830303EBC6
:100B10008303296814BF49008900B3FBF1F1124B2C
:100B2000A3FB012358090501642300FB1313A289C9
:100B300012F4004F09D0D90032310B4AA2FB013127
:100B4000C1F3421242EA050307E01B013233064AB1
:100B5000A2FB0323C3F343132B439BB2238107B0B0
:100B600030BD00BF003801401F85EB5129B183899A
:100B70009BB243F4005383817047838923F400536D
:100B80001B041B0C8381704710B4C1F3421401F0A5
:100B90001F01012303FA01F19C4201D10C3003E053
:100BA000022C0CBF103014301AB1036819430160D5
:100BB00003E0036823EA0101016010BC704700BF35
:100BC000C1F30801818070478088C0F30800704736
:100BD0000388194214BF012000207047C378FBB17D
:100BE000154BDA68D243C2F30222C2F10401437802
:100BF00003FA01F10F23D340827813400B430278AC
:100C00001B01DBB20D490A4482F80033037858090E
:100C100003F01F03012202FA03F341F8203070476A
:100C200003785A0903F01F03012101FA03F320326C
:100C3000024941F82230704700ED00E000E100E099
:100C4000010000000A00000064000000E80300004A
:100C50007EFF06000100000000EF0000FFFFFFFF25
:100C6000FFFFFFFFFFFF010000000000010203047F
:0C0C70000102030406070809020406083C
:0400000508000000EF
:00000001FF
