:020000040800F2
:1028000000040020812A0008E12A0008E12A0008CB
:10281000E12A0008E12A0008E12A0008000000007F
:10282000000000000000000000000000E12A000895
:10283000E12A000800000000E12A0008E12A00085F
:10284000E12A0008E12A0008E12A0008E12A00083C
:10285000E12A0008E12A0008E12A0008E12A00082C
:10286000E12A0008E12A0008E12A0008E12A00081C
:10287000E12A0008E12A0008E12A0008E12A00080C
:10288000E12A0008E12A0008E12A0008E12A0008FC
:10289000E12A0008E12A0008E12A0008E12A0008EC
:1028A000E12A0008E12A0008E12A0008E12A0008DC
:1028B000E12A0008E12A0008E12A0008E12A0008CC
:1028C000E12A0008E12A0008E12A0008E12A0008BC
:1028D000E12A0008E12A0008E12A0008E12A0008AC
:1028E000E12A0008E12A0008E12A000800000000AF
:1028F00000000000000000000000000000000000D8
:1029000000000000000000005FF808F180B500AF93
:10291000154A154B1B6843F0010313601249124B13
:102920005A68124B13404B600F4A0F4B1B6823F041
:10293000847323F4803313600B4A0B4B1B6823F41E
:1029400080231360084A084B5B6823F4FE0353603E
:10295000054B4FF41F029A6000F00CF8044B4FF047
:1029600000629A6000BF80BD001002400000FFF8C6
:1029700000ED00E080B500AF00F002F800BF80BDC0
:1029800080B483B000AF00237B6000233B603A4AF1
:10299000394B1B6843F480331360374B1B6803F4D7
:1029A00000333B607B6801337B603B68002B03D1C5
:1029B0007B68B3F5A06FF0D12F4B1B6803F4003395
:1029C000002B02D001233B6001E000233B603B6809
:1029D000012B4BD1294A294B1B6843F0100313608C
:1029E000264A264B1B6823F003031360234A234B1C
:1029F0001B6843F0020313601F4A1F4B5B68536060
:102A00001D4A1D4B5B6853601B4A1B4B5B6843F4BC
:102A100080635360184A184B5B6823F47C1353603F
:102A2000154A154B5B6843F4E8135360124A124B86
:102A30001B6843F08073136000BF0F4B1B6803F0EB
:102A40000073002BF9D00C4A0B4B5B6823F0030397
:102A50005360094A084B5B6843F00203536000BFB0
:102A6000054B5B6803F00C03082BF9D100BF0C3752
:102A7000BD4680BC704700BF0010024000200240ED
:102A800080B582B000AF114B7B60114B3B6007E01B
:102A90003B681A1D3A607A68111D796012681A60E5
:102AA0003B680C4A9342F3D30B480C494FF00002A9
:102AB0008842B8BF40F8042BFADBFFF727FF00F08D
:102AC000CFF800BF0837BD4680BD00BF242D0008E9
:102AD0000000002000000020000000200000002076
:102AE00080B400AFFEE700BF80B489B000AF78606B
:102AF00039600023FB6100233B610023BB6100239D
:102B0000FB6000237B610023BB603B68DB7803F044
:102B10000F03FB613B68DB7803F01003002B05D04B
:102B20003B689B781A46FB691343FB613B681B8833
:102B3000DBB2002B44D07B681B687B610023BB6148
:102B400038E00122BB6902FA03F3FB603B681B8893
:102B50001A46FB6813403B613A69FB689A4226D1EA
:102B6000BB699B00FB600F22FB6802FA03F3BB60AA
:102B7000BB68DB437A6913407B61FA69FB6802FA40
:102B800003F37A6913437B613B68DB78282B05D11B
:102B90000122BB699A407B685A6108E03B68DB7898
:102BA000482B04D10122BB699A407B681A61BB693A
:102BB0000133BB61BB69072BC3D97B687A691A6093
:102BC0003B681B88FF2B46D97B685B687B610023D1
:102BD000BB613AE0BB690833012202FA03F3FB60F0
:102BE0003B681B881A46FB6813403B613A69FB68E7
:102BF0009A4227D1BB699B00FB600F22FB6802FA57
:102C000003F3BB60BB68DB437A6913407B61FA69FD
:102C1000FB6802FA03F37A6913437B613B68DB7854
:102C2000282B05D1BB69083301229A407B685A6181
:102C30003B68DB78482B05D1BB69083301229A40F9
:102C40007B681A61BB690133BB61BB69072BC1D9C2
:102C50007B687A695A6000BF2437BD4680BC7047E4
:102C600080B582B000AF13494FF0006000F044F827
:102C70000121102000F022F84FF400533B80102374
:102C8000FB700323BB703B4619460B48FFF72CFF34
:102C9000094A094BDB6883F40053D36000237B604F
:102CA00002E07B6801337B607B68B3F5801FF8DB53
:102CB000EEE700BF002800080010014080B483B098
:102CC00000AF78600B46FB70FB78002B06D00949FB
:102CD000084B9A697B6813438B6106E00549054BF5
:102CE0009A697B68DB4313408B6100BF0C37BD469C
:102CF00080BC70470010024080B483B000AF7860A1
:102D0000396007493B6823F0604323F07F037A680A
:102D100013438B6000BF0C37BD4680BC704700BFBB
:042D200000ED00E0E2
:0400000508002800C7
:00000001FF
