:020000040800F2
:10000000700E0020F5160008F5210008F9210008FF
:10001000FD21000801220008052200080000000060
:10002000000000000000000000000000092200089D
:100030000D2200080000000011220008152200080F
:10004000F1160008F1160008F1160008F116000874
:10005000F1160008F1160008F1160008F116000864
:10006000F1160008F1160008F1160008F116000854
:10007000F1160008F1160008F1160008F116000844
:10008000F1160008F1160008F11600081922000800
:100090001D220008F1160008F1160008F1160008EC
:1000A000F1160008F1160008F1160008F116000814
:1000B000F1160008F1160008F1160008F116000804
:1000C000F1160008F1160008F1160008F1160008F4
:1000D000F1160008F1160008F1160008F1160008E4
:1000E000F1160008F1160008F116000800000000E3
:1000F0000000000000000000000000000000000000
:1001000000000000000000005FF808F108B51021B1
:10011000012001F013F8BDE808404FF4805102209F
:1001200001F026B8F8B55B4B1E8846B15A4B5B4AC6
:10013000981913F8011F834202F8011FF9D1584C96
:10014000584D6268A3681F2E6A60AB6040F0B880AB
:10015000E77B07F0FD03282B7ED0534B2268504EDF
:100160009A4213D0FFF7D2FF707B2022052101F0C5
:100170009BF94E4C4B4901230D2281202B732C609F
:1001800001F082FF4A4B05221A70F8BD494B707B83
:100190001B68984278D8B37B013B0F2B74D8AF2FE4
:1001A00000F2D880DFE807F0CAD6D6C6C2D6D6D6C7
:1001B0009AD69AD6D6D6D6D6D6D6BAD6D69AD6D6AF
:1001C000D6D6B29ED69A9ED6D6D6D6D2D6CED6D6AB
:1001D000A2D6AAD6D6D6D6B6D6D6D6D6D6D6D6D63F
:1001E000D6D6D6D6D6D6D6D6D6D6D6D6D6D6D6D6AF
:1001F000D6D6D6D6D6D6D6D6D6D6D6D6D69AD6D6DB
:10020000D6D6BED6D6D6D6D6D6D6D6D6D6D6D6D6A6
:10021000D6D6D6D6D6D6D6D6D6D6D6D6D6D6D6D67E
:10022000D6D6D6D6D6D6D6D6D6D6D6D6D6D6D6D66E
:100230009AD69AD6D6D6D69AD6D6D6D6D6D6D6D612
:10024000D6D6D6D6D6D69AD6D6D6D6D6D6D6D6D68A
:100250009AD69AD6D6D6D69AA37C607C1A04217DEB
:10026000E38A42EA0062E67C0A4313485BBA134918
:1002700042EA06229BB202600B6022680A4B084EDB
:100280009A427FF46FAF81E7FFF740FF607B242243
:100290006CE700BFB4010020CF01002093010020D3
:1002A00094010020BC010020555342435553425352
:1002B000B601002060010020B8010020CC01002020
:1002C000FFF724FF0023607B1A220521236001F041
:1002D000EBF8224C012329460D224EE7BDE8F840F9
:1002E00001F03EB9BDE8F84001F0E4B81C4B1D4AEE
:1002F00019681268BDE8F84001F088B9184B194A2E
:1003000019681268BDE8F84001F0BCB9BDE8F840D2
:1003100001F0B2B8BDE8F84001F0D0B8BDE8F8404F
:1003200001F01AB8BDE8F84001F0ACB8BDE8F840FB
:1003300001F000B9BDE8F84001F0AAB8BDE8F84006
:1003400001F0DEB8BDE8F84001F05CB8BDE8F84067
:1003500001F022B8FFF7DAFE607B06E755534253FF
:10036000B8010020CC01002070B51B4C1B490220B5
:10037000E67B01F09DFE1A4D1A4A2B781080EBB1F6
:10038000012B07D12A2E1DD04FF48051022000F0FE
:10039000EFFE01E0FFF7BAFE607B2422052101F0A9
:1003A00083F8114B114E194602240D2281201E6044
:1003B0001C7301F069FE05232B7070BDBDE8704011
:1003C000FFF7B0BE0A4A0B4B607B12681968BDE8A4
:1003D000704001F057B900BF94010020D001002007
:1003E000B6010020B4010020BC0100205553425347
:1003F000CC010020B801002038B50C460146224649
:10040000812001F041FE3021012000F097FE054BD4
:10041000054A996800250320091B1D731070996017
:1004200038BD00BFBC010020B601002038B50C4625
:100430000A4B0B4D187319460D2281201D6001F0E7
:1004400023FE084B14B905221A7038BD04221A7015
:1004500030210120BDE8384000F070BEBC01002012
:1004600055534253B601002008B5154A1378023B94
:10047000032B1BD8DFE803F0160B020200231370D6
:100480004FF440510220BDE8084000F071BE012148
:100490000020FFF7CBFFBDE808404FF44051022099
:1004A00000F066BE074BDA7B282A00D008BD064A5A
:1004B0000649587B12680968BDE8084001F0A6B8F3
:1004C000B601002094010020CC010020B8010020DA
:1004D000012809D004D3022801D1FFF717BE7047C5
:1004E0001021012000F02ABE4FF48051022000F0BC
:1004F0003FBE00BF08B538B1064B1B681B68984764
:10050000054B18680A3008BD034B01221B681A828C
:1005100008BD00BF600A0020640A002008B538B199
:10052000064B1B689B689847054B18680C3008BD44
:10053000034B01221B681A8208BD00BF600A00201D
:10054000640A002008B51F4B002832D01E481A68E4
:1005500000210180137813F07F0316D0012B27D0E0
:10056000022B24D1527902F00F039B0003F1804348
:1005700003F5B84312061B681FD403F44053B3F5C8
:10058000805F0ED1012303700BE0527A930654BFB3
:100590000378022351064CBF43F0010323F001030B
:1005A00003700A4B1B681B699847074808BD08463B
:1005B00008BD1B6802221A8208BD03F03003102B0D
:1005C000EFD1DFE7640A002010020020600A00205B
:1005D0002DE9F041244F3C68258A2DB9267A042E56
:1005E0002AD0A38A042603E0A38A9D42FAD90226D0
:1005F0009D4228BF1D46A369284698478046002093
:1006000000F07EFE2A460146404601F04DFE294696
:10061000002000F011FE638A228A1449521B1D44F7
:10062000134B2282658230204FF440523C68088090
:100630001A802672BDE8F0810E4B1A78012A06D086
:100640000A4B0726102226721A80BDE8F0810A495B
:100650000A4A0968054889B20A44520030211580C7
:1006600055801D700180E4E7640A00201402002018
:10067000120200205C010020505C0040023000208B
:100680000B4B0C4A1B685178DA78914201D2022058
:10069000704799780029FAD110B59C880CB10220D6
:1006A00010BD05499A720B685B689847204610BDDB
:1006B000640A0020A8000020600A002038B5104A13
:1006C000104C12682368D978587993699847236841
:1006D0009A7A0AB9022038BD0028FBD11A79002A7B
:1006E000F8D19D78002DF5D1074B1B68DB68984742
:1006F000236828465979DA78D9721A7338BD00BF51
:100700003C0A0020640A0020600A002038B5314B02
:100710001B68187810F07F0003D0022806D0022052
:1007200038BD5A7A22F020025A7238BD5A88002AFF
:10073000F6D11A79002AF3D15A7922F08000840088
:10074000150604F18041244D01F5B84109682D7862
:100750004CBF01F0300101F44051A842DFD2002922
:10076000DDD09B7A002BDAD004F1804404F5B84444
:100770001206236809D503F03003102B1ED0174B47
:100780001B685B699847002038BD03F44053B3F5FC
:10079000805FF4D1D8B9124B93F82C1000F05AFDB9
:1007A000236823F4804323F070039BB283F4405307
:1007B00043F4004343F080032360E0E7C4B22046E3
:1007C00000F028FD2046302100F0B8FCD7E700F00B
:1007D0000FFDE5E7640A0020A8000020600A002061
:1007E0001C00002038B5224B1868427922F08001A5
:1007F0008C00150604F180431E4D03F5B8431B68B9
:100800002D784CBF03F0300303F44053A94201D3C9
:10081000022038BD41880029FAD1002BF8D0837A14
:10082000002BF5D004F1804404F5B8441206236887
:1008300011D523F4E04323F040039BB283F010036F
:1008400043F4004343F0800323600B4B1B689B6918
:100850009847002038BD23F4804323F070039BB2F7
:1008600083F4805343F4004343F080032360ECE7B8
:10087000640A0020A8000020600A0020054B1B68C5
:100880005A8A10B108681044704789888A1A1A82F7
:10089000704700BF640A002010B50C4B002093F88D
:1008A0002C1000F0D7FC0A4B1B68187A082806D1D8
:1008B0000849094B4FF4805410220C801A80A0F193
:1008C0000900B0FA80F0400910BD00BF1C000020F4
:1008D000640A0020120200201402002070B5A94E04
:1008E000A94B34681A68237A82B0092B3BD0A74BF6
:1008F00092B213445B001D68ADB26D0005F18045F6
:1009000005F5C0452B7823706B786370A88800F0DC
:100910001DFD60802889346800F018FDA080AB8937
:1009200034680122E380227213B3607806287ED0F7
:10093000002839D16188002900F09280944D2B68FD
:100940001B699847032800F0E2804FF6FF72346875
:10095000238A93427ED0022836D108232372FFF7E0
:100960009BFF02B070BDE38801222272002BDCD114
:100970002378657813F07F0332D0012B00F0BA8022
:10098000022B00F0DD80824B28461B685B6998478C
:10099000032800F01281346800283AD0082323721B
:1009A000FFF77AFF02B070BD08286BD123785B0691
:1009B000C4D1784B0020A361608298474FF6FF7244
:1009C0003468238A934245D0002BC6D094F9002086
:1009D000002A7ADB704A4FF4405103231180DEE78E
:1009E000092D00F0CB80052D00F09880032D00F03C
:1009F000B080012DC7D1E378012BC4D1A388002B8F
:100A0000C1D1637A9B06BED5FFF780FE0028BAD11C
:100A100034685D4A614B1268614992B213445B00CD
:100A2000002230201A805A8008800623B7E72378F6
:100A30005D0683D1A378564D012B00F0BB80022BBD
:100A400069D0032B7FF47BAF2B685B6A002BB1D19D
:100A5000062074E709232372FFF71EFF02B070BD62
:100A6000636823F47F43B3F5003F7FF467AF2078DA
:100A700010F07F0040F0A480A388002B7FF45EAFCD
:100A8000484B97E70A287FF459AF237803F07F0398
:100A9000012B7FF453AFA37A002B3FF44FAF618853
:100AA00000297FF44BAF6368394D23F47F43B3F5DE
:100AB000803F7FF444AF2B6860799B69984700289A
:100AC00040F0BD803468384B74E7E28801920199A8
:100AD0008B4215D893427AD22D4A126892F82C1084
:100AE0008AB2934278D2314B00211970A282FFF76B
:100AF0006FFD55E70B2D7FF446AFFFF7DFFD85E770
:100B0000234B019A1B68228293F82C20EEE733686E
:100B100009221A7244E72B681B6A97E794F903309D
:100B2000002BFFF63BAFA378002B7FF437AFA388F1
:100B3000002B7FF433AFA37A002B3FF46AAF2DE78D
:100B4000012D3FF461AF032D7FF41DAFFFF74AFE87
:100B50005CE7E378012B7FF416AFA388002B7FF4CA
:100B600012AF637A9A067FF50EAF114A43F0200365
:100B700012686372D369984734684AE7FFF780FDCB
:100B800044E700BF640A0020505C004004300020AD
:100B90003C0A0020F5040008120200200230002068
:100BA00014020020450500081D0500085C01002016
:100BB000600A00202B68DB6948E734680923EEE609
:100BC00001282FD0022811D008461E4DB7E61D4B34
:100BD0001B6893F82C2089E793FBF1F001FB10339D
:100BE000002B83D1184B012119707FE7607900F049
:100BF0000F029300010603F18043144903F5B84343
:100C00001B6809784CBF03F0300303F440538A4259
:100C100006D210F0700003D1002B7FF431AF8DE6C7
:100C200000208BE6074D60792B689B69984730B9A7
:100C30003468A37A002B7FF423AF60787FE63368B3
:100C400058787CE63C0A00205C010020A8000020C7
:100C5000F8B5304D2C68237A022B07D0042B05D031
:100C6000032B09D0052B07D0072B33D00823237281
:100C7000BDE8F840FFF710BEA369228AB3B1B2B154
:100C8000A68A964228BF164630469847228A638A2B
:100C9000921B3344074622826382002000F042FB0D
:100CA00032460146384601F013FB228ACAB9A38AAC
:100CB00033B319492C680622184B22721A68184B54
:100CC00092B213445B0000221A805A803022237AA9
:100CD0000A80CCE7134B1B68DB6898472C68082315
:100CE000C5E7114B00214FF4405208461A8000F02E
:100CF000A3FA238AA28A084930209A42088003D89E
:100D00002C6803232372B2E7002BD3D02C68052371
:100D10002372ACE7640A002014020020505C0040FB
:100D2000023000203C0A002012020020F8B5234CBB
:100D300023681A7A022A17D0042A15D0062A05D069
:100D400008221A72BDE8F840FFF7A6BD5A78052AB6
:100D500013D01B4B1B689B689847236808221A72A4
:100D6000BDE8F840FFF798BDFFF732FC23681A7A18
:100D70001A72BDE8F840FFF78FBD1A7812F07F02B3
:100D8000E7D11049DF780E7876B10F4840F60F733F
:100D9000056842F400412B4041F0800101320B43D1
:100DA000964240F8043BF1D1084B094A1B6847F0D2
:100DB000800717601B6A9847CBE700BF640A0020D2
:100DC0003C0A0020A8000020005C0040600A0020CF
:100DD0004C5C004070B40C4B1E787EB10B4C002272
:100DE00040F60F73256842F400412B4041F080012A
:100DF00001320B43964244F8043BF1D1044B40F0DE
:100E00008000186070BC7047A8000020005C0040A3
:100E10004C5C0040704700BF2DE9F043002385B0D3
:100E2000DFF86491DFF86C81534EADF80E30D8F8DE
:100E30000030524C9AB213F4004F514F514DA9F863
:100E4000002051484C4900F08A80038803F00F03CA
:100E50009A0002F1804202F5B8422B70002B2FD18C
:100E60004BF6BF73226892B23280328802F03002B1
:100E70003A80328802F4405232802268134083F470
:100E8000005383F0200343F4004343F080032360C6
:100E90000388D8063CD523689BB2ADF80E30BDF868
:100EA0000E301A055ED4BDF80E301B04BFD540F6D7
:100EB0008F732268019113402360FFF7C9FE2FE072
:100EC000116889B2ADF80E10BDF80E10090414D4E3
:100ED000BDF80E301B06AAD548F60F712A782B48AC
:100EE000930003F1804303F5B8431C68013A2140A5
:100EF000196050F82230984799E740F68F711468CE
:100F000023482140013B50F8233011609847DFE728
:100F100048F60F732268019113402360FFF706FF24
:100F20004BF6BF73019920680A880340D6040A88EB
:100F300048BF83F4805395043A8848BF83F4005334
:100F4000D4063A8848BF83F01003900648BF83F068
:100F5000200343F40043094A43F08003136005B0C3
:100F6000BDE8F08340F68F7322680191134023603F
:100F7000FFF7B4FCD4E700BF12020020005C004081
:100F800014020020400A00206A0A002040010020CC
:100F900024010020445C0040F8B5174D174C2F4643
:100FA000174E23689AB21B042A8023D547F6FF7395
:100FB00023603A8802F00F02930003F180433270FD
:100FC00003F5B843196808040ED40906E9D548F6B4
:100FD0000F71D3F800E00B480EEA0101013A50F816
:100FE000222019609047DCE740F68F71D3F800E0CB
:100FF0000548F1E7F8BD00BF6A0A0020445C0040E4
:10100000400A002040010020240100203C4B30B465
:1010100018683C4940F0010018605D6882B02940C2
:1010200059601968002021F0847121F48031196021
:1010300019684FF41F0421F48021196059681A4679
:1010400021F4FE0159609C6000900190196841F400
:101050008031196003E0009BB3F5A06F09D01368DD
:1010600003F400330193009B01330093019B002B99
:10107000F1D0234B1B6813F4003318BF01230193F5
:10108000019B012B06D0204B4FF000629A6002B00A
:1010900030BC70471D4A1A4B1068194640F01000CA
:1010A0001060106820F003001060106840F002002B
:1010B00010605A685A605A685A605A6842F48062EE
:1010C0005A605A6822F47C125A605A6842F4E81254
:1010D0005A601A6842F080721A600B68084A9B01D5
:1010E000FBD51146536823F003035360536843F064
:1010F000020353604B6803F00C03082BFAD1C2E7DC
:10110000001002400000FFF800ED00E00020024067
:101110004FF6F873014A034013607047505C00407B
:10112000800000F1804000F5B840036823F4EC43F0
:1011300023F07003194389B201607047800000F109
:10114000804000F5B8400368CA0623F4E04323F06A
:1011500040039BB248BF83F010038A0648BF83F068
:10116000200343F4004343F080030360704700BF53
:10117000800000F1804000F5B8400368CA0423F401
:10118000804323F070039BB248BF83F480538A04EA
:1011900048BF83F4005343F4004343F080030360EB
:1011A000704700BF800000F1804000F5B840036840
:1011B00023F4804323F070039BB283F4405343F441
:1011C000004343F080030360704700BF40F60F62A6
:1011D000800000F1804000F5B8400368134043F4FC
:1011E000004343F080030360704700BFFFF7EEBF8A
:1011F000800000F1804000F5B84003685B0408D52A
:1012000040F60F730268134043F4404343F08003F9
:1012100003607047800000F1804000F5B84003682B
:101220005B0608D540F60F730268134043F4004391
:1012300043F0C00303607047044A054B126892B242
:1012400002EBC00003445B0019607047505C004033
:10125000023000200E4A0F4B12683E2992B202EB78
:10126000C00003444FEA43030AD94A09C80604BF31
:1012700002F1FF3292B2920242F400421A607047C9
:101280004A08C90748BF013292021A60704700BF7E
:10129000505C004006300020064B49081B6849009E
:1012A0009BB203EBC00000F1005000F5405040003D
:1012B00001607047505C0040FFF7EEBF054A064BE7
:1012C0001268490892B202EBC000034449005B0077
:1012D00019607047505C004004300020FFF7EEBFFB
:1012E000064B1B689BB203EBC00000F1005000F5F9
:1012F00040504000006880B2704700BF505C004022
:10130000FFF7EEBF054A064B126892B202EBC0002F
:1013100003445B00186880B2704700BF505C004017
:1013200004300020FFF7EEBF054A064B126892B268
:1013300002EBC00003445B001868C0F3090070476B
:10134000505C004006300020FFF7EEBFC3B2000A39
:1013500040EA0320704700BF0B4B1A7CD2070ED423
:10136000D97C0A4A0A4B00280CBF1846104624298B
:1013700002D889B2FFF740B82421FFF73DB82A21EF
:101380000448FFF739B800BF94010020D8000020BE
:10139000FC0000208C010020F8B5044600F0C0FDE0
:1013A000D0B9144B144953F8242051F82440134B5E
:1013B000110E4FEA124E170A260C250A1971DA711E
:1013C00083F805E09F71DC725E729D721846BDE87D
:1013D000F8400C21FFF710B8094B012102243A22F2
:1013E00008469C701A73FFF721F8BDE8F84000200A
:1013F000FFF76EB8300A0020280A0020AC00002059
:10140000B8000020F8B5044600F08AFDE8B9164B94
:10141000164953F8242051F82440154B013A100E78
:10142000110C4FEA122E270E260C250A187059703F
:10143000DA7083F802E0DC711F715E719D711846ED
:10144000BDE8F8400821FEF7D7BF0A4B012102246E
:101450003A2208469C701A73FEF7E8FFBDE8F84090
:101460000020FFF735B800BF300A0020280A00200E
:1014700084010020B800002004210148FEF7BCBF11
:10148000D400002008210148FEF7B6BFCC000020A0
:10149000034B0448D97C122928BF1221FEF7ACBFA8
:1014A00094010020B8000020014B99701A73704716
:1014B000B800002001210020FEF7B8BF0E4B10B588
:1014C0009A682AB91B7C03F0040303F0FF006BB198
:1014D0000220FEF7FDFF094B052424229C701A739D
:1014E00000210120BDE81040FEF7A0BF0121BDE8AA
:1014F0001040FEF79BBF00BF94010020B800002001
:1015000010B500F00DFD20B9BDE810400121FEF737
:101510008DBF074B012102243A2208469C701A73A2
:10152000FEF784FFBDE810400020FEF7D1BF00BFEA
:10153000B800002010B500F0F3FC00B910BD074B57
:10154000012102243A2208469C701A73FEF76EFFAE
:10155000BDE810400020FEF7BBBF00BFB800002070
:101560000C4B10B59A688AB193F90C30002B0DDB47
:101570000220FEF7ADFF084B052420229C701A7351
:1015800000210120BDE81040FEF750BF0020FEF70B
:101590009FFFF0E794010020B800002010B5174C21
:1015A0001A4454F82040A2420FD92A2922D0002000
:1015B000FEF78EFF124B05242122002101209C7092
:1015C0001A73FEF733FF002010BD0E4A0E4C52F87E
:1015D0002020A06802FB03F3984209D02A290CBFFF
:1015E00002200020FEF774FF0524054B2422E4E7C7
:1015F000012010BD0220FEF76BFFD8E7300A002063
:10160000B8000020280A0020940100202DE9F041B4
:10161000194D2C781CB1022C21D0BDE8F081DFF8E7
:10162000608007460E461346144698F80D000A4699
:101630002821FFF7B3FF0028EFD098F90C30002BDA
:1016400011DB0220FEF744FF0C4B0524242201216C
:101650009C701A730846BDE8F041FEF7E7BEBDE88E
:10166000F04100F007BB02232B702246314638467A
:10167000BDE8F04100F0FEBAB6010020B80000203D
:101680009401002070B5174D2C7814B1012C16D0A0
:1016900070BD154E1346707B0A462A21FFF77EFF68
:1016A0000028F5D096F90C30002B0CDB01232B70B1
:1016B0004FF440510220BDE87040FFF759BDBDE82E
:1016C000704000F03BBB2046FEF702FF074B21466F
:1016D000242205249C701A730120BDE87040FEF797
:1016E000A5BE00BFB601002094010020B800002074
:1016F000FEE700BF08B5104A104B9A420DD2D04306
:101700000F4918440B4620F003000430084453F8F6
:10171000041B834242F8041BF9D10A480A494FF0DE
:1017200000028842B8BF40F8042BFADBFFF76EFCDA
:10173000BDE8084000F028BC000000205C0100204B
:10174000F22300085C0100206C0A0020B2B10023E3
:1017500070B41E46541EE4B201346400020F092A1C
:1017600002F1300586BF3732CA54CD54CA1802334D
:10177000A3424FEA00105670F0D170BC704700BF12
:1017800008B5002000F03EFCBDE8084001214FF400
:10179000000000F04BBC00BF10B54FF4C06082B039
:1017A00000F042FD012401A814238DF804308DF8C7
:1017B00005408DF806408DF8074000F03FFD1322EC
:1017C000002301A88DF805408DF807408DF804200E
:1017D0008DF8063000F032FD02B010BD4FF480618C
:1017E00010B9034800F018B9014800F017B900BF5C
:1017F000000801400A4B0B490B4A1B6810B50C68E6
:101800001068181800D110BD08220849FFF79EFF84
:101810002046BDE8104004220549FFF797BF00BFEE
:10182000E8F7FF1FECF7FF1FF0F7FF1F0200002093
:101830001200002010B5012182B0042000F0E8FB66
:101840004FF480640322142301A90548ADF8044035
:101850008DF806208DF8073000F07CF802B010BD3E
:101860000008014008B5FFF7D1FBFFF7E3FFBDE833
:101870000840002000F0F6BA08B52F4B98421ED061
:101880002E4B984225D02E4B98422CD02D4B98426F
:1018900033D02D4B98423AD02C4B984241D02C4B10
:1018A000984200D008BD01214FF4807000F0CCFBBD
:1018B000BDE8084000214FF4807000F0C5BB012155
:1018C000042000F0C1FBBDE808400021042000F026
:1018D000BBBB0121082000F0B7FBBDE80840002198
:1018E000082000F0B1BB0121102000F0ADFBBDE8E5
:1018F00008400021102000F0A7BB0121202000F0AB
:10190000A3FBBDE808400021202000F09DBB012181
:10191000402000F099FBBDE808400021402000F085
:1019200093BB0121802000F08FFBBDE8084000211F
:10193000802000F089BB00BF00080140000C01407E
:10194000001001400014014000180140001C01403B
:10195000002001402DE9F041CC78E30648BF8B78A8
:10196000098804F00F0748BF1F4311F0FF0F21D073
:10197000066800234FF0010E4FF00F0802E001331C
:10198000082B16D00EFA03F232EA0105F7D19D00BA
:1019900008FA05FC26EA0C0607FA05F5282C46EAA3
:1019A000050631D0482C03F1010308BF0261082B62
:1019B000E8D10660FF2923D9466800234FF0010EC5
:1019C0004FF00F0802E00133082B18D003F1080292
:1019D0000EFA02F232EA0105F5D19D0008FA05FC83
:1019E00026EA0C0607FA05F5282C46EA050609D072
:1019F000482C03F1010308BF0261082BE6D14660C1
:101A0000BDE8F0814261DEE74261B8E783681942D0
:101A100014BF012000207047016170474161704789
:101A2000014B04221A60704780010020704700BFFC
:101A300009B102207047002814BF0220002070471F
:101A400008B103487047034B01221B681A82704794
:101A500060010020640A002010B5FFF7CBFE054BA3
:101A600000241B689C7200F0E5F900F0FBFA024BC1
:101A70001C6010BD640A00208001002038B5314A86
:101A8000314BD2791B68314900248C7220465A723E
:101A9000FFF73EFB20464FF40071FFF741FB2C4D52
:101AA00020462021FFF74AFB20461821FFF716FCAD
:101AB00095F82C102046FFF7CDFB58212046FFF764
:101AC000FBFB2046FFF792FB2046FFF76BFB21460E
:101AD0000120FFF725FB98210120FFF7EDFB2021D6
:101AE0000120FFF72BFB21460120FFF741FB214698
:101AF0000220FFF715FBD8210220FFF7EFFB95F836
:101B00002C100220FFF7A6FB4FF440510220FFF7F4
:101B10002FFB21460220FFF711FB95F82C102046E1
:101B2000FFF798FB2046FFF73DFB0A4D2046FFF7E5
:101B300051F90949094B0A4A01202C7008601A60C2
:101B400038BD00BFC0230008640A0020440A0020FA
:101B50001C000020B601002080010020940100201C
:101B600055534243044A054B12689A4202D0022060
:101B7000FEF7AEBC704700BF9401002055534243AE
:101B80000149FEF77BBE00BF4C0000200149FEF773
:101B900075BE00BF54000020054B1B68DB78052B89
:101BA00004D8044901EBC301FEF768BE002070476A
:101BB000640A00205C00002008B5084B1B689B7A73
:101BC0005BB1074B052201201A60FFF723FB0220BF
:101BD000FFF70EFB034B00221A7008BD640A0020B9
:101BE00080010020B60100200F4B1A68137803F023
:101BF0007F03212B01D002207047FF28FBD153889F
:101C0000002BF8D110B554680CB1022010BD012092
:101C1000FFF700FB0220FFF7EBFA044B044A0549EB
:101C20001C701160204610BD640A0020B60100201F
:101C30009401002055534243704700BF0B4B1A6874
:101C4000137803F07F03212B01D002207047FE2878
:101C5000FBD150880028F8D15368B3F5803FF4D108
:101C6000034901235082916113827047640A002066
:101C7000411A0008F8B52B4C2378002B39D12A4B98
:101C8000012553F82030257001FB03F102FB03F21C
:101C90006160A260E3680546224E002B2DD0234DE3
:101CA00023492B6840221944812000F0EDF9F368A4
:101CB000403BF3602B6840332B6040210120FFF74D
:101CC000BBFA30210120FFF739FA1A4862688168AF
:101CD000A36840394032403B81606260A3603BB9F9
:101CE0001248154A0321E36063602370036011709A
:101CF000F8BD012BCED0A368F1E70B4F0C4A37F8A3
:101D00002030716800F0F2F840220949812000F08B
:101D1000BBF957F82530054A403B4021F36011607C
:101D2000CBE700BF64010020280A00201802002031
:101D300020020020BC010020B60100202DE9F84F50
:101D4000344C23782569002B48D1334E012356F8B3
:101D50002090237001FB09F102FB09F26161A2618D
:101D6000236905F1400EDFF8C8A000259E45CAF89A
:101D7000005013D9294EDFF8B480C6F1010C276951
:101D800025690CEB060301352561256916F801BFAD
:101D9000AE4508F807B0F2D8CAF80030204D1D4F04
:101DA0002B88D21AB2FBF9F609FB16261944A26158
:101DB0006161F6B11B4D4FF44051AA680220D31A5D
:101DC000AB60FFF7D5F9A3696BB90025284601215F
:101DD0002561FEF72BFB2570BDE8F88F012B12D093
:101DE000A369002BF1D0104B1B78042BEDD0BDE87C
:101DF000F88F1FFA89F3C9EB01010C4A3E6100F02C
:101E00003BF82B88D6E7044B616953F82090A26910
:101E1000A6E700BF64010020280A0020CF010020AF
:101E2000B4010020BC010020B601002020020020E7
:101E30001C02002038B50120FFF7D0FC064D074BEF
:101E4000074C00224FF4E051012018601A60104640
:101E50002A602180196038BD445C0040405C00402D
:101E6000680A002008B10120704710B5044600F050
:101E70003DF9204610BD00BF20B110F1FF3018BF62
:101E80000120704773B3F8B51E461746044601F1AA
:101E9000006505F52055144800F0AAF905284FF013
:101EA000340001D000F024F9601904F58064A4B274
:101EB00000F07EF9A642EED800240B4800F098F915
:101EC00005284FF0340001D000F012F9A308601982
:101ED000043457F82310A4B200F036F9A642ECD827
:101EE0000020F8BD00207047A086010020B110F14D
:101EF000FF3018BF0120704783B130B401F1006199
:101F000001F520518408043051F8245080B28342F6
:101F100042F82450F6D8002030BC704700207047AB
:101F200068B970B40749084D084B36264FF48064F1
:101F30004FF458422E600C601A6070BC704701204C
:101F4000704700BF280A0020300A0020200A002025
:101F500070B4074A074E084C084B02250849094847
:101F60001572236032601B68086070BC184700BFA0
:101F7000440A0020640A00203C0A00201C000020C3
:101F8000600A00208400002010B5012182B00820E2
:101F900000F03EF80224482301A915488DF80730C7
:101FA000ADF804408DF80640FFF7D4FC21461048F8
:101FB000FFF72CFD01280CD0FFF754FCFFF7E0FBE6
:101FC000FFF7EAFBFFF7C4FF0A4B1A68052AFCD1AA
:101FD000FEE70748FFF750FC0749084B084A12681C
:101FE0008B601B6883F308889047002002B010BD07
:101FF000000C01408001002000ED00E000280008F6
:1020000004280008014B1860704700BFD800424206
:1020100029B9054A936923EA000090617047024B91
:102020009A691043986170470010024029B9054A27
:10203000D36923EA0000D0617047024BDA6910438C
:10204000D86170470010024029B9054AD36823EAD5
:102050000000D0607047024BDA681043D8607047C8
:102060000010024010B40549054C064A00204FF408
:10207000044320600B8010BC13607047680A002086
:10208000445C0040405C004070B500F07F051446A1
:1020900028460E46FFF734F9A4B2014622463046E0
:1020A00000F002F928462146FFF7C6F8002070BD6F
:1020B00070B500F07F0528460E46FFF745F9044647
:1020C0002846FFF72FF922460146304600F000F976
:1020D000204670BD024B0349034A59605A6070475D
:1020E0000020024023016745AB89EFCDFFF7F2BF27
:1020F000014BD860704700BF00200240084BDA68EF
:10210000D1070BD4DA68520701D502207047DB688B
:1021100013F0100F14BF03200420704701207047F4
:102120000020024010B50446FFF7E8FF012806D161
:102130003CB1FFF7E3FF012804F1FF34F8D004B10C
:1021400010BD052010BD00BF70B5002382B005464C
:102150004FF400500C460193FFF7E4FF042801D030
:1021600002B070BD114EA3B232694FF4005042F07C
:10217000010232612B80FFF7D5FF042806D041F61B
:10218000FE7332691340336102B070BD02350195B0
:10219000019B240C1C804FF40050FFF7C3FF41F655
:1021A000FE73326913403361DAE700BF002002405A
:1021B00038B505464FF43020FFF7B4FF042800D0AF
:1021C00038BD0A4C4FF43020236943F002032361E9
:1021D0006561236943F040032361FFF7A3FF41F6E4
:1021E000FD7322691340236138BD00BF0020024007
:1021F000FFF798BF704700BFFEE700BFFEE700BFD4
:10220000FEE700BFFEE700BF704700BF704700BF9A
:10221000704700BF704700BFFEF7BEBE00F068B851
:10222000FEF722B9FEF7A0B840F0BF60024B40F4C1
:102230000030D860704700BF00ED00E0C3785BB9A4
:10224000037801215A09164803F01F03203201FACE
:1022500003F340F822307047124B30B4D9688278CB
:10226000C9434478C1F302210F23C1F10405CB40D7
:10227000AC401340027823431B0102F16042DBB201
:1022800002F5614282F800330378012203F01F0057
:1022900003495B09824041F8232030BC704700BFEE
:1022A00000E100E000ED00E0013252100ED010B469
:1022B00001F1005101F540514900002330F8024B73
:1022C00021F8234001339A42F8D110BC704700BF77
:1022D00001F10051013201F5405152104FEA410124
:1022E00005D051F8043B013A20F8023BF9D1704780
:1022F0000F4B70B51B680F4C9BB20F4D238023888A
:102300002A8813401B040ED4238803F480631A42E6
:1023100000D170BD4FF6FF31BDE87040044A074B55
:1023200011605B681847FEF777FD2A88ECE700BF6D
:10233000445C00406A0A0020680A00201C0000205B
:1023400010035300540020004D006100730073001F
:1023500046034D0075006C007400690020004D00BC
:10236000650064006900610020004400650076009B
:1023700065006C006F0070006D0065006E007400F9
:10238000200042006F0061007200640020005600CF
:1023900031002E0030000000220357005700570084
:1023A0002E0050006F007700650072004D00430062
:1023B00055002E0043004F004D00000004030904A7
:1023C00009022000010100C03209040000020806D1
:1023D000500407058102400000070502024000008A
:1023E0001201000200000040830420570002010295
:0223F0000301E7
:1023F2001A03530054004D00330032003100300004
:10240200000000000000000000000000591A00084F
:102412007D1A0008391C00082D1A00083D1C00080E
:10242200E91B0008311A0008811B00088D1B0008F7
:10243200991B00080000000040000000E023000893
:1024420012000000C023000820000000BC23000886
:102452000400000098230008220000005023000816
:1024620046000000000000201A000000402300087F
:1024720010000000150E0008B91B0008150E000818
:10248200150E0008150E0008651B0008150E000841
:10249200150E0008211A00080301000000000008C0
:1024A2000000000002000000700000000000000AAE
:1024B2000000000000000000000000000006000014
:1024C2000000000003000000008002022000000063
:1024D200417669736C61622053544D33322D426FE1
:1024E2006F746C6F61646572207631200080020225
:1024F20020000000417669736C61622053544D33B1
:10250200322D426F6F746C6F6164657220312E30B0
:1025120020000000150E000825220008150E0008F4
:10252200150E0008150E0008150E0008150E0008FD
:1025320021220008150E0008150E0008150E0008CD
:0C254200150E0008150E0008150E00080C
:0400000508000000EF
:00000001FF
