:020000040800F2
:100000000004002049050008A9050008A90500080A
:10001000A9050008A9050008A905000800000000BE
:10002000000000000000000000000000A90500081A
:10003000A905000800000000A9050008A90500089E
:10004000A9050008A9050008A9050008A9050008D8
:10005000A9050008A9050008A9050008A9050008C8
:10006000A9050008A9050008A9050008A9050008B8
:10007000A9050008A9050008A9050008A9050008A8
:10008000A9050008A9050008A9050008A905000898
:10009000A9050008A9050008A9050008A905000888
:1000A000A9050008A9050008A9050008A905000878
:1000B000A9050008A9050008A9050008A905000868
:1000C000A9050008A9050008A9050008A905000858
:1000D000A9050008A9050008A9050008A905000848
:1000E000A9050008A9050008A905000800000000EE
:1000F0000000000000000000000000000000000000
:1001000000000000000000005FF808F180B485B036
:1001100000AF786039600023FB817B681B88FB811E
:100120007B682E4A934213D07B682D4A93420FD0AE
:100130007B68B3F1804F0BD07B682A4A934207D08B
:100140007B68294A934203D07B68284A934208D1AE
:10015000FB8923F07003FB813B685A88FB891343BA
:10016000FB817B68224A93420CD07B68214A9342F0
:1001700008D0FB8923F44073FB813B68DA88FB8954
:100180001343FB817B68FA891A803B689A887B68F5
:100190009A853B681A887B681A857B680F4A934268
:1001A0000FD07B680E4A93420BD07B68124A934271
:1001B00007D07B68114A934203D07B68104A934270
:1001C00004D13B681B7A9AB27B681A867B6801224D
:1001D0009A8200BF1437BD4680BC7047002C014096
:1001E000003401400004004000080040000C0040C2
:1001F0000010004000140040004001400044014055
:100200000048014080B485B000AF786039600023B9
:100210007B810023FB810023BB817B681B8C9BB20D
:1002200023F001039AB27B681A847B681B8CFB81E4
:100230007B689B88BB817B681B8B7B817B8923F0E0
:1002400070037B817B8923F003037B813B681A88E1
:100250007B8913437B81FB8923F00203FB813B688D
:100260001A89FB891343FB813B685A88FB89134336
:10027000FB817B68244A93420FD07B68234A9342D8
:100280000BD07B68224A934207D07B68214A934275
:1002900003D07B68204A934223D1FB8923F00803D3
:1002A000FB813B685A89FB891343FB81FB8923F05F
:1002B0000403FB813B689A88FB891343FB81BB895C
:1002C00023F48073BB81BB8923F40073BB813B683B
:1002D0009A89BB891343BB813B68DA89BB89134385
:1002E000BB817B68BA899A807B687A891A833B686C
:1002F000DA887B689A867B68FA891A8400BF14378B
:10030000BD4680BC704700BF002C01400034014056
:1003100000400140004401400048014080B483B0E7
:1003200000AF78607B684FF6FF729A807B6800228E
:100330001A807B680022DA807B6800225A807B6802
:1003400000221A7200BF0C37BD4680BC704700BF48
:1003500080B483B000AF78607B6800221A807B682D
:1003600000225A807B6800229A807B680022DA8013
:100370007B6800221A817B6800225A817B680022F8
:100380009A817B680022DA8100BF0C37BD4680BCB1
:10039000704700BF80B483B000AF78600B46FB703D
:1003A000FB78002B08D07B681B889BB243F00103CD
:1003B0009AB27B681A8007E07B681B889BB223F0A7
:1003C00001039AB27B681A8000BF0C37BD4680BC1F
:1003D000704700BF80B500AF154A154B1B6843F04E
:1003E000010313601249124B5A68124B13404B60C1
:1003F0000F4A0F4B1B6823F0847323F48033136080
:100400000B4A0B4B1B6823F480231360084A084BEC
:100410005B6823F4FE035360054B4FF41F029A60A0
:1004200000F00CF8044B4FF000629A6000BF80BDF2
:10043000001002400000FFF800ED00E080B500AFC2
:1004400000F002F800BF80BD80B483B000AF00238D
:100450007B6000233B603A4A394B1B6843F480338E
:100460001360374B1B6803F400333B607B68013338
:100470007B603B68002B03D17B68B3F5A06FF0D1A4
:100480002F4B1B6803F40033002B02D001233B6089
:1004900001E000233B603B68012B4BD1294A294BEB
:1004A0001B6843F010031360264A264B1B6823F099
:1004B00003031360234A234B1B6843F002031360BA
:1004C0001F4A1F4B5B6853601D4A1D4B5B6853609E
:1004D0001B4A1B4B5B6843F480635360184A184BFC
:1004E0005B6823F47C135360154A154B5B6843F437
:1004F000E8135360124A124B1B6843F08073136079
:1005000000BF0F4B1B6803F00073002BF9D00C4A9F
:100510000B4B5B6823F003035360094A084B5B688D
:1005200043F00203536000BF054B5B6803F00C030C
:10053000082BF9D100BF0C37BD4680BC704700BF07
:10054000001002400020024080B582B000AF114B85
:100550007B60114B3B6007E03B681A1D3A607A688C
:10056000111D796012681A603B680C4A9342F3D3FC
:100570000B480C494FF000028842B8BF40F8042BEA
:10058000FADBFFF727FF00F0FDF800BF0837BD4694
:1005900080BD00BF200900080000002000000020EE
:1005A000000000200000002080B400AFFEE700BF84
:1005B00080B489B000AF786039600023FB6100230C
:1005C0003B610023BB610023FB6000237B610023B0
:1005D000BB603B68DB7803F00F03FB613B68DB78B3
:1005E00003F01003002B05D03B689B781A46FB698B
:1005F0001343FB613B681B88DBB2002B44D07B6854
:100600001B687B610023BB6138E00122BB6902FAF1
:1006100003F3FB603B681B881A46FB6813403B6191
:100620003A69FB689A4226D1BB699B00FB600F22A6
:10063000FB6802FA03F3BB60BB68DB437A691340D3
:100640007B61FA69FB6802FA03F37A6913437B6101
:100650003B68DB78282B05D10122BB699A407B6877
:100660005A6108E03B68DB78482B04D10122BB6962
:100670009A407B681A61BB690133BB61BB69072B78
:10068000C3D97B687A691A603B681B88FF2B46D9FF
:100690007B685B687B610023BB613AE0BB69083320
:1006A000012202FA03F3FB603B681B881A46FB68D1
:1006B00013403B613A69FB689A4227D1BB699B00B2
:1006C000FB600F22FB6802FA03F3BB60BB68DB43ED
:1006D0007A6913407B61FA69FB6802FA03F37A696D
:1006E00013437B613B68DB78282B05D1BB6908335A
:1006F00001229A407B685A613B68DB78482B05D120
:10070000BB69083301229A407B681A61BB690133D7
:10071000BB61BB69072BC1D97B687A695A6000BF8E
:100720002437BD4680BC704780B483B000AF78608A
:100730007B684FF6FF721A807B6802229A707B6892
:100740000422DA7000BF0C37BD4680BC704700BF82
:1007500080B485B000AF78600B467B800023FB73CC
:100760007B689A687B881340002B02D00123FB73BF
:1007700001E00023FB73FB7B18461437BD4680BCA9
:10078000704700BF80B58AB000AF00237B620121B3
:10079000042000F089F80121082000F085F80121EB
:1007A000042000F09FF807F11C031846FFF7BCFF78
:1007B0004823FB770323BB830223BB7707F11C038A
:1007C00019463648FFF7F4FE07F11C031846FFF7F9
:1007D000ABFF1823FB774023BB830223BB7707F1D2
:1007E0001C0319462E48FFF7E3FE07F110031846D5
:1007F000FFF794FD4FF434733B824FF47A73BB825E
:100800000023FB8200237B8207F110031946254851
:10081000FFF77CFC3B461846FFF79AFD0A23FB8056
:1008200060233B8001237B8000233B813B461946AC
:100830001C48FFF7E7FC01211A48FFF7ABFD012137
:100840001648FFF785FF0346002B0AD17B6AB3F5F4
:100850007A7F02DA7B6A01337B62124B7A6A92B248
:100860009A8602210D48FFF773FF0346002B09D13A
:100870007B6A002B02DD7B6A013B7B62094B7A6A53
:1008800092B29A8600233B6202E03B6A01333B62EC
:100890003B6AB3F5803FF8DBD1E700BF00080140B9
:1008A000000C01400008004080B483B000AF7860C5
:1008B0000B46FB70FB78002B06D00949084B9A6960
:1008C0007B6813438B6106E00549054B9A697B6899
:1008D000DB4313408B6100BF0C37BD4680BC7047C3
:1008E0000010024080B483B000AF78600B46FB700C
:1008F000FB78002B06D00949084BDA697B68134363
:10090000CB6106E00549054BDA697B68DB431340A0
:10091000CB6100BF0C37BD4680BC70470010024061
:0400000508000000EF
:00000001FF
