:020000040800F2
:1000000018040020110200080D0200080D0200086B
:100010000D0200080D0200080D020008000000009B
:100020000000000000000000000000000D020008B9
:100030000D020008000000000D0200080D0200087B
:100040000D0200080D0200080D0200080D02000854
:100050000D0200080D0200080D0200080D02000844
:100060000D0200080D0200080D0200080D02000834
:100070000D0200080D0200080D0200080D02000824
:100080000D0200080D0200080D0200080D02000814
:100090000D0200080D0200080D0200080D02000804
:1000A0000D0200080D0200080D0200080D020008F4
:1000B0000D0200080D0200080D0200080D020008E4
:1000C0000D0200080D0200080D0200080D020008D4
:1000D0000D0200080D0200080D0200080D020008C4
:1000E0000D0200080D0200080D02000800000000CB
:1000F0000000000000000000000000000000000000
:1001000000000000000000005FF808F182B03B4BE7
:100110001A6842F001021A605968394A0A405A6066
:100120001A6822F0847222F480321A601A6822F46B
:1001300080221A605A6822F4FE025A604FF41F02AD
:100140009A600022009201921A6842F480321A608A
:100150001A46136803F400330193009B01330093A4
:10016000019B1BB9009BB3F5A06FF2D1234B1B6819
:1001700013F4003F14BF012300230193019B012BC3
:1001800036D1204B1A6842F010021A601A6822F029
:1001900003021A601A6842F002021A60A3F5805343
:1001A0005A685A605A685A605A6842F480625A60C3
:1001B0005A6822F47C125A605A6842F4E8125A6073
:1001C0001A6842F080721A601A46136813F0007FB2
:1001D000FBD00A4B5A6822F003025A605A6842F078
:1001E00002025A601A46536803F00C03082BFAD136
:1001F0004FF00062044B9A6002B07047001002405A
:100200000000FFF80020024000ED00E0FEE700BF24
:1002100008B50F4B0F4A9A420CD2581E801A20F094
:10022000030004300C4B184453F8041B42F8041B21
:100230008342F9D109480A494FF000028842B8BF09
:1002400040F8042BFADBFFF761FF00F0EBF808BD84
:100250001400002000000020400D000814000020C1
:1002600014000020F0B5CB7803F00F0613F0100F48
:100270001CBF8B781E430B78F3B105680023012760
:100280004FF00F0C07FA03F20C8832EA04040FD186
:100290009C000CFA04FE25EA0E0506FA04F4254338
:1002A000CC78282C01D1426102E0482C08BF0261C1
:1002B0000133082BE6D105600B88FF2B20D9456858
:1002C000002301274FF00F0E03F1080207FA02F294
:1002D0000C8832EA04040FD19C000EFA04FC25EAD3
:1002E0000C0506FA04F42543CC78282C08BF42619B
:1002F000CC78482C08BF02610133082BE4D145605B
:10030000F0BD00BF70B586B0012144F2040000F0DA
:1003100047FB25238DF8143000248DF815408DF807
:10032000164001258DF8175005A800F085FC4FF404
:100330000073ADF8103018238DF8133003238DF8B7
:100340001230144E04A93046FFF78CFF4FF480633F
:10035000ADF8103004238DF8133004A93046FFF7B0
:1003600081FF4FF4E1330093ADF80440ADF806404F
:10037000ADF80840ADF80C400C23ADF80A30064C3F
:100380006946204600F0E4FB2946204600F03CFC8C
:1003900006B070BD0008014000380140F8B50646BF
:1003A0004718084C40250AE016F8011B204600F0CB
:1003B00039FC2946204600F039FC0028F9D0BE421D
:1003C000F2D1F8BD0038014010B500F009FA4FF441
:1003D000803000F025FA00F005FB012820D1002034
:1003E00000F05EFA002000F06FFA4FF4806000F039
:1003F00061FA4FF4E0114FF4803000F02FFA012041
:1004000000F036FA3924204600F0D8FA0028FAD055
:10041000022000F033FA00F03BFA0828FBD110BDAF
:10042000FEE700BF30B595B03222002107A800F0EA
:1004300035FCFFF7C9FFFFF765FF0D212D4800F0E0
:10044000F1FB00258DF8075014A9022321F84C3D3B
:100450002948FFF707FF4FF4004000F03FFA012161
:100460004FF4007000F09CFA02958DF80C500124B6
:100470008DF80D404FF46023049305958DF81840D6
:100480001E4D032322462146284600F015FB02A9F3
:10049000284600F0C1FA2146284600F0E1FA284635
:1004A00000F0EAFA2C46204600F0ECFA0028FAD1D7
:1004B000124800F0EBFA114C204600F0EDFA00284B
:1004C000FAD10E4C0121204600F0CAFA0121204643
:1004D00000F0E6FA25460A4C284600F035FB0246B5
:1004E000214607A800F06EF9322107A8FFF756FF52
:1004F000F2E700BF0038014000080140002401403D
:10050000380D000810B40B7843B1024602F8013BE5
:10051000141A11F8013F002BF8D100E00024204606
:1005200010BC704770B504461E46501E092B04D8F7
:1005300000280CDC254600200FE00E4BA3FB062311
:10054000DB0802462046FFF7EDFF251805E0551EA3
:10055000254404F8011BA542FBD1064BA3FB06234F
:10056000DB0803EB8303A6EB430330332B7001302E
:1005700070BD00BFCDCCCCCC70B50446002B04DAE6
:100580005D42501E092D05D82FE01D46013A092B6A
:100590000AD825E01D4BA3FB0523DB085B4202467E
:1005A0002046FFF7E9FF06E01848A0FB0303DB083D
:1005B0002046FFF7E1FF04441CE01046264606F8FB
:1005C000011B01380028FADC013A22EAE272501CD1
:1005D0000444002B0EDA2D2304F8013B013009E01E
:1005E000002AD8BF002005DDE7E7023A002AE4DC54
:1005F0000020F0E7054BA3FB0523DB0803EB830397
:10060000A5EB430330332370013070BDCDCCCCCC8F
:1006100070B582B004461E46069D501E2B0904D1BB
:1006200000280ADC234600200DE0009333460246F2
:100630002046FFF7EDFF231805E0531E234404F87E
:10064000011BA342FBD105F00F02092A03D815466E
:1006500030351D7009E026B105F00F0537351D70E6
:1006600003E005F00F0557351D70013002B070BD75
:100670002DE9F04F83B00F46064608B10021017006
:1006800000254FF0010AA8464FF030097CE02529EB
:1006900004D0013231700135013675E051782529D9
:1006A00004D131700232013501366DE0302919BFB5
:1006B000541C2021941C494694F800E0AEF130020D
:1006C000D2B2092A0FD8424602EB82020EEB420256
:1006D000303A02F0FF0214F801EFAEF13000C0B280
:1006E0000928F1D900E04246501987423CBF7A1BE5
:1006F000D2B2AEF1580EBEF1200F56D8DFE80EF0A0
:100700002B555555555555555555553D115555551F
:100710005511555555555555555555355519555529
:10072000210003F1040B1B683046FFF725FF5B46F1
:1007300027E003F1040B1B683046FFF7F3FE5B462E
:100740001FE003F1040B1B68009343463046FFF79C
:100750005FFF5B4615E003F1040B1B6800935346F3
:100760003046FFF755FF5B460BE003F1040B1968B9
:100770003046FFF7C7FE5B4603E01A683270043369
:100780005046621C06440544117819B1BD42FFF47D
:100790007EAF05E0AF4203D900233370284606E060
:1007A000002306F8013C681E01E04FF0FF3003B063
:1007B000BDE8F08F08B513460A466421FFF758FFDD
:1007C00008BD00BF0EB400B582B003AA52F8041BE6
:1007D0000192FFF7EFFF02B05DF804EB03B0704742
:1007E0000D4B1A6842F001021A6059680B4A0A4020
:1007F0005A601A6822F0847222F480321A601A68F1
:1008000022F480221A605A6822F4FE025A604FF4E1
:100810001F029A60704700BF001002400000FFF8FE
:100820000D4B1A6822F480321A601A6822F4802272
:100830001A60B0F5803F03D0B0F5802F06D0704726
:10084000054A136843F4803313607047024A136803
:1008500043F4A0231360704700100240034A53681A
:1008600023F47C1319430843506070470010024082
:10087000014B1860704700BF60004242034A536852
:1008800023F0030318435060704700BF001002407C
:10089000024B586800F00C00704700BF0010024087
:1008A000034A536823F0F00318435060704700BFB9
:1008B00000100240034A536823F4E0631843506079
:1008C000704700BF00100240034A536823F460538E
:1008D00043EAC0005060704700100240034A53686A
:1008E00023F4404318435060704700BF001002409B
:1008F00010B4274B5B6803F00C03042B05D0082BC6
:1009000006D0F3B9234B03601DE0224B03601AE0CD
:100910001F4A53685268C3F38343023312F4803F83
:1009200004D11D4A02FB03F303600CE0184A52682D
:1009300012F4003F14BF184A164A02FB03F3036087
:1009400001E0144B0360124A5368C3F30313134CC2
:10095000E35CD9B20368CB4043605168C1F3022124
:10096000615CC9B223FA01F181605168C1F3C2210F
:10097000615CC9B2CB40C3605268C2F38132224489
:10098000127CD2B2B3FBF2F3036110BC704700BF1C
:100990000010024000127A0000093D000000002013
:1009A00021B1054B9A69104398617047024A9369D7
:1009B00023EA000090617047001002404309012BB8
:1009C00002D1074B1B6804E0022B054B0CBF1B6ACE
:1009D0005B6A00F01F0023FA00F000F0010070478E
:1009E0000010024010B582B000230193312420464C
:1009F000FFF7E4FF019B01330193019BB3F5A06F67
:100A000001D00028F3D03120FFF7D8FF003018BF05
:100A1000012002B010BD00BF10B4436823F470225F
:100A200022F480720B6813430A7943EA022343607D
:100A30008468CA688B681A43084B234013434A7979
:100A400043EA42038360C36A23F470020B7C013BD8
:100A5000DBB242EA0353C36210BC7047FDF7F1FFFB
:100A600021B1836843F0010383607047836823F0FA
:100A700001038360704700BF836843F0080383600D
:100A8000704700BF8068C0F3C0007047836843F0C0
:100A900004038360704700BF8068C0F38000704724
:100AA00021B1836843F4A00383607047836823F413
:100AB000A0038360704700BF70B409290DD9C668D0
:100AC000A1F10A0404EB44040725A54026EA050524
:100AD00003FA04F42C43C4600AE0066901EB410404
:100AE0000725A54026EA050503FA04F42C43046112
:100AF000062A0CD8446B013A02EB82021F23934072
:100B000024EA030301FA02F21A4342631AE00C2AB0
:100B10000CD8046B073A02EB82021F23934024EAAD
:100B2000030301FA02F21A4302630BE0C46A0D3AAE
:100B300002EB82021F23934024EA030301FA02F22C
:100B40001A43C26270BC7047C06C80B2704700BF6D
:100B500030B587B004460D46038A9BB223F4405358
:100B6000CA8813430382828992B289882B890B43F6
:100B700069890B4322F4B05222F00C0213439BB25A
:100B80008381838A9BB223F44073AA8913438382AF
:100B900001A8FFF7ADFE1A4B9C420CBF049B039BC0
:100BA000A28912F4004F03EB830303EB830329684C
:100BB00014BF49008900B3FBF1F1124BA3FB0123E1
:100BC00058090501642300FB1313A28912F4004F96
:100BD00009D0D90032310B4AA2FB0131C1F34212D4
:100BE00042EA050307E01B013233064AA2FB032356
:100BF000C3F343132B439BB2238107B030BD00BF27
:100C0000003801401F85EB5129B183899BB243F421
:100C1000005383817047838923F400531B041B0C0A
:100C200083817047C1F308018180704703881942AE
:100C300014BF012000207047C378FBB1154BDA6860
:100C4000D243C2F30222C2F10401437803FA01F154
:100C50000F23D340827813400B4302781B01DBB291
:100C60000D490A4482F800330378580903F01F0342
:100C7000012202FA03F341F82030704703785A0941
:100C800003F01F03012101FA03F32032024941F866
:100C90002230704700ED00E000E100E070B484070E
:100CA00046D0541E002A41D0CDB2034602E0621E57
:100CB000E4B3144603F8015B9A07F8D1032C2ED94C
:100CC000CDB245EA05250F2C45EA054519D926463A
:100CD00003F11002103E0F2E42F8105C42F80C5C3B
:100CE00042F8085C42F8045C02F11002F2D8A4F168
:100CF000100222F00F0204F00F041032032C1344F0
:100D00000DD91E462246043A032A46F8045BFAD857
:100D1000221F22F003020432134404F003042CB116
:100D2000C9B21C4403F8011BA342FBD170BC70473D
:100D300014460346C2E700BF25640D0A0000000008
:100D40000000000001020304010203040607080971
:040D5000020406088B
:0400000508000000EF
:00000001FF
