:020000040800F2
:1000000018040020B5020008B1020008B10200087F
:10001000B1020008B1020008B102000800000000AF
:10002000000000000000000000000000B102000815
:10003000B102000800000000B1020008B10200088F
:10004000B1020008B1020008B1020008B1020008C4
:10005000B1020008B1020008B1020008B1020008B4
:10006000B1020008B1020008B1020008B1020008A4
:10007000B1020008B1020008B1020008B102000894
:10008000B1020008B1020008B1020008B102000884
:10009000B1020008B1020008B1020008B102000874
:1000A000B1020008B1020008B1020008B102000864
:1000B000B1020008B1020008B1020008B102000854
:1000C000B1020008B1020008B1020008B102000844
:1000D000B1020008B1020008B1020008B102000834
:1000E000B1020008B1020008B102000800000000DF
:1000F0000000000000000000000000000000000000
:1001000000000000000000005FF808F1034A938837
:100110009BB243F010039380704700BF002800405B
:10012000034A938823F010031B041B0C9380704731
:1001300000280040034A938B9BB2108B43EA004097
:10014000704700BF0028004010B50446FFF7DEFFEF
:10015000220C034B1A83A4B29C83FFF7E1FF10BD6E
:100160000028004010B50446FFF7D0FFC4F3034257
:10017000034B1A81A4B29C81FFF7D2FF10BD00BFD0
:1001800000280040064A938823F008031B041B0C38
:100190009380938803F008039BB2002BF9D070473B
:1001A0000028004082B03B4B1A6842F001021A60FE
:1001B0005968394A0A405A601A6822F0847222F457
:1001C00080321A601A6822F480221A605A6822F477
:1001D000FE025A604FF41F029A60002200920192C0
:1001E0001A6842F480321A601A46136803F4003326
:1001F0000193009B01330093019B1BB9009BB3F556
:10020000A06FF2D1234B1B6813F4003F14BF0123EE
:1002100000230193019B012B36D1204B1A6842F039
:1002200010021A601A6822F003021A601A6842F07B
:1002300002021A60A3F580535A685A605A685A60DD
:100240005A6842F480625A605A6822F47C125A60FA
:100250005A6842F4E8125A601A6842F080721A60D2
:100260001A46136813F0007FFBD00A4B5A6822F03D
:1002700003025A605A6842F002025A601A465368F2
:1002800003F00C03082BFAD14FF00062044B9A6084
:1002900002B07047001002400000FFF8002002404A
:1002A00000ED00E0014B1860704700BF20000E42D7
:1002B000FEE700BF08B50F4B0F4A9A420CD2581EFA
:1002C000801A20F0030004300C4B184453F8041B30
:1002D00042F8041B8342F9D109480A494FF0000251
:1002E0008842B8BF40F8042BFADBFFF75BFF00F051
:1002F00063F908BD1400002000000020240C000851
:100300001400002014000020F0B5CB7803F00F0695
:1003100013F0100F1CBF8B781E430B78F3B10568E8
:10032000002301274FF00F0C07FA03F20C8832EA82
:1003300004040FD19C000CFA04FE25EA0E0506FA0F
:1003400004F42543CC78282C01D1426102E0482CEA
:1003500008BF02610133082BE6D105600B88FF2B33
:1003600020D94568002301274FF00F0E03F1080242
:1003700007FA02F20C8832EA04040FD19C000EFA4C
:1003800004FC25EA0C0506FA04F42543CC78282C55
:1003900008BF4261CC78482C08BF02610133082BAA
:1003A000E4D14560F0BD00BF10B586B0012144F234
:1003B000040000F039FB4FF40073ADF8143018233B
:1003C0008DF8173003238DF81630154C05A92046FB
:1003D000FFF79AFF4FF48063ADF8143004238DF8D3
:1003E000173005A92046FFF78FFF4FF4E133019343
:1003F0000023ADF80830ADF80A30ADF80C30ADF898
:1004000010300C23ADF80E3004F5405401A92046FD
:1004100000F02CFB0121204600F084FB06B010BD4B
:100420000008014070B5461E084C402508E02046F3
:1004300000F086FB2946204600F086FB0028F9D014
:1004400016F8011F0029F2D170BD00BF003801402D
:1004500008B501214FF0C05000F0F4FA0120FFF779
:1004600021FF124B1B6A13F4004F1CD1012000F036
:10047000F7FA002000F0F4FA012000F05BFA0B4AD2
:10048000136A13F0020FFBD04FF4807000F066FA8D
:1004900047F6FF70FFF766FE012000F067FAFFF7EE
:1004A00071FE012008BD002008BD00BF0010024001
:1004B0002DE9F041364EA6FB00367609354CA4FBFB
:1004C0000034E40A00F52842C032334DA5FB023265
:1004D000324B03EBD232520802F5FA422C3293002F
:1004E00003332F4FA7FB0373DB0B2E4F07FB03F7E1
:1004F000A2EB97024FEA820E0EF1030E2A4FA7FBE2
:100500000E7E4FEADE1E40F2B55707FB0EF7A2EB58
:10051000970202EB82070237DFF894C0ACFB078C2E
:100520004FEADC1CDFF88C80A8FB07873F0A4FF0FE
:10053000640808FB03EEAEF5965EBE44A1F806E043
:100540000CF1030307EB4707A3EB87070F71013299
:100550000CEBCC0303EB03139F1C144BA3FB07739F
:10056000A2EB9303CB70A5FB00352D0C05EB4505E5
:10057000A4EBC5050D70C4EB0414A6EB84044C7009
:10058000C6EB0616A0EB86008870BDE8F08100BFC0
:1005900089888888C5B3A29107452EC2177B4A0077
:1005A000BD066B39B13A020073B06D16CDCCCCCC20
:1005B000D7802BD62B80D52A70B59AB05022002137
:1005C00006A800F0C7FAFFF7EFFEFFF741FF01288A
:1005D00012D10E238DF813300A228DF81420ADF8B5
:1005E00016208DF8103023238DF8113011238DF84B
:1005F00012301648FFF7A8FD154E164DFFF79AFD6D
:1006000004460246314606A800F086F906A8FFF720
:1006100009FF04A92046FFF74BFF9DF814309DF811
:1006200013209DF8121003919DF8111002919DF86E
:1006300010100191BDF816100091294606A800F08F
:100640006BF9FFF777FD8442FBD0D7E7A555D59A24
:10065000F00B0008000C000810B40B7843B1024600
:1006600002F8013B141A11F8013F002BF8D100E009
:100670000024204610BC704770B504461E46501E2C
:10068000092B04D800280CDC254600200FE00E4B77
:10069000A3FB0623DB0802462046FFF7EDFF2518E3
:1006A00005E0551E254404F8011BA542FBD1064B6D
:1006B000A3FB0623DB0803EB8303A6EB43033033E2
:1006C0002B70013070BD00BFCDCCCCCC70B50446D2
:1006D000002B04DA5D42501E092D05D82FE01D467F
:1006E000013A092B0AD825E01D4BA3FB0523DB08A3
:1006F0005B4202462046FFF7E9FF06E01848A0FBF0
:100700000303DB082046FFF7E1FF04441CE010462A
:10071000264606F8011B01380028FADC013A22EAD5
:10072000E272501C0444002B0EDA2D2304F8013B26
:10073000013009E0002AD8BF002005DDE7E7023AD2
:10074000002AE4DC0020F0E7054BA3FB0523DB08CF
:1007500003EB8303A5EB430330332370013070BDFB
:10076000CDCCCCCC70B582B004461E46069D501E42
:100770002B0904D100280ADC234600200DE0009359
:10078000334602462046FFF7EDFF231805E0531ECF
:10079000234404F8011BA342FBD105F00F02092AF0
:1007A00003D8154630351D7009E026B105F00F0558
:1007B00037351D7003E005F00F0557351D7001300A
:1007C00002B070BD2DE9F04F83B00F46064608B168
:1007D0000021017000254FF0010AA8464FF03009B2
:1007E0007CE0252904D0013231700135013675E0F5
:1007F0005178252904D131700232013501366DE07E
:10080000302919BF541C2021941C494694F800E05B
:10081000AEF13002D2B2092A0FD8424602EB820270
:100820000EEB4202303A02F0FF0214F801EFAEF193
:100830003000C0B20928F1D900E042465019874281
:100840003CBF7A1BD2B2AEF1580EBEF1200F56D883
:10085000DFE80EF02B555555555555555555553D19
:1008600011555555551155555555555555555535E0
:1008700055195555210003F1040B1B683046FFF74D
:1008800025FF5B4627E003F1040B1B683046FFF7AA
:10089000F3FE5B461FE003F1040B1B680093434625
:1008A0003046FFF75FFF5B4615E003F1040B1B6862
:1008B000009353463046FFF755FF5B460BE003F1CC
:1008C000040B19683046FFF7C7FE5B4603E01A6861
:1008D000327004335046621C06440544117819B145
:1008E000BD42FFF47EAF05E0AF4203D90023337071
:1008F000284606E0002306F8013C681E01E04FF0A0
:10090000FF3003B0BDE8F08F08B513460A466421F6
:10091000FFF758FF08BD00BF0EB400B582B003AAB0
:1009200052F8041B0192FFF7EFFF02B05DF804EBF1
:1009300003B07047084B00221A701A70012802D0C9
:10094000042804D070470122034B1A707047052217
:10095000014B1A70704700BF20100240024A136A10
:1009600018431062704700BF00100240014B18602E
:10097000704700BF3C04424210B4274B5B6803F051
:100980000C03042B05D0082B06D0F3B9234B0360CE
:100990001DE0224B03601AE01F4A53685268C3F3FC
:1009A0008343023312F4803F04D11D4A02FB03F358
:1009B00003600CE0184A526812F4003F14BF184A52
:1009C000164A02FB03F3036001E0144B0360124A72
:1009D0005368C3F30313134CE35CD9B20368CB40F1
:1009E00043605168C1F30221615CC9B223FA01F18D
:1009F00081605168C1F3C221615CC9B2CB40C36060
:100A00005268C2F381322244127CD2B2B3FBF2F3B9
:100A1000036110BC704700BF0010024000127A0052
:100A200000093D000000002021B1054B9A691043E8
:100A300098617047024A936923EA00009061704709
:100A40000010024021B1054BDA691043D8617047AC
:100A5000024AD36923EA0000D061704700100240C7
:100A6000014B1860704700BF4004424230B587B068
:100A700004460D46038A9BB223F44053CA881343AD
:100A80000382828992B289882B890B4369890B433F
:100A900022F4B05222F00C0213439BB28381838A6A
:100AA0009BB223F44073AA891343838201A8FFF702
:100AB00063FF1A4B9C420CBF049B039BA28912F458
:100AC000004F03EB830303EB8303296814BF490042
:100AD0008900B3FBF1F1124BA3FB01235809050177
:100AE000642300FB1313A28912F4004F09D0D9002C
:100AF00032310B4AA2FB0131C1F3421242EA050333
:100B000007E01B013233064AA2FB0323C3F343135E
:100B10002B439BB2238107B030BD00BF003801409A
:100B20001F85EB5129B183899BB243F40053838124
:100B30007047838923F400531B041B0C8381704787
:100B4000C1F30801818070470388194214BF012056
:100B50000020704770B4840746D0541E002A41D04C
:100B6000CDB2034602E0621EE4B3144603F8015B13
:100B70009A07F8D1032C2ED9CDB245EA05250F2CC2
:100B800045EA054519D9264603F11002103E0F2EFD
:100B900042F8105C42F80C5C42F8085C42F8045CD5
:100BA00002F11002F2D8A4F1100222F00F0204F0B8
:100BB0000F041032032C13440DD91E462246043A6A
:100BC000032A46F8045BFAD8221F22F003020432FB
:100BD000134404F003042CB1C9B21C4403F8011BF4
:100BE000A342FBD170BC704714460346C2E700BF66
:100BF000434F554E5445523A2025640D0A000000DB
:100C0000253032642E253032642E25303464202085
:100C1000253032643A253032643A253032640D0A88
:040C200000000000D0
:100C2400000000000102030401020304060708098E
:040C340002040608A8
:0400000508000000EF
:00000001FF
