:020000040800F2
:1000000018040020BD030008B9030008B903000864
:10001000B9030008B9030008B90300080000000094
:10002000000000000000000000000000B90300080C
:10003000B903000800000000B9030008B903000874
:10004000B9030008B9030008B9030008B9030008A0
:10005000B9030008B9030008B9030008B903000890
:10006000B9030008B9030008B9030008B903000880
:10007000B9030008B9030008B9030008B903000870
:10008000B9030008B9030008B9030008B903000860
:10009000B9030008B9030008B9030008B903000850
:1000A000B9030008B9030008B9030008B903000840
:1000B000850A0008B9030008B9030008B90300085D
:1000C000B9030008B9030008B9030008B903000820
:1000D000B9030008B9030008B9030008B903000810
:1000E000B9030008B9030008B903000800000000C4
:1000F0000000000000000000000000000000000000
:1001000000000000000000005FF808F1034A938837
:100110009BB243F010039380704700BF002800405B
:10012000034A938823F010031B041B0C9380704731
:1001300000280040034A938B9BB2108B43EA004097
:10014000704700BF0028004010B50446FFF7DEFFEF
:10015000220C034B1A83A4B29C83FFF7E1FF10BD6E
:100160000028004010B50446FFF7D0FFC4F3034257
:10017000034B1A81A4B29C81FFF7D2FF10BD00BFD0
:1001800000280040064A938823F008031B041B0C38
:100190009380938803F008039BB2002BF9D070473B
:1001A0000028004003889BB2244A904212D002F5F6
:1001B000006290420ED0B0F1804F0BD0A2F5983281
:1001C000904207D002F58062904203D002F580622F
:1001D000904203D123F070034A881343184A904297
:1001E00025D002F58062904221D023F440739BB267
:1001F000CA88134303808B8883850B8803850F4B44
:1002000098420FD003F5006398420BD003F540638A
:10021000984207D003F58063984203D003F58063CA
:10022000984201D10B7A03860123838270470380B1
:100230008B8883850B880385F6E700BF002C01407F
:10024000001000404FF6FF73838000230380C380BB
:1002500043800372704700BF29B103889BB243F00B
:10026000010303807047038823F001031B041B0C68
:100270000380704722B183899BB219438181704703
:1002800083899BB223EA010181817047038823F0AF
:1002900008031B041B0C038003889BB219430180D5
:1002A000704700BFC94389B20182704782B03B4B9F
:1002B0001A6842F001021A605968394A0A405A60C5
:1002C0001A6822F0847222F480321A601A6822F4CA
:1002D00080221A605A6822F4FE025A604FF41F020C
:1002E0009A600022009201921A6842F480321A60E9
:1002F0001A46136803F400330193009B0133009303
:10030000019B1BB9009BB3F5A06FF2D1234B1B6877
:1003100013F4003F14BF012300230193019B012B21
:1003200036D1204B1A6842F010021A601A6822F087
:1003300003021A601A6842F002021A60A3F58053A1
:100340005A685A605A685A605A6842F480625A6021
:100350005A6822F47C125A605A6842F4E8125A60D1
:100360001A6842F080721A601A46136813F0007F10
:10037000FBD00A4B5A6822F003025A605A6842F0D6
:1003800002025A601A46536803F00C03082BFAD194
:100390004FF00062044B9A6002B0704700100240B8
:1003A0000000FFF80020024000ED00E0014B186063
:1003B000704700BF20000E42FEE700BF08B50F4B9C
:1003C0000F4A9A420CD2581E801A20F003000430C3
:1003D0000C4B184453F8041B42F8041B8342F9D118
:1003E00009480A494FF000028842B8BF40F8042B80
:1003F000FADBFFF75BFF00F0B5FA08BD1400002040
:1004000000000020601600081400002018000020E2
:10041000F0B5CB7803F00F0613F0100F1CBF8B78EC
:100420001E430B78F3B10568002301274FF00F0C32
:1004300007FA03F20C8832EA04040FD19C000CFA8C
:1004400004FE25EA0E0506FA04F42543CC78282C90
:1004500001D1426102E0482C08BF02610133082B40
:10046000E6D105600B88FF2B20D9456800230127C2
:100470004FF00F0E03F1080207FA02F20C8832EA7D
:1004800004040FD19C000EFA04FC25EA0C0506FAC0
:1004900004F42543CC78282C08BF4261CC78482C42
:1004A00008BF02610133082BE4D14560F0BD00BFF5
:1004B00008B500F09BFC4FF4803000F0B7FC00F072
:1004C000B3FD012810D1002000F0E0FC002000F076
:1004D000F1FC002000F0E4FC012000F0C5FC00F07D
:1004E000CDFC0428FBD108BDFEE700BF10B586B0E7
:1004F000012144F2040000F061FD4FF40073ADF8F7
:10050000143018238DF8173003238DF81630154C4E
:1005100005A92046FFF77CFF4FF48063ADF8143047
:1005200004238DF8173005A92046FFF771FF4FF41B
:10053000E13301930023ADF80830ADF80A30ADF88F
:100540000C30ADF810300C23ADF80E3004F54054EB
:1005500001A9204600F082FD0121204600F0DAFDCD
:1005600006B010BD0008014070B5461E084C40257D
:1005700008E0204600F0DCFD2946204600F0DCFDC6
:100580000028F9D016F8011F0029F2D170BD00BF74
:100590000038014008B501214FF0C05000F01CFDAB
:1005A0000120FFF703FF124B1B6A13F4004F1CD10D
:1005B000012000F01FFD002000F01CFD012000F0D4
:1005C00083FC0B4A136A13F0020FFBD04FF48070C8
:1005D00000F08EFC47F6FF70FFF7C4FD012000F02D
:1005E0008FFCFFF7CFFD012008BD002008BD00BF34
:1005F000001002402DE9F0470E4600F52844C034B3
:10060000DFF808C1ACFB0434384B03EBD4340025CD
:100610006D084FEA3404364BA3FB003E4FEA5E1EE2
:10062000344FA7FB0037FF0A04F5FA432C339A0036
:1006300003323149A1FB0212D20B304901FB02F116
:10064000A3EB91034FEA830909F103092C49A1FBAC
:1006500009194FEAD91940F2B55101FB09F1A3EB91
:10066000910101EB810808F10208264BA3FB08A3C6
:10067000DB09DFF89CA0AAFB08A84FEA18284FF076
:10068000640A0AFB0292A2F596524244F280DA1CF6
:1006900008EB4808A2EB880886F80580013103EBD7
:1006A000C30303EB03130233174AA2FB0323A1EB9B
:1006B0009303F370ACFB00231B0C03EB4303A7EB8A
:1006C000C3033370C7EB0717AEEB87077770CEEB2A
:1006D0000E1EA0EB8E00B070072200232046294694
:1006E00000F062FD3271BDE8F08700BF177B4A0061
:1006F00089888888C5B3A291BD066B39B13A0200DA
:1007000073B06D16D7802BD6CDCCCCCC07452EC27E
:100710002B80D52A70B54279C2F10E04204981FBA5
:100720000431E417C4EB6101C9B2C48804F59654DE
:10073000641AA4B2C5781B4B2B4403EB94031A4DE7
:10074000A5FB04E603EBD61340F26D1606FB043658
:1007500001EB4103D11E01EB8303DBB203EBC303C7
:1007600003EB03130233114A82FB0312D917C1EBC7
:100770006203F218644285FB0413E417C4EB6313AD
:10078000134401784278C2EB021292004FF4616484
:1007900004FB012281780A44054800FB032070BD58
:1007A000ABAAAA2A4745DAFF1F85EB516766666642
:1007B00080510100F0B5C3B004460D46554B93E897
:1007C00003004090ADF80411090C8DF80611524B4E
:1007D0003EAE93E8030086E80300504A3BAB07CAED
:1007E00003C31A804E4A38AB07CA03C31A704D4B75
:1007F00093E803003690ADF8DC10090C8DF8DE109C
:10080000494A33AB07CA03C31A70484B93E8030045
:100810003190ADF8C810090C8DF8CA1040AB2A937E
:100820002B963BAB2C9338AB2D9336AB2E9333AB3F
:100830002F9331AB30933E4B28AF93E8030087E80A
:1008400003003C4A25AB07CA03C31A703A4B93E82E
:1008500003002390ADF89010384B93E803002190EB
:10086000ADF88810364B2093364B93E803001E906A
:100870008DF87C10344B93E803001C908DF87410B5
:10088000324B93E803001A90ADF86C10090C8DF808
:100890006E102F4A17AB07CA03C31A802D4B15AE33
:1008A00093E8030086E803002B4A12AB07CA03C390
:1008B0001A702A4A0FAB07CA03C31A70039725ABF5
:1008C000049323AB059321AB069320AB07931EAB98
:1008D00008931CAB09931AAB0A9317AB0B930C96B6
:1008E00012AB0D930FAB0E93E378227942A901EB83
:1008F000820252F8602CE1880191617942A800EBF4
:10090000810151F8FC1C00911549284600F060FA5D
:1009100043B0F0BD741500087C150008841500086C
:10092000901500089C150008A4150008B0150008D3
:10093000B8150008C0150008CC150008D41500082B
:100940004D617900DC150008E4150008EC1500087D
:10095000F415000800160008081600081416000810
:100960006415000870B59AB05022002106A800F066
:10097000ABFDFFF79DFD00F05BF8FFF7B7FDFFF75C
:1009800009FE01281BD116238DF8133009238DF899
:1009900015304FF4FC63ADF816300E238DF810308F
:1009A0001E238DF8113000238DF812304FF4FA70A9
:1009B00000F086F804A8FFF7ADFEFFF7C5FB1A4E5E
:1009C0001A4DFFF7B7FB04460246314606A800F071
:1009D000FFF906A8FFF7C8FD04A92046FFF70AFEA5
:1009E0009DF815309DF813209DF8121003919DF885
:1009F000111002919DF810100191BDF81610009190
:100A0000294606A800F0E4F906A8FFF7ADFD06A9FF
:100A100004A8FFF7CFFE06A8FFF7A6FDFFF78AFBA5
:100A20008442FBD0CDE700BF201600083416000832
:100A300030B585B00121084600F0CEFA01A8FFF7D5
:100A400001FC0023ADF806300825ADF80450012460
:100A5000ADF8084001A94FF08040FFF7A3FB1C232D
:100A60008DF800308DF801408DF802408DF803407C
:100A7000684600F067FB29464FF08040FFF706FC10
:100A800005B030BD38B501214FF08040FFF70AFCBA
:100A90004FF08044238A23F001031B041B0C2382A4
:100AA0000125064B1D7000212046FFF7D5FB0022D3
:100AB00029462046FFF7DEFB38BD00BF14000020AA
:100AC00010B50022114B1A704FF0804440F2E7330A
:100AD0002385000180B2A085A38A9BB243F0010365
:100AE000A382238A23F001031B041B0C238201220F
:100AF00011462046FFF7BEFB01212046FFF7ACFB65
:100B0000024A137813F0FF0FFBD010BD1400002031
:100B100010B40B7843B1024602F8013B141A11F8E5
:100B2000013F002BF8D100E00024204610BC7047A4
:100B300070B504461E46501E092B04D800280CDC54
:100B4000254600200FE00E4BA3FB0623DB080246E0
:100B50002046FFF7EDFF251805E0551E254404F853
:100B6000011BA542FBD1064BA3FB0623DB0803EBCD
:100B70008303A6EB430330332B70013070BD00BFFD
:100B8000CDCCCCCC70B50446002B04DA5D42501EAF
:100B9000092D05D82FE01D46013A092B0AD825E07A
:100BA0001D4BA3FB0523DB085B4202462046FFF7F3
:100BB000E9FF06E01848A0FB0303DB082046FFF727
:100BC000E1FF04441CE01046264606F8011B0138EC
:100BD0000028FADC013A22EAE272501C0444002B9D
:100BE0000EDA2D2304F8013B013009E0002AD8BFBA
:100BF000002005DDE7E7023A002AE4DC0020F0E708
:100C0000054BA3FB0523DB0803EB8303A5EB4303A1
:100C100030332370013070BDCDCCCCCC70B582B0F8
:100C200004461E46069D501E2B0904D100280ADCEE
:100C3000234600200DE00093334602462046FFF78E
:100C4000EDFF231805E0531E234404F8011BA342C3
:100C5000FBD105F00F02092A03D8154630351D7067
:100C600009E026B105F00F0537351D7003E005F0EA
:100C70000F0557351D70013002B070BD2DE9F04FE2
:100C800083B00F46064608B10021017000254FF0E1
:100C9000010AA8464FF030097CE0252904D0013232
:100CA00031700135013675E05178252904D1317054
:100CB0000232013501366DE0302919BF541C202164
:100CC000941C494694F800E0AEF13002D2B2092AF1
:100CD0000FD8424602EB82020EEB4202303A02F09B
:100CE000FF0214F801EFAEF13000C0B20928F1D9CB
:100CF00000E04246501987423CBF7A1BD2B2AEF1A7
:100D0000580EBEF1200F56D8DFE80EF02B55555582
:100D1000555555555555553D115555555511555523
:100D2000555555555555553555195555210003F10E
:100D3000040B1B683046FFF725FF5B4627E003F1F5
:100D4000040B1B683046FFF7F3FE5B461FE003F120
:100D5000040B1B68009343463046FFF75FFF5B467A
:100D600015E003F1040B1B68009353463046FFF770
:100D700055FF5B460BE003F1040B19683046FFF7A3
:100D8000C7FE5B4603E01A68327004335046621CAB
:100D900006440544117819B1BD42FFF47EAF05E069
:100DA000AF4203D900233370284606E0002306F83B
:100DB000013C681E01E04FF0FF3003B0BDE8F08F4A
:100DC00008B513460A466421FFF758FF08BD00BF67
:100DD0000EB400B582B003AA52F8041B0192FFF7CB
:100DE000EFFF02B05DF804EB03B070470D4B1A68DB
:100DF00042F001021A6059680B4A0A405A601A68A8
:100E000022F0847222F480321A601A6822F480225E
:100E10001A605A6822F4FE025A604FF41F029A6068
:100E2000704700BF001002400000FFF80D4B1A6829
:100E300022F480321A601A6822F480221A60B0F517
:100E4000803F03D0B0F5802F06D07047054A136865
:100E500043F4803313607047024A136843F4A023BD
:100E60001360704700100240034A536823F00303E5
:100E700018435060704700BF00100240024B586892
:100E800000F00C00704700BF00100240034A536896
:100E900023F0F00318435060704700BF0010024079
:100EA000034A536823F4E06318435060704700BF5F
:100EB00000100240034A536823F4605343EAC00021
:100EC0005060704700100240084B00221A701A70E0
:100ED000012802D0042804D070470122034B1A7065
:100EE00070470522014B1A70704700BF2010024066
:100EF000024A136A18431062704700BF0010024094
:100F0000014B1860704700BF3C04424210B4274BAD
:100F10005B6803F00C03042B05D0082B06D0F3B953
:100F2000234B03601DE0224B03601AE01F4A536805
:100F30005268C3F38343023312F4803F04D11D4A45
:100F400002FB03F303600CE0184A526812F4003FFE
:100F500014BF184A164A02FB03F3036001E0144B66
:100F60000360124A5368C3F30313134CE35CD9B212
:100F70000368CB4043605168C1F30221615CC9B290
:100F800023FA01F181605168C1F3C221615CC9B2E9
:100F9000CB40C3605268C2F381322244127CD2B289
:100FA000B3FBF2F3036110BC704700BF00100240B6
:100FB00000127A0000093D000000002021B1054B1D
:100FC0009A69104398617047024A936923EA0000C6
:100FD000906170470010024021B1054BDA6910435F
:100FE000D8617047024AD36923EA0000D061704794
:100FF00000100240014B1860704700BF400442429D
:101000004309012B02D1074B1B6804E0022B054B5F
:101010000CBF1B6A5B6A00F01F0023FA00F000F0AF
:10102000010070470010024010B582B00023019308
:1010300031242046FFF7E4FF019B01330193019B1C
:10104000B3F5A06F01D00028F3D03120FFF7D8FF0F
:10105000003018BF012002B010BD00BF30B587B00E
:1010600004460D46038A9BB223F44053CA881343B7
:101070000382828992B289882B890B4369890B4349
:1010800022F4B05222F00C0213439BB28381838A74
:101090009BB223F44073AA891343838201A8FFF70C
:1010A00035FF1A4B9C420CBF049B039BA28912F490
:1010B000004F03EB830303EB8303296814BF49004C
:1010C0008900B3FBF1F1124BA3FB01235809050181
:1010D000642300FB1313A28912F4004F09D0D90036
:1010E00032310B4AA2FB0131C1F3421242EA05033D
:1010F00007E01B013233064AA2FB0323C3F3431369
:101100002B439BB2238107B030BD00BF00380140A4
:101110001F85EB5129B183899BB243F4005383812E
:101120007047838923F400531B041B0C8381704791
:10113000C1F30801818070470388194214BF012060
:1011400000207047C378FBB1154BDA68D243C2F375
:101150000222C2F10401437803FA01F10F23D340C4
:10116000827813400B4302781B01DBB20D490A441D
:1011700082F800330378580903F01F03012202FAB2
:1011800003F341F82030704703785A0903F01F0336
:10119000012101FA03F32032024941F8223070475D
:1011A00000ED00E000E100E053B94AB9002908BFB2
:1011B00000281CBF4FF0FF314FF0FF3000F082B924
:1011C000ADF1080C6DE904CE00F006F8DDF804E09E
:1011D000DDE9022304B070472DE9F04F8C460C4640
:1011E0000546099E002B4FD18A4217466BD9B2FAA9
:1011F00082FEBEF1000F0BD0CEF1200520FA05F5DE
:1012000001FA0EF345EA030C02FA0EF700FA0EF5A6
:10121000390CBCFBF1F0BAB201FB10C300FB02F8C1
:101220004FEA154C4CEA0344A04509D9E41900F1F2
:10123000FF3380F02881A04540F2258102383C44EC
:10124000C8EB0404B4FBF1F301FB134C03FB02F203
:10125000ACB244EA0C418A4209D9C91903F1FF34FE
:1012600080F00F818A4240F20C81023B39448A1A95
:1012700043EA00400021002E63D022FA0EF2002340
:1012800086E80C00BDE8F08F8B4207D9002E56D0BF
:10129000002186E811000846BDE8F08FB3FA83F11B
:1012A000002940F09380A34202D3824200F2FE80E4
:1012B000851A64EB03039C460120002E41D086E88A
:1012C0002010BDE8F08F12B90127B7FBF2F7B7FA8B
:1012D00087FEBEF1000F36D1E41B4FEA17481FFA14
:1012E00087F90121B4FBF8F308FB134409FB03F26F
:1012F0004FEA154C4CEA0444A24207D9E41903F121
:10130000FF3002D2A24200F2D3800346A41AB4FBFB
:10131000F8F008FB104809FB00F9ACB244EA0842B7
:10132000914507D9D21900F1FF3402D2914500F25C
:10133000BA802046C9EB020240EA03409BE73146EF
:101340003046BDE8F08F07FA0EF7CEF1200C24FAF4
:101350000CF34FEA1748B3FBF8FA1FFA87F908FBBA
:101360001A3520FA0CFC04FA0EF40AFB09FB4CEACD
:10137000040C4FEA1C4242EA05439B4500FA0EF575
:101380000AD9DB190AF1FF3280F08B809B4540F2CD
:101390008880AAF1020A3B44CBEB0303B3FBF8F0CD
:1013A00008FB103300FB09F41FFA8CFC4CEA0343E2
:1013B0009C4207D9DB1900F1FF326ED29C426CD9F6
:1013C00002383B441C1B40EA0A418BE7C1F1200E66
:1013D0008B4022FA0EFC4CEA030C24FA0EF74FEA7B
:1013E0001C49B7FBF9FA1FFA8CF309FB1A7720FAAC
:1013F0000EF88C400AFB03F548EA04044FEA14484F
:1014000048EA0747BD4202FA01F200FA01FB09D996
:1014100017EB0C070AF1FF3041D2BD423FD9AAF1C8
:10142000020A67447F1BB7FBF9F509FB157705FB3B
:1014300003F3A4B244EA0747BB4208D917EB0C07F1
:1014400005F1FF3027D2BB4225D9023D674445EA6A
:101450000A40A0FB0289FF1A4F4545464C4614D36B
:1014600029D066B3BBEB050367EB040707FA0EFE52
:10147000CB40CF404EEA030386E888000021BDE858
:10148000F08F2346F3E61846DAE6B8EB020569EB7F
:101490000C040138E5E70546D9E7104692E7824695
:1014A000C0E7924678E702383A4443E7084604E743
:1014B000023B3C442AE7C345E7D33C46D1E73146EB
:1014C000BDE8F08F704700BF70B4840746D0541E4B
:1014D000002A41D0CDB2034602E0621EE4B31446B6
:1014E00003F8015B9A07F8D1032C2ED9CDB245EA57
:1014F00005250F2C45EA054519D9264603F11002AA
:10150000103E0F2E42F8105C42F80C5C42F8085C6A
:1015100042F8045C02F11002F2D8A4F1100222F0A9
:101520000F0204F00F041032032C13440DD91E4691
:101530002246043A032A46F8045BFAD8221F22F016
:1015400003020432134404F003042CB1C9B21C4456
:1015500003F8011BA342FBD170BC7047144603463D
:10156000C2E700BF25732025642025732025303471
:10157000640000004D6F6E646179000054756573FE
:10158000646179005765646E657364617900000079
:101590005468757273646179000000004672696472
:1015A0006179000053617475726461790000000014
:1015B00053756E64617900004A616E7561727900DD
:1015C0004665627275617279000000004D61726358
:1015D00068000000417072696C0000004A756E6519
:1015E000000000004A756C790000000041756775C5
:1015F0007374000053657074656D6265720000005D
:101600004F63746F626572004E6F76656D626572CE
:1016100000000000446563656D62657200000000B3
:101620000D0A0D0A434F554E5445523A2025640D7C
:101630000A000000253032642E253032642E253019
:1016400034642020253032643A253032643A253023
:0816500032640D0A00000000E5
:0816580080FBFF7F0100000090
:101660000000000001020304010203040607080948
:041670000204060862
:0400000508000000EF
:00000001FF
